{
  "_format": "hh-sol-artifact-1",
  "contractName": "Deployment",
  "sourceName": "contracts/Deploy.sol",
  "abi": [
    {
      "inputs": [
        {
          "internalType": "string",
          "name": "name",
          "type": "string"
        },
        {
          "internalType": "string",
          "name": "symbol",
          "type": "string"
        },
        {
          "internalType": "uint256",
          "name": "totalSupply",
          "type": "uint256"
        },
        {
          "internalType": "uint256",
          "name": "funderGets",
          "type": "uint256"
        },
        {
          "components": [
            {
              "internalType": "bool",
              "name": "enabled",
              "type": "bool"
            },
            {
              "internalType": "uint256",
              "name": "minDelay",
              "type": "uint256"
            },
            {
              "internalType": "address[]",
              "name": "proposers",
              "type": "address[]"
            },
            {
              "internalType": "address[]",
              "name": "executors",
              "type": "address[]"
            }
          ],
          "internalType": "struct Deployment.TimeLockSettings",
          "name": "timelockSet",
          "type": "tuple"
        },
        {
          "components": [
            {
              "internalType": "address",
              "name": "owner",
              "type": "address"
            },
            {
              "internalType": "address",
              "name": "fundManager",
              "type": "address"
            },
            {
              "internalType": "address[]",
              "name": "minters",
              "type": "address[]"
            },
            {
              "internalType": "address[]",
              "name": "moderators",
              "type": "address[]"
            }
          ],
          "internalType": "struct Deployment.RoleSettings",
          "name": "roles",
          "type": "tuple"
        },
        {
          "components": [
            {
              "internalType": "bool",
              "name": "enabled",
              "type": "bool"
            },
            {
              "internalType": "uint256",
              "name": "amount",
              "type": "uint256"
            },
            {
              "internalType": "uint256",
              "name": "rate",
              "type": "uint256"
            }
          ],
          "internalType": "struct Deployment.ICOSettings",
          "name": "icoSet",
          "type": "tuple"
        },
        {
          "components": [
            {
              "internalType": "bool",
              "name": "enabled",
              "type": "bool"
            },
            {
              "internalType": "uint256",
              "name": "cliff",
              "type": "uint256"
            },
            {
              "internalType": "uint256",
              "name": "duration",
              "type": "uint256"
            }
          ],
          "internalType": "struct Deployment.VestingSettings",
          "name": "vesting",
          "type": "tuple"
        }
      ],
      "stateMutability": "nonpayable",
      "type": "constructor"
    },
    {
      "inputs": [],
      "name": "controllerContract",
      "outputs": [
        {
          "internalType": "contract TimelockController",
          "name": "",
          "type": "address"
        }
      ],
      "stateMutability": "view",
      "type": "function"
    },
    {
      "inputs": [],
      "name": "icoContract",
      "outputs": [
        {
          "internalType": "contract ICO",
          "name": "",
          "type": "address"
        }
      ],
      "stateMutability": "view",
      "type": "function"
    },
    {
      "inputs": [],
      "name": "insultingContract",
      "outputs": [
        {
          "internalType": "contract Insulting",
          "name": "",
          "type": "address"
        }
      ],
      "stateMutability": "view",
      "type": "function"
    },
    {
      "inputs": [],
      "name": "tokenContract",
      "outputs": [
        {
          "internalType": "contract Token",
          "name": "",
          "type": "address"
        }
      ],
      "stateMutability": "view",
      "type": "function"
    },
    {
      "inputs": [],
      "name": "vestingContract",
      "outputs": [
        {
          "internalType": "contract TokenVesting",
          "name": "",
          "type": "address"
        }
      ],
      "stateMutability": "view",
      "type": "function"
    }
  ],
  "bytecode": "0x60806040523480156200001157600080fd5b5060405162007ed038038062007ed083398101604081905262000034916200079e565b85851115620000605760405162461bcd60e51b8152600401620000579062000a0e565b60405180910390fd5b6200006c858762000b65565b82602001511115620000925760405162461bcd60e51b8152600401620000579062000a7d565b8351156200018457836020015184604001518560600151604051620000b7906200049d565b620000c59392919062000b00565b604051809103906000f080158015620000e2573d6000803e3d6000fd5b50600280546001600160a01b0319166001600160a01b0392831617908190556020850151604080870151606088015191518d958d958d959116939092916001906200012d90620004ab565b6200014098979695949392919062000980565b604051809103906000f0801580156200015d573d6000803e3d6000fd5b50600080546001600160a01b0319166001600160a01b0392909216919091179055620001fd565b87878785600001518660200151876040015188606001516001604051620001ab90620004ab565b620001be98979695949392919062000980565b604051809103906000f080158015620001db573d6000803e3d6000fd5b50600080546001600160a01b0319166001600160a01b03929092169190911790555b805115620002d65782602001518160200151826040015160006040516200022490620004b9565b6200023394939291906200093e565b604051809103906000f08015801562000250573d6000803e3d6000fd5b50600380546001600160a01b0319166001600160a01b03928316179081905560005460405163f3fef3a360e01b81529083169263f3fef3a3926200029c92911690899060040162000925565b600060405180830381600087803b158015620002b757600080fd5b505af1158015620002cc573d6000803e3d6000fd5b5050505062000342565b600054602084015160405163f3fef3a360e01b81526001600160a01b039092169163f3fef3a3916200030d91899060040162000925565b600060405180830381600087803b1580156200032857600080fd5b505af11580156200033d573d6000803e3d6000fd5b505050505b8151156200042157600054602084015160408085015190516001600160a01b03909316926200037190620004c7565b6200037f9392919062000901565b604051809103906000f0801580156200039c573d6000803e3d6000fd5b50600180546001600160a01b0319166001600160a01b039283161790819055600054602085015160405163f3fef3a360e01b81529184169363f3fef3a393620003ec939116919060040162000925565b600060405180830381600087803b1580156200040757600080fd5b505af11580156200041c573d6000803e3d6000fd5b505050505b60005460208401516040516001600160a01b03909216916200044390620004d5565b6200045092919062000966565b604051809103906000f0801580156200046d573d6000803e3d6000fd5b50600480546001600160a01b0319166001600160a01b03929092169190911790555062000bd29650505050505050565b611ed08062000cfe83390190565b6120378062002bce83390190565b610dba8062004c0583390190565b610e9e80620059bf83390190565b611673806200685d83390190565b80516001600160a01b0381168114620004fb57600080fd5b919050565b600082601f83011262000511578081fd5b815160206001600160401b038211156200052f576200052f62000bbc565b8082026200053f82820162000b39565b8381528281019086840183880185018910156200055a578687fd5b8693505b8584101562000587576200057281620004e3565b8352600193909301929184019184016200055e565b50979650505050505050565b80518015158114620004fb57600080fd5b600082601f830112620005b5578081fd5b81516001600160401b03811115620005d157620005d162000bbc565b620005e6601f8201601f191660200162000b39565b818152846020838601011115620005fb578283fd5b6200060e82602083016020870162000b89565b949350505050565b60006060828403121562000628578081fd5b604051606081016001600160401b03811182821017156200064d576200064d62000bbc565b6040529050806200065e8362000593565b815260208301516020820152604083015160408201525092915050565b6000608082840312156200068d578081fd5b604051608081016001600160401b038082118383101715620006b357620006b362000bbc565b81604052829350620006c585620004e3565b8352620006d560208601620004e3565b60208401526040850151915080821115620006ef57600080fd5b620006fd8683870162000500565b604084015260608501519150808211156200071757600080fd5b50620007268582860162000500565b6060830152505092915050565b60006080828403121562000745578081fd5b604051608081016001600160401b0380821183831017156200076b576200076b62000bbc565b816040528293506200077d8562000593565b8352602085015160208401526040850151915080821115620006ef57600080fd5b600080600080600080600080610180898b031215620007bb578384fd5b88516001600160401b0380821115620007d2578586fd5b620007e08c838d01620005a4565b995060208b0151915080821115620007f6578586fd5b620008048c838d01620005a4565b985060408b0151975060608b0151965060808b015191508082111562000828578586fd5b620008368c838d0162000733565b955060a08b01519150808211156200084c578485fd5b506200085b8b828c016200067b565b9350506200086d8a60c08b0162000616565b91506200087f8a6101208b0162000616565b90509295985092959890939650565b6000815180845260208085019450808401835b83811015620008c85781516001600160a01b031687529582019590820190600101620008a1565b509495945050505050565b60008151808452620008ed81602086016020860162000b89565b601f01601f19169290920160200192915050565b6001600160a01b039384168152919092166020820152604081019190915260600190565b6001600160a01b03929092168252602082015260400190565b6001600160a01b03949094168452602084019290925260408301521515606082015260800190565b6001600160a01b0392831681529116602082015260400190565b6000610100808352620009968184018c620008d3565b90508281036020840152620009ac818b620008d3565b604084018a90526001600160a01b0389811660608601528816608085015283810360a08501529050620009e081876200088e565b905082810360c0840152620009f681866200088e565b91505082151560e08301529998505050505050505050565b60208082526049908201527f54686520616d6f756e74207468652066756e64206d616e61676572206765747360408201527f206d757374206265206c6f776572207468616e2074686520746f74616c2073756060820152680e0e0d8f25840c8ead60bb1b608082015260a00190565b6020808252605f908201527f596f752063616e277420616c6c6f63617465206d6f7265207468616e2074686560408201527f20746f74616c20737570706c7920286578636c7564696e672066756e64206d6160608201527f6e61676572277320706f7274696f6e2920746f207468652069636f5365742100608082015260a00190565b60008482526060602083015262000b1b60608301856200088e565b828103604084015262000b2f81856200088e565b9695505050505050565b6040518181016001600160401b038111828210171562000b5d5762000b5d62000bbc565b604052919050565b60008282101562000b8457634e487b7160e01b81526011600452602481fd5b500390565b60005b8381101562000ba657818101518382015260200162000b8c565b8381111562000bb6576000848401525b50505050565b634e487b7160e01b600052604160045260246000fd5b61011c8062000be26000396000f3fe6080604052348015600f57600080fd5b506004361060505760003560e01c8063362c27ae14605557806355a373d614606f5780635e6f6045146075578063b5a01c4e14607b578063c66e4095146081575b600080fd5b605b6087565b6040516066919060d2565b60405180910390f35b605b6096565b605b60a5565b605b60b4565b605b60c3565b6004546001600160a01b031681565b6000546001600160a01b031681565b6003546001600160a01b031681565b6002546001600160a01b031681565b6001546001600160a01b031681565b6001600160a01b039190911681526020019056fea2646970667358221220c7b6308fcaa9c57b4002d37760c816aadceee0635107deafea0b354b240c814c64736f6c6343000800003360806040523480156200001157600080fd5b5060405162001ed038038062001ed08339810160408190526200003491620003da565b6200004f60008051602062001e7083398151915280620001ed565b6200007960008051602062001e9083398151915260008051602062001e70833981519152620001ed565b620000a360008051602062001eb083398151915260008051602062001e70833981519152620001ed565b620000c760008051602062001e70833981519152620000c162000239565b6200023d565b620000e260008051602062001e70833981519152306200023d565b60005b82518110156200014b576200013860008051602062001e908339815191528483815181106200012457634e487b7160e01b600052603260045260246000fd5b60200260200101516200023d60201b60201c565b620001438162000459565b9050620000e5565b5060005b8151811015620001a1576200018e60008051602062001eb08339815191528383815181106200012457634e487b7160e01b600052603260045260246000fd5b620001998162000459565b90506200014f565b5060028390556040517f11c24f4ead16507c69ac467fbd5e4eed5fb5c699626d2cc6d66421df253886d590620001dc9060009086906200044b565b60405180910390a150505062000497565b80620001f9836200024d565b60405184907fbd79b86ffe0ab8e8776151514217cd7cacd52c909f66475c3af44e129f0b00ff90600090a460009182526020829052604090912060010155565b3390565b62000249828262000265565b5050565b6000818152602081905260409020600101545b919050565b620002718282620002ef565b62000249576000828152602081815260408083206001600160a01b03851684529091529020805460ff19166001179055620002ab62000239565b6001600160a01b0316816001600160a01b0316837f2f8788117e7eff1d82e926ec794901d17c78024a50270940304540a733656f0d60405160405180910390a45050565b6000918252602082815260408084206001600160a01b0393909316845291905290205460ff1690565b80516001600160a01b03811681146200026057600080fd5b600082601f83011262000341578081fd5b815160206001600160401b038083111562000360576200036062000481565b8183026040518382820101818110848211171562000382576200038262000481565b60405284815283810192508684018288018501891015620003a1578687fd5b8692505b85831015620003ce57620003b98162000318565b845292840192600192909201918401620003a5565b50979650505050505050565b600080600060608486031215620003ef578283fd5b835160208501519093506001600160401b03808211156200040e578384fd5b6200041c8783880162000330565b9350604086015191508082111562000432578283fd5b50620004418682870162000330565b9150509250925092565b918252602082015260400190565b60006000198214156200047a57634e487b7160e01b81526011600452602481fd5b5060010190565b634e487b7160e01b600052604160045260246000fd5b6119c980620004a76000396000f3fe60806040526004361061011f5760003560e01c806301d5062a1461012b57806301ffc9a71461014d57806307bd0265146101835780630d3cf6fc146101a5578063134008d3146101ba57806313bc9f20146101cd578063248a9ca3146101ed5780632ab0f5291461020d5780632f2ff15d1461022d57806331d507501461024d57806336568abe1461026d578063584b153e1461028d57806364d62353146102ad5780638065657f146102cd5780638f2a0bb0146102ed5780638f61f4f51461030d57806391d1485414610322578063a217fddf14610342578063b1c5f42714610357578063c4d252f514610377578063d45c443514610397578063d547741f146103b7578063e38335e5146103d7578063f27a0c92146103ea57610126565b3661012657005b600080fd5b34801561013757600080fd5b5061014b61014636600461109b565b6103ff565b005b34801561015957600080fd5b5061016d6101683660046112a1565b610478565b60405161017a9190611510565b60405180910390f35b34801561018f57600080fd5b506101986104a5565b60405161017a919061151b565b3480156101b157600080fd5b506101986104b7565b61014b6101c8366004611032565b6104db565b3480156101d957600080fd5b5061016d6101e836600461125e565b610542565b3480156101f957600080fd5b5061019861020836600461125e565b610567565b34801561021957600080fd5b5061016d61022836600461125e565b61057c565b34801561023957600080fd5b5061014b610248366004611276565b610590565b34801561025957600080fd5b5061016d61026836600461125e565b6105b4565b34801561027957600080fd5b5061014b610288366004611276565b6105c7565b34801561029957600080fd5b5061016d6102a836600461125e565b610616565b3480156102b957600080fd5b5061014b6102c836600461125e565b610623565b3480156102d957600080fd5b506101986102e8366004611032565b610682565b3480156102f957600080fd5b5061014b6103083660046111b1565b6106c1565b34801561031957600080fd5b5061019861081c565b34801561032e57600080fd5b5061016d61033d366004611276565b61082e565b34801561034e57600080fd5b50610198610857565b34801561036357600080fd5b5061019861037236600461110d565b61085c565b34801561038357600080fd5b5061014b61039236600461125e565b6108a1565b3480156103a357600080fd5b506101986103b236600461125e565b61091d565b3480156103c357600080fd5b5061014b6103d2366004611276565b61092f565b61014b6103e536600461110d565b61094e565b3480156103f657600080fd5b50610198610a9c565b60008051602061193483398151915261041f8161041a610aa2565b610aa6565b600061042f898989898989610682565b905061043b8184610b0a565b6000816000805160206119748339815191528b8b8b8b8b8a6040516104659695949392919061142e565b60405180910390a3505050505050505050565b60006001600160e01b03198216637965db0b60e01b148061049d575061049d82610b77565b90505b919050565b60008051602061195483398151915281565b7f5f58e3a2316349923ce3780f8d587db2d72378aed66a8261c916544fa6846ca581565b6000805160206119548339815191526104f581600061082e565b610505576105058161041a610aa2565b6000610515888888888888610682565b905061052084610b90565b61052f8160008a8a8a8a610bc0565b61053881610c88565b5050505050505050565b60008061054e8361091d565b90506001811180156105605750428111155b9392505050565b60009081526020819052604090206001015490565b600060016105898361091d565b1492915050565b61059982610567565b6105a58161041a610aa2565b6105af8383610cc1565b505050565b6000806105c08361091d565b1192915050565b6105cf610aa2565b6001600160a01b0316816001600160a01b0316146106085760405162461bcd60e51b81526004016105ff90611790565b60405180910390fd5b6106128282610d46565b5050565b600060016105c08361091d565b3330146106425760405162461bcd60e51b81526004016105ff90611745565b7f11c24f4ead16507c69ac467fbd5e4eed5fb5c699626d2cc6d66421df253886d560025482604051610675929190611832565b60405180910390a1600255565b600086868686868660405160200161069f9695949392919061142e565b6040516020818303038152906040528051906020012090509695505050505050565b6000805160206119348339815191526106dc8161041a610aa2565b8887146106fb5760405162461bcd60e51b81526004016105ff906115d2565b88851461071a5760405162461bcd60e51b81526004016105ff906115d2565b600061072c8b8b8b8b8b8b8b8b61085c565b90506107388184610b0a565b60005b8a81101561080e5780826000805160206119748339815191528e8e8581811061077457634e487b7160e01b600052603260045260246000fd5b90506020020160208101906107899190611018565b8d8d868181106107a957634e487b7160e01b600052603260045260246000fd5b905060200201358c8c878181106107d057634e487b7160e01b600052603260045260246000fd5b90506020028101906107e29190611840565b8c8b6040516107f69695949392919061142e565b60405180910390a361080781611902565b905061073b565b505050505050505050505050565b60008051602061193483398151915281565b6000918252602082815260408084206001600160a01b0393909316845291905290205460ff1690565b600081565b6000888888888888888860405160200161087d98979695949392919061146b565b60405160208183030381529060405280519060200120905098975050505050505050565b6000805160206119348339815191526108bc8161041a610aa2565b6108c582610616565b6108e15760405162461bcd60e51b81526004016105ff906116f4565b6000828152600160205260408082208290555183917fbaa1eb22f2a492ba1a5fea61b8df4d27c6c8b5f3971e63bb58fa14ff72eedb7091a25050565b60009081526001602052604090205490565b61093882610567565b6109448161041a610aa2565b6105af8383610d46565b60008051602061195483398151915261096881600061082e565b610978576109788161041a610aa2565b8786146109975760405162461bcd60e51b81526004016105ff906115d2565b8784146109b65760405162461bcd60e51b81526004016105ff906115d2565b60006109c88a8a8a8a8a8a8a8a61085c565b90506109d384610b90565b60005b89811015610a8657610a7682828d8d85818110610a0357634e487b7160e01b600052603260045260246000fd5b9050602002016020810190610a189190611018565b8c8c86818110610a3857634e487b7160e01b600052603260045260246000fd5b905060200201358b8b87818110610a5f57634e487b7160e01b600052603260045260246000fd5b9050602002810190610a719190611840565b610bc0565b610a7f81611902565b90506109d6565b50610a9081610c88565b50505050505050505050565b60025490565b3390565b610ab0828261082e565b61061257610ac8816001600160a01b03166014610dc9565b610ad3836020610dc9565b604051602001610ae492919061138d565b60408051601f198184030181529082905262461bcd60e51b82526105ff91600401611524565b610b13826105b4565b15610b305760405162461bcd60e51b81526004016105ff9061165b565b610b38610a9c565b811015610b575760405162461bcd60e51b81526004016105ff90611615565b610b618142611884565b6000928352600160205260409092209190915550565b6001600160e01b031981166301ffc9a760e01b14919050565b801580610ba15750610ba18161057c565b610bbd5760405162461bcd60e51b81526004016105ff9061158c565b50565b6000846001600160a01b0316848484604051610bdd92919061137d565b60006040518083038185875af1925050503d8060008114610c1a576040519150601f19603f3d011682016040523d82523d6000602084013e610c1f565b606091505b5050905080610c405760405162461bcd60e51b81526004016105ff906117df565b85877fc2617efa69bab66782fa219543714338489c4e9e178271560a91b82c3f612b5887878787604051610c7794939291906113fc565b60405180910390a350505050505050565b610c9181610542565b610cad5760405162461bcd60e51b81526004016105ff906116aa565b600090815260016020819052604090912055565b610ccb828261082e565b610612576000828152602081815260408083206001600160a01b03851684529091529020805460ff19166001179055610d02610aa2565b6001600160a01b0316816001600160a01b0316837f2f8788117e7eff1d82e926ec794901d17c78024a50270940304540a733656f0d60405160405180910390a45050565b610d50828261082e565b15610612576000828152602081815260408083206001600160a01b03851684529091529020805460ff19169055610d85610aa2565b6001600160a01b0316816001600160a01b0316837ff6391f5c32d9c69d2a47ea670b442974b53935d1edc7fd64eb21e047a839171b60405160405180910390a45050565b60606000610dd883600261189c565b610de3906002611884565b6001600160401b03811115610e0857634e487b7160e01b600052604160045260246000fd5b6040519080825280601f01601f191660200182016040528015610e32576020820181803683370190505b509050600360fc1b81600081518110610e5b57634e487b7160e01b600052603260045260246000fd5b60200101906001600160f81b031916908160001a905350600f60fb1b81600181518110610e9857634e487b7160e01b600052603260045260246000fd5b60200101906001600160f81b031916908160001a9053506000610ebc84600261189c565b610ec7906001611884565b90505b6001811115610f5b576f181899199a1a9b1b9c1cb0b131b232b360811b85600f1660108110610f0957634e487b7160e01b600052603260045260246000fd5b1a60f81b828281518110610f2d57634e487b7160e01b600052603260045260246000fd5b60200101906001600160f81b031916908160001a90535060049490941c93610f54816118eb565b9050610eca565b5083156105605760405162461bcd60e51b81526004016105ff90611557565b80356001600160a01b03811681146104a057600080fd5b60008083601f840112610fa2578182fd5b5081356001600160401b03811115610fb8578182fd5b6020830191508360208083028501011115610fd257600080fd5b9250929050565b60008083601f840112610fea578182fd5b5081356001600160401b03811115611000578182fd5b602083019150836020828501011115610fd257600080fd5b600060208284031215611029578081fd5b61056082610f7a565b60008060008060008060a0878903121561104a578182fd5b61105387610f7a565b95506020870135945060408701356001600160401b03811115611074578283fd5b61108089828a01610fd9565b979a9699509760608101359660809091013595509350505050565b600080600080600080600060c0888a0312156110b5578081fd5b6110be88610f7a565b96506020880135955060408801356001600160401b038111156110df578182fd5b6110eb8a828b01610fd9565b989b979a50986060810135976080820135975060a09091013595509350505050565b60008060008060008060008060a0898b031215611128578081fd5b88356001600160401b038082111561113e578283fd5b61114a8c838d01610f91565b909a50985060208b0135915080821115611162578283fd5b61116e8c838d01610f91565b909850965060408b0135915080821115611186578283fd5b506111938b828c01610f91565b999c989b509699959896976060870135966080013595509350505050565b600080600080600080600080600060c08a8c0312156111ce578081fd5b89356001600160401b03808211156111e4578283fd5b6111f08d838e01610f91565b909b50995060208c0135915080821115611208578283fd5b6112148d838e01610f91565b909950975060408c013591508082111561122c578283fd5b506112398c828d01610f91565b9a9d999c50979a969997986060880135976080810135975060a0013595509350505050565b60006020828403121561126f578081fd5b5035919050565b60008060408385031215611288578182fd5b8235915061129860208401610f7a565b90509250929050565b6000602082840312156112b2578081fd5b81356001600160e01b031981168114610560578182fd5b818352602080840193600091908185020181018584845b878110156113465782840389528135601e19883603018112611300578687fd5b870180356001600160401b03811115611317578788fd5b803603891315611325578788fd5b6113328682898501611353565b9a87019a95505050908401906001016112e0565b5091979650505050505050565b60008284528282602086013780602084860101526020601f19601f85011685010190509392505050565b6000828483379101908152919050565b600076020b1b1b2b9b9a1b7b73a3937b61d1030b1b1b7bab73a1604d1b825283516113bf8160178501602088016118bb565b7001034b99036b4b9b9b4b733903937b6329607d1b60179184019182015283516113f08160288401602088016118bb565b01602801949350505050565b600060018060a01b038616825284602083015260606040830152611424606083018486611353565b9695505050505050565b600060018060a01b038816825286602083015260a0604083015261145660a083018688611353565b60608301949094525060800152949350505050565b60a0808252810188905260008960c08301825b8b8110156114ac576001600160a01b0361149784610f7a565b1682526020928301929091019060010161147e565b5083810360208501528881526001600160fb1b038911156114cb578283fd5b602089029150818a602083013701602081810183815284830390910160408501526114f781888a6112c9565b6060850196909652505050608001529695505050505050565b901515815260200190565b90815260200190565b60006020825282518060208401526115438160408501602087016118bb565b601f01601f19169190910160400192915050565b6020808252818101527f537472696e67733a20686578206c656e67746820696e73756666696369656e74604082015260600190565b60208082526026908201527f54696d656c6f636b436f6e74726f6c6c65723a206d697373696e6720646570656040820152656e64656e637960d01b606082015260800190565b60208082526023908201527f54696d656c6f636b436f6e74726f6c6c65723a206c656e677468206d69736d616040820152620e8c6d60eb1b606082015260800190565b60208082526026908201527f54696d656c6f636b436f6e74726f6c6c65723a20696e73756666696369656e746040820152652064656c617960d01b606082015260800190565b6020808252602f908201527f54696d656c6f636b436f6e74726f6c6c65723a206f7065726174696f6e20616c60408201526e1c9958591e481cd8da19591d5b1959608a1b606082015260800190565b6020808252602a908201527f54696d656c6f636b436f6e74726f6c6c65723a206f7065726174696f6e206973604082015269206e6f7420726561647960b01b606082015260800190565b60208082526031908201527f54696d656c6f636b436f6e74726f6c6c65723a206f7065726174696f6e2063616040820152701b9b9bdd0818994818d85b98d95b1b1959607a1b606082015260800190565b6020808252602b908201527f54696d656c6f636b436f6e74726f6c6c65723a2063616c6c6572206d7573742060408201526a62652074696d656c6f636b60a81b606082015260800190565b6020808252602f908201527f416363657373436f6e74726f6c3a2063616e206f6e6c792072656e6f756e636560408201526e103937b632b9903337b91039b2b63360891b606082015260800190565b60208082526033908201527f54696d656c6f636b436f6e74726f6c6c65723a20756e6465726c79696e6720746040820152721c985b9cd858dd1a5bdb881c995d995c9d1959606a1b606082015260800190565b918252602082015260400190565b6000808335601e19843603018112611856578283fd5b8301803591506001600160401b0382111561186f578283fd5b602001915036819003821315610fd257600080fd5b600082198211156118975761189761191d565b500190565b60008160001904831182151516156118b6576118b661191d565b500290565b60005b838110156118d65781810151838201526020016118be565b838111156118e5576000848401525b50505050565b6000816118fa576118fa61191d565b506000190190565b60006000198214156119165761191661191d565b5060010190565b634e487b7160e01b600052601160045260246000fdfeb09aa5aeb3702cfd50b6b62bc4532604938f21248a27a1d5ca736082b6819cc1d8aa0f3194971a2a116679f7c2090f6939c8d4e01a2a8d7e41d55e5351469e634cf4410cc57040e44862ef0f45f3dd5a5e02db8eb8add648d4b0e236f1d07dcaa264697066735822122070ba16a097f5f6efedd0bddccfe27487c972987c8a84c5c6b6e40619a8e9905264736f6c634300080000335f58e3a2316349923ce3780f8d587db2d72378aed66a8261c916544fa6846ca5b09aa5aeb3702cfd50b6b62bc4532604938f21248a27a1d5ca736082b6819cc1d8aa0f3194971a2a116679f7c2090f6939c8d4e01a2a8d7e41d55e5351469e6360806040523480156200001157600080fd5b506040516200203738038062002037833981016040819052620000349162000612565b8751889088906200004d9060039060208501906200041a565b508051620000639060049060208401906200041a565b505050620000783087620001b260201b60201c565b8015620000a7576200008c60003362000286565b620000a760008051602062001ff78339815191523362000286565b620000b460008662000286565b620000cf60008051602062001ff78339815191528562000286565b60005b83518110156200014b57620001367ff0887ba65ee2024ea881d91b74c2450ef19e1557f03bed3ea9f16b037cbe2dc98583815181106200012257634e487b7160e01b600052603260045260246000fd5b60200260200101516200028660201b60201c565b8062000142816200083a565b915050620000d2565b5060005b8251811015620001a3576200018e600080516020620020178339815191528483815181106200012257634e487b7160e01b600052603260045260246000fd5b806200019a816200083a565b9150506200014f565b50505050505050505062000884565b6001600160a01b038216620001e45760405162461bcd60e51b8152600401620001db9062000776565b60405180910390fd5b620001f26000838362000296565b8060026000828254620002069190620007e2565b90915550506001600160a01b0382166000908152602081905260408120805483929062000235908490620007e2565b90915550506040516001600160a01b038316906000907fddf252ad1be2c89b69c2b068fc378daa952ba7f163c4a11628f55a4df523b3ef906200027a908590620007ad565b60405180910390a35050565b6200029282826200035f565b5050565b60075460ff16158015620002c25750620002c06000805160206200201783398151915284620003eb565b155b620002e15760405162461bcd60e51b8152600401620001db9062000708565b6001600160a01b03831660009081526006602052604090205460ff16158015620003235750620003216000805160206200201783398151915284620003eb565b155b620003425760405162461bcd60e51b8152600401620001db906200073f565b6200035a8383836200035a60201b620004fb1760201c565b505050565b6200036b8282620003eb565b620002925760008281526005602090815260408083206001600160a01b03851684529091529020805460ff19166001179055620003a762000416565b6001600160a01b0316816001600160a01b0316837f2f8788117e7eff1d82e926ec794901d17c78024a50270940304540a733656f0d60405160405180910390a45050565b60009182526005602090815260408084206001600160a01b0393909316845291905290205460ff1690565b3390565b8280546200042890620007fd565b90600052602060002090601f0160209004810192826200044c576000855562000497565b82601f106200046757805160ff191683800117855562000497565b8280016001018555821562000497579182015b82811115620004975782518255916020019190600101906200047a565b50620004a5929150620004a9565b5090565b5b80821115620004a55760008155600101620004aa565b80516001600160a01b0381168114620004d857600080fd5b919050565b600082601f830112620004ee578081fd5b815160206001600160401b038211156200050c576200050c6200086e565b8082026200051c828201620007b6565b83815282810190868401838801850189101562000537578687fd5b8693505b8584101562000564576200054f81620004c0565b8352600193909301929184019184016200053b565b50979650505050505050565b80518015158114620004d857600080fd5b600082601f83011262000592578081fd5b81516001600160401b03811115620005ae57620005ae6200086e565b6020620005c4601f8301601f19168201620007b6565b8281528582848701011115620005d8578384fd5b835b83811015620005f7578581018301518282018401528201620005da565b838111156200060857848385840101525b5095945050505050565b600080600080600080600080610100898b0312156200062f578384fd5b88516001600160401b038082111562000646578586fd5b620006548c838d0162000581565b995060208b01519150808211156200066a578586fd5b620006788c838d0162000581565b985060408b015197506200068f60608c01620004c0565b96506200069f60808c01620004c0565b955060a08b0151915080821115620006b5578485fd5b620006c38c838d01620004dd565b945060c08b0151915080821115620006d9578384fd5b50620006e88b828c01620004dd565b925050620006f960e08a0162000570565b90509295985092959890939650565b60208082526015908201527f496e73756c74436f696e206973207061757365642e0000000000000000000000604082015260600190565b60208082526017908201527f596f7572206163636f756e74206973207061757365642e000000000000000000604082015260600190565b6020808252601f908201527f45524332303a206d696e7420746f20746865207a65726f206164647265737300604082015260600190565b90815260200190565b6040518181016001600160401b0381118282101715620007da57620007da6200086e565b604052919050565b60008219821115620007f857620007f862000858565b500190565b6002810460018216806200081257607f821691505b602082108114156200083457634e487b7160e01b600052602260045260246000fd5b50919050565b600060001982141562000851576200085162000858565b5060010190565b634e487b7160e01b600052601160045260246000fd5b634e487b7160e01b600052604160045260246000fd5b61176380620008946000396000f3fe608060405234801561001057600080fd5b50600436106101495760003560e01c806301ffc9a71461014e57806306fdde0314610177578063095ea7b31461018c57806318160ddd1461019f57806323b872dd146101b4578063248a9ca3146101c75780632e48152c146101da5780632f2ff15d146101ed578063313ce5671461020257806334b4e6251461021757806336568abe1461021f57806339509351146102325780633fd629c21461024557806340c10f191461025857806370a082311461026b57806391d148541461027e57806395d89b41146102915780639be6390e14610299578063a217fddf146102a1578063a457c2d7146102a9578063a9059cbb146102bc578063ad343299146102cf578063c22dc722146102d7578063d547741f146102ea578063dd62ed3e146102fd578063f3fef3a314610310578063fe6d812414610323575b600080fd5b61016161015c3660046110be565b61032b565b60405161016e919061116e565b60405180910390f35b61017f610358565b60405161016e9190611182565b61016161019a366004611023565b6103ea565b6101a7610407565b60405161016e9190611179565b6101616101c2366004610fb2565b61040d565b6101a76101d5366004611084565b6104ad565b6101616101e8366004610f66565b6104c2565b6102006101fb36600461109c565b6104d7565b005b61020a610500565b60405161016e91906115a8565b6101a7610505565b61020061022d36600461109c565b610517565b610161610240366004611023565b61055d565b61020061025336600461104c565b6105ac565b610200610266366004611023565b6105f3565b6101a7610279366004610f66565b610657565b61016161028c36600461109c565b610672565b61017f61069d565b6101616106ac565b6101a76106b5565b6101616102b7366004611023565b6106ba565b6101616102ca366004611023565b610735565b6101a7610749565b6102006102e5366004610fed565b61075b565b6102006102f836600461109c565b6107ba565b6101a761030b366004610f80565b6107d9565b61020061031e366004611023565b610804565b6101a76108d7565b60006001600160e01b03198216637965db0b60e01b14806103505750610350826108e9565b90505b919050565b6060600380546103679061164b565b80601f01602080910402602001604051908101604052809291908181526020018280546103939061164b565b80156103e05780601f106103b5576101008083540402835291602001916103e0565b820191906000526020600020905b8154815290600101906020018083116103c357829003601f168201915b5050505050905090565b60006103fe6103f7610902565b8484610906565b50600192915050565b60025490565b600061041a8484846109ba565b6001600160a01b03841660009081526001602052604081208161043b610902565b6001600160a01b03166001600160a01b03168152602001908152602001600020549050828110156104875760405162461bcd60e51b815260040161047e90611376565b60405180910390fd5b6104a285610493610902565b61049d86856115ed565b610906565b506001949350505050565b60009081526005602052604090206001015490565b60066020526000908152604090205460ff1681565b6104e0826104ad565b6104f1816104ec610902565b610ad0565b6104fb8383610b34565b505050565b601290565b60008051602061170e83398151915281565b61051f610902565b6001600160a01b0316816001600160a01b03161461054f5760405162461bcd60e51b815260040161047e90611522565b6105598282610bbb565b5050565b60006103fe61056a610902565b848460016000610578610902565b6001600160a01b03908116825260208083019390935260409182016000908120918b168152925290205461049d91906115b6565b6105c460008051602061170e83398151915233610672565b6105e05760405162461bcd60e51b815260040161047e9061125c565b6007805460ff1916911515919091179055565b6001600160a01b0382166106195760405162461bcd60e51b815260040161047e90611287565b6106316000805160206116ce83398151915233610672565b61064d5760405162461bcd60e51b815260040161047e906113f5565b6105598282610c40565b6001600160a01b031660009081526020819052604090205490565b60009182526005602090815260408084206001600160a01b0393909316845291905290205460ff1690565b6060600480546103679061164b565b60075460ff1681565b600081565b600080600160006106c9610902565b6001600160a01b03908116825260208083019390935260409182016000908120918816815292529020549050828110156107155760405162461bcd60e51b815260040161047e906114dd565b61072b610720610902565b8561049d86856115ed565b5060019392505050565b60006103fe610742610902565b84846109ba565b6000805160206116ae83398151915281565b61077360008051602061170e83398151915233610672565b61078f5760405162461bcd60e51b815260040161047e9061125c565b6001600160a01b03919091166000908152600660205260409020805460ff1916911515919091179055565b6107c3826104ad565b6107cf816104ec610902565b6104fb8383610bbb565b6001600160a01b03918216600090815260016020908152604080832093909416825291909152205490565b61081c6000805160206116ae83398151915233610672565b6108385760405162461bcd60e51b815260040161047e9061133f565b61084130610657565b8111156108605760405162461bcd60e51b815260040161047e906113be565b60405163a9059cbb60e01b8152309063a9059cbb906108859085908590600401611155565b602060405180830381600087803b15801561089f57600080fd5b505af11580156108b3573d6000803e3d6000fd5b505050506040513d601f19601f820116820180604052508101906104fb9190611068565b6000805160206116ce83398151915281565b6001600160e01b031981166301ffc9a760e01b14919050565b3390565b6001600160a01b03831661092c5760405162461bcd60e51b815260040161047e90611468565b6001600160a01b0382166109525760405162461bcd60e51b815260040161047e906112b7565b6001600160a01b0380841660008181526001602090815260408083209487168084529490915290819020849055517f8c5be1e5ebec7d5bd14f71427d1e84f3dd0314c0f7b2291e5b200ac8c7c3b925906109ad908590611179565b60405180910390a3505050565b6001600160a01b0383166109e05760405162461bcd60e51b815260040161047e90611423565b6001600160a01b038216610a065760405162461bcd60e51b815260040161047e906111ea565b610a11838383610cee565b6001600160a01b03831660009081526020819052604090205481811015610a4a5760405162461bcd60e51b815260040161047e906112f9565b610a5482826115ed565b6001600160a01b038086166000908152602081905260408082209390935590851681529081208054849290610a8a9084906115b6565b92505081905550826001600160a01b0316846001600160a01b03166000805160206116ee83398151915284604051610ac29190611179565b60405180910390a350505050565b610ada8282610672565b61055957610af2816001600160a01b03166014610d97565b610afd836020610d97565b604051602001610b0e9291906110e6565b60408051601f198184030181529082905262461bcd60e51b825261047e91600401611182565b610b3e8282610672565b6105595760008281526005602090815260408083206001600160a01b03851684529091529020805460ff19166001179055610b77610902565b6001600160a01b0316816001600160a01b0316837f2f8788117e7eff1d82e926ec794901d17c78024a50270940304540a733656f0d60405160405180910390a45050565b610bc58282610672565b156105595760008281526005602090815260408083206001600160a01b03851684529091529020805460ff19169055610bfc610902565b6001600160a01b0316816001600160a01b0316837ff6391f5c32d9c69d2a47ea670b442974b53935d1edc7fd64eb21e047a839171b60405160405180910390a45050565b6001600160a01b038216610c665760405162461bcd60e51b815260040161047e90611571565b610c7260008383610cee565b8060026000828254610c8491906115b6565b90915550506001600160a01b03821660009081526020819052604081208054839290610cb19084906115b6565b90915550506040516001600160a01b038316906000906000805160206116ee83398151915290610ce2908590611179565b60405180910390a35050565b60075460ff16158015610d165750610d1460008051602061170e83398151915284610672565b155b610d325760405162461bcd60e51b815260040161047e9061122d565b6001600160a01b03831660009081526006602052604090205460ff16158015610d705750610d6e60008051602061170e83398151915284610672565b155b610d8c5760405162461bcd60e51b815260040161047e906114ac565b6104fb8383836104fb565b60606000610da68360026115ce565b610db19060026115b6565b6001600160401b03811115610dd657634e487b7160e01b600052604160045260246000fd5b6040519080825280601f01601f191660200182016040528015610e00576020820181803683370190505b509050600360fc1b81600081518110610e2957634e487b7160e01b600052603260045260246000fd5b60200101906001600160f81b031916908160001a905350600f60fb1b81600181518110610e6657634e487b7160e01b600052603260045260246000fd5b60200101906001600160f81b031916908160001a9053506000610e8a8460026115ce565b610e959060016115b6565b90505b6001811115610f29576f181899199a1a9b1b9c1cb0b131b232b360811b85600f1660108110610ed757634e487b7160e01b600052603260045260246000fd5b1a60f81b828281518110610efb57634e487b7160e01b600052603260045260246000fd5b60200101906001600160f81b031916908160001a90535060049490941c93610f2281611634565b9050610e98565b508315610f485760405162461bcd60e51b815260040161047e906111b5565b9392505050565b80356001600160a01b038116811461035357600080fd5b600060208284031215610f77578081fd5b610f4882610f4f565b60008060408385031215610f92578081fd5b610f9b83610f4f565b9150610fa960208401610f4f565b90509250929050565b600080600060608486031215610fc6578081fd5b610fcf84610f4f565b9250610fdd60208501610f4f565b9150604084013590509250925092565b60008060408385031215610fff578182fd5b61100883610f4f565b915060208301356110188161169c565b809150509250929050565b60008060408385031215611035578182fd5b61103e83610f4f565b946020939093013593505050565b60006020828403121561105d578081fd5b8135610f488161169c565b600060208284031215611079578081fd5b8151610f488161169c565b600060208284031215611095578081fd5b5035919050565b600080604083850312156110ae578182fd5b82359150610fa960208401610f4f565b6000602082840312156110cf578081fd5b81356001600160e01b031981168114610f48578182fd5b600076020b1b1b2b9b9a1b7b73a3937b61d1030b1b1b7bab73a1604d1b82528351611118816017850160208801611604565b7001034b99036b4b9b9b4b733903937b6329607d1b6017918401918201528351611149816028840160208801611604565b01602801949350505050565b6001600160a01b03929092168252602082015260400190565b901515815260200190565b90815260200190565b60006020825282518060208401526111a1816040850160208701611604565b601f01601f19169190910160400192915050565b6020808252818101527f537472696e67733a20686578206c656e67746820696e73756666696369656e74604082015260600190565b60208082526023908201527f45524332303a207472616e7366657220746f20746865207a65726f206164647260408201526265737360e81b606082015260800190565b60208082526015908201527424b739bab63a21b7b4b71034b9903830bab9b2b21760591b604082015260600190565b602080825260119082015270596f75206172656e27742061206d6f642160781b604082015260600190565b602080825260169082015275596f752063616e2774206d696e7420746f203078302160501b604082015260600190565b60208082526022908201527f45524332303a20617070726f766520746f20746865207a65726f206164647265604082015261737360f01b606082015260800190565b60208082526026908201527f45524332303a207472616e7366657220616d6f756e7420657863656564732062604082015265616c616e636560d01b606082015260800190565b6020808252601e908201527f556e617574686f72697a65642c206e6f742066756e64206d616e616765720000604082015260600190565b60208082526028908201527f45524332303a207472616e7366657220616d6f756e74206578636565647320616040820152676c6c6f77616e636560c01b606082015260800190565b6020808252601d908201527f416d6f756e7420686967686572207468616e206d792062616c616e6365000000604082015260600190565b602080825260149082015273596f75206172656e27742061206d696e7465722160601b604082015260600190565b60208082526025908201527f45524332303a207472616e736665722066726f6d20746865207a65726f206164604082015264647265737360d81b606082015260800190565b60208082526024908201527f45524332303a20617070726f76652066726f6d20746865207a65726f206164646040820152637265737360e01b606082015260800190565b6020808252601790820152762cb7bab91030b1b1b7bab73a1034b9903830bab9b2b21760491b604082015260600190565b60208082526025908201527f45524332303a2064656372656173656420616c6c6f77616e63652062656c6f77604082015264207a65726f60d81b606082015260800190565b6020808252602f908201527f416363657373436f6e74726f6c3a2063616e206f6e6c792072656e6f756e636560408201526e103937b632b9903337b91039b2b63360891b606082015260800190565b6020808252601f908201527f45524332303a206d696e7420746f20746865207a65726f206164647265737300604082015260600190565b60ff91909116815260200190565b600082198211156115c9576115c9611686565b500190565b60008160001904831182151516156115e8576115e8611686565b500290565b6000828210156115ff576115ff611686565b500390565b60005b8381101561161f578181015183820152602001611607565b8381111561162e576000848401525b50505050565b60008161164357611643611686565b506000190190565b60028104600182168061165f57607f821691505b6020821081141561168057634e487b7160e01b600052602260045260246000fd5b50919050565b634e487b7160e01b600052601160045260246000fd5b80151581146116aa57600080fd5b5056fe66b94ad480ec0823f8a0b3535544afb3710cebd5bc6d9711751f209f2164a0a6f0887ba65ee2024ea881d91b74c2450ef19e1557f03bed3ea9f16b037cbe2dc9ddf252ad1be2c89b69c2b068fc378daa952ba7f163c4a11628f55a4df523b3ef450f604b66826728ca410073b516e1076aad0ea311f86fdebe2ee3302575f10ea2646970667358221220f57fb7092ebf4a96d78778649909aa480bc8a16879be69e3291e7e47a4efdf4c64736f6c6343000800003366b94ad480ec0823f8a0b3535544afb3710cebd5bc6d9711751f209f2164a0a6450f604b66826728ca410073b516e1076aad0ea311f86fdebe2ee3302575f10e608060405234801561001057600080fd5b50604051610dba380380610dba83398101604081905261002f916100f0565b60006100396100ec565b600080546001600160a01b0319166001600160a01b0383169081178255604051929350917f8be0079c531659141344cd1fd0a4f28419497f9722a3daafe3b4186f6b6457e0908290a3506001600160a01b03841661009657600080fd5b818311156100a357600080fd5b600180546001600160a01b0319166001600160a01b0386161790556005805460ff19168215151790556004829055426100dc848261014a565b6002556003555061016e92505050565b3390565b60008060008060808587031215610105578384fd5b84516001600160a01b038116811461011b578485fd5b8094505060208501519250604085015191506060850151801515811461013f578182fd5b939692955090935050565b6000821982111561016957634e487b7160e01b81526011600452602481fd5b500190565b610c3d8061017d6000396000f3fe608060405234801561001057600080fd5b50600436106100ba5760003560e01c80630fb5a6b4146100bf57806313d033c0146100dd5780631726cbc8146100e557806317cf5391146100f8578063191655871461010b57806338af3eed14610120578063715018a61461013557806374a8f1031461013d578063872a7810146101505780638da5cb5b146101655780639852595c1461016d578063be9a655514610180578063f2fde38b14610188578063fa01dc061461019b575b600080fd5b6100c76101ae565b6040516100d49190610b16565b60405180910390f35b6100c76101b4565b6100c76100f33660046108ce565b6101ba565b6100c761010636600461090a565b6101ed565b61011e6101193660046108ce565b61031b565b005b6101286103cb565b6040516100d49190610969565b61011e6103da565b61011e61014b3660046108ce565b61045a565b6101586105d5565b6040516100d49190610996565b6101286105de565b6100c761017b3660046108ce565b6105ed565b6100c76105ff565b61011e6101963660046108ce565b610605565b6101586101a93660046108ce565b6106b3565b60045481565b60025481565b6001600160a01b0381166000908152600660205260408120546101dd83426101ed565b6101e79190610b76565b92915050565b600080836001600160a01b03166370a08231306040518263ffffffff1660e01b815260040161021c9190610969565b60206040518083038186803b15801561023457600080fd5b505afa158015610248573d6000803e3d6000fd5b505050506040513d601f19601f8201168201806040525081019061026c9190610935565b6001600160a01b038516600090815260066020526040812054919250906102939083610b1f565b90506002548410156102aa576000925050506101e7565b6004546003546102ba9190610b1f565b841015806102e057506001600160a01b03851660009081526007602052604090205460ff165b156102ee5791506101e79050565b6004546003546102fe9086610b76565b6103089083610b57565b6103129190610b37565b95945050505050565b6000610326826101ba565b90506000811161033557600080fd5b6001600160a01b038216600090815260066020526040902054610359908290610b1f565b6001600160a01b0383166000908152600660205260409081902091909155517ffb81f9b30d73d830c3544b34d827c08142579ee75710b490bab0b3995468c565906103a5908390610b16565b60405180910390a16001546103c7906001600160a01b038481169116836106c8565b5050565b6001546001600160a01b031681565b6103e2610723565b6001600160a01b03166103f36105de565b6001600160a01b0316146104225760405162461bcd60e51b815260040161041990610a60565b60405180910390fd5b600080546040516001600160a01b0390911690600080516020610be8833981519152908390a3600080546001600160a01b0319169055565b610462610723565b6001600160a01b03166104736105de565b6001600160a01b0316146104995760405162461bcd60e51b815260040161041990610a60565b60055460ff166104a857600080fd5b6001600160a01b03811660009081526007602052604090205460ff16156104ce57600080fd5b6040516370a0823160e01b81526000906001600160a01b038316906370a08231906104fd903090600401610969565b60206040518083038186803b15801561051557600080fd5b505afa158015610529573d6000803e3d6000fd5b505050506040513d601f19601f8201168201806040525081019061054d9190610935565b9050600061055a836101ba565b905060006105688284610b76565b6001600160a01b038516600090815260076020526040808220805460ff19166001179055519192507f44825a4b2df8acb19ce4e1afba9aa850c8b65cdb7942e2078f27d0b0960efee691a16105cf6105be6105de565b6001600160a01b03861690836106c8565b50505050565b60055460ff1681565b6000546001600160a01b031690565b60066020526000908152604090205481565b60035481565b61060d610723565b6001600160a01b031661061e6105de565b6001600160a01b0316146106445760405162461bcd60e51b815260040161041990610a60565b6001600160a01b03811661066a5760405162461bcd60e51b8152600401610419906109d4565b600080546040516001600160a01b0380851693921691600080516020610be883398151915291a3600080546001600160a01b0319166001600160a01b0392909216919091179055565b60076020526000908152604090205460ff1681565b61071e8363a9059cbb60e01b84846040516024016106e792919061097d565b60408051601f198184030181529190526020810180516001600160e01b03166001600160e01b031990931692909217909152610727565b505050565b3390565b600061077c826040518060400160405280602081526020017f5361666545524332303a206c6f772d6c6576656c2063616c6c206661696c6564815250856001600160a01b03166107b69092919063ffffffff16565b80519091501561071e578080602001905181019061079a91906108ea565b61071e5760405162461bcd60e51b815260040161041990610acc565b60606107c584846000856107cf565b90505b9392505050565b6060824710156107f15760405162461bcd60e51b815260040161041990610a1a565b6107fa8561088f565b6108165760405162461bcd60e51b815260040161041990610a95565b600080866001600160a01b03168587604051610832919061094d565b60006040518083038185875af1925050503d806000811461086f576040519150601f19603f3d011682016040523d82523d6000602084013e610874565b606091505b5091509150610884828286610895565b979650505050505050565b3b151590565b606083156108a45750816107c8565b8251156108b45782518084602001fd5b8160405162461bcd60e51b815260040161041991906109a1565b6000602082840312156108df578081fd5b81356107c881610bcf565b6000602082840312156108fb578081fd5b815180151581146107c8578182fd5b6000806040838503121561091c578081fd5b823561092781610bcf565b946020939093013593505050565b600060208284031215610946578081fd5b5051919050565b6000825161095f818460208701610b8d565b9190910192915050565b6001600160a01b0391909116815260200190565b6001600160a01b03929092168252602082015260400190565b901515815260200190565b60006020825282518060208401526109c0816040850160208701610b8d565b601f01601f19169190910160400192915050565b60208082526026908201527f4f776e61626c653a206e6577206f776e657220697320746865207a65726f206160408201526564647265737360d01b606082015260800190565b60208082526026908201527f416464726573733a20696e73756666696369656e742062616c616e636520666f6040820152651c8818d85b1b60d21b606082015260800190565b6020808252818101527f4f776e61626c653a2063616c6c6572206973206e6f7420746865206f776e6572604082015260600190565b6020808252601d908201527f416464726573733a2063616c6c20746f206e6f6e2d636f6e7472616374000000604082015260600190565b6020808252602a908201527f5361666545524332303a204552433230206f7065726174696f6e20646964206e6040820152691bdd081cdd58d8d9595960b21b606082015260800190565b90815260200190565b60008219821115610b3257610b32610bb9565b500190565b600082610b5257634e487b7160e01b81526012600452602481fd5b500490565b6000816000190483118215151615610b7157610b71610bb9565b500290565b600082821015610b8857610b88610bb9565b500390565b60005b83811015610ba8578181015183820152602001610b90565b838111156105cf5750506000910152565b634e487b7160e01b600052601160045260246000fd5b6001600160a01b0381168114610be457600080fd5b5056fe8be0079c531659141344cd1fd0a4f28419497f9722a3daafe3b4186f6b6457e0a26469706673582212205f12d4a437521b2edb33168145675d8da540581a2579d0b17870ab6ba3f0068c64736f6c6343000800003360806040526103e860025534801561001657600080fd5b5060405162000e9e38038062000e9e83398101604081905261003791610163565b600180546001600160a01b0319166001600160a01b03851617905561007c7f66b94ad480ec0823f8a0b3535544afb3710cebd5bc6d9711751f209f2164a0a683610087565b6002555061019e9050565b6100918282610095565b5050565b61009f828261011a565b610091576000828152602081815260408083206001600160a01b03851684529091529020805460ff191660011790556100d6610143565b6001600160a01b0316816001600160a01b0316837f2f8788117e7eff1d82e926ec794901d17c78024a50270940304540a733656f0d60405160405180910390a45050565b6000918252602082815260408084206001600160a01b0393909316845291905290205460ff1690565b3390565b80516001600160a01b038116811461015e57600080fd5b919050565b600080600060608486031215610177578283fd5b61018084610147565b925061018e60208501610147565b9150604084015190509250925092565b610cf080620001ae6000396000f3fe60806040526004361061008c5760003560e01c806301ffc9a714610091578063248a9ca3146100c75780632f2ff15d146100f457806336568abe146101165780634faab3c714610136578063664e97041461015657806391d148541461016b578063a217fddf1461018b578063a6f2ae3a146101a0578063ad343299146101a8578063d547741f146101bd575b600080fd5b34801561009d57600080fd5b506100b16100ac366004610975565b6101dd565b6040516100be9190610a72565b60405180910390f35b3480156100d357600080fd5b506100e76100e2366004610932565b61020a565b6040516100be9190610a7d565b34801561010057600080fd5b5061011461010f36600461094a565b61021f565b005b34801561012257600080fd5b5061011461013136600461094a565b610248565b34801561014257600080fd5b506101146101513660046108f8565b610297565b34801561016257600080fd5b506100e7610320565b34801561017757600080fd5b506100b161018636600461094a565b610326565b34801561019757600080fd5b506100e761034f565b610114610354565b3480156101b457600080fd5b506100e761054d565b3480156101c957600080fd5b506101146101d836600461094a565b61055f565b60006001600160e01b03198216637965db0b60e01b148061020257506102028261057e565b90505b919050565b60009081526020819052604090206001015490565b6102288261020a565b61023981610234610597565b61059b565b61024383836105ff565b505050565b610250610597565b6001600160a01b0316816001600160a01b0316146102895760405162461bcd60e51b815260040161028090610b80565b60405180910390fd5b6102938282610684565b5050565b6102af600080516020610c9b83398151915233610326565b6102cb5760405162461bcd60e51b815260040161028090610aee565b600047116102eb5760405162461bcd60e51b815260040161028090610b30565b6040516001600160a01b038216904780156108fc02916000818181858888f19350505050158015610293573d6000803e3d6000fd5b60025481565b6000918252602082815260408084206001600160a01b0393909316845291905290205460ff1690565b600081565b6001546040516370a0823160e01b81526000916001600160a01b0316906370a0823190610385903090600401610a24565b60206040518083038186803b15801561039d57600080fd5b505afa1580156103b1573d6000803e3d6000fd5b505050506040513d601f19601f820116820180604052508101906103d5919061099d565b116103f25760405162461bcd60e51b815260040161028090610b56565b60006103fd34610707565b6001546040516370a0823160e01b81529192506000916001600160a01b03909116906370a0823190610433903090600401610a24565b60206040518083038186803b15801561044b57600080fd5b505afa15801561045f573d6000803e3d6000fd5b505050506040513d601f19601f82011682018060405250810190610483919061099d565b90507f28cab0d660ed8aedd61a8c9db00b97f6a2d67e07d87795994f440b18bc5f1aa333836104b28185610c26565b6040516104c193929190610a51565b60405180910390a160015460405163a9059cbb60e01b81526001600160a01b039091169063a9059cbb906104fb9033908690600401610a38565b602060405180830381600087803b15801561051557600080fd5b505af1158015610529573d6000803e3d6000fd5b505050506040513d601f19601f820116820180604052508101906102439190610912565b600080516020610c9b83398151915281565b6105688261020a565b61057481610234610597565b6102438383610684565b6001600160e01b031981166301ffc9a760e01b14919050565b3390565b6105a58282610326565b610293576105bd816001600160a01b03166014610729565b6105c8836020610729565b6040516020016105d99291906109b5565b60408051601f198184030181529082905262461bcd60e51b825261028091600401610a86565b6106098282610326565b610293576000828152602081815260408083206001600160a01b03851684529091529020805460ff19166001179055610640610597565b6001600160a01b0316816001600160a01b0316837f2f8788117e7eff1d82e926ec794901d17c78024a50270940304540a733656f0d60405160405180910390a45050565b61068e8282610326565b15610293576000828152602081815260408083206001600160a01b03851684529091529020805460ff191690556106c3610597565b6001600160a01b0316816001600160a01b0316837ff6391f5c32d9c69d2a47ea670b442974b53935d1edc7fd64eb21e047a839171b60405160405180910390a45050565b60025460009061071f670de0b6b3a764000084610be7565b6102029190610c07565b60606000610738836002610c07565b610743906002610bcf565b6001600160401b0381111561076857634e487b7160e01b600052604160045260246000fd5b6040519080825280601f01601f191660200182016040528015610792576020820181803683370190505b509050600360fc1b816000815181106107bb57634e487b7160e01b600052603260045260246000fd5b60200101906001600160f81b031916908160001a905350600f60fb1b816001815181106107f857634e487b7160e01b600052603260045260246000fd5b60200101906001600160f81b031916908160001a905350600061081c846002610c07565b610827906001610bcf565b90505b60018111156108bb576f181899199a1a9b1b9c1cb0b131b232b360811b85600f166010811061086957634e487b7160e01b600052603260045260246000fd5b1a60f81b82828151811061088d57634e487b7160e01b600052603260045260246000fd5b60200101906001600160f81b031916908160001a90535060049490941c936108b481610c6d565b905061082a565b5083156108da5760405162461bcd60e51b815260040161028090610ab9565b9392505050565b80356001600160a01b038116811461020557600080fd5b600060208284031215610909578081fd5b6108da826108e1565b600060208284031215610923578081fd5b815180151581146108da578182fd5b600060208284031215610943578081fd5b5035919050565b6000806040838503121561095c578081fd5b8235915061096c602084016108e1565b90509250929050565b600060208284031215610986578081fd5b81356001600160e01b0319811681146108da578182fd5b6000602082840312156109ae578081fd5b5051919050565b600076020b1b1b2b9b9a1b7b73a3937b61d1030b1b1b7bab73a1604d1b825283516109e7816017850160208801610c3d565b7001034b99036b4b9b9b4b733903937b6329607d1b6017918401918201528351610a18816028840160208801610c3d565b01602801949350505050565b6001600160a01b0391909116815260200190565b6001600160a01b03929092168252602082015260400190565b6001600160a01b039390931683526020830191909152604082015260600190565b901515815260200190565b90815260200190565b6000602082528251806020840152610aa5816040850160208701610c3d565b601f01601f19169190910160400192915050565b6020808252818101527f537472696e67733a20686578206c656e67746820696e73756666696369656e74604082015260600190565b60208082526022908201527f6f6e6c792066756e64206d616e616765722063616e2077697468647261772024604082015261090960f21b606082015260800190565b6020808252600c908201526b0924eda40c4e4ded6ca40da760a31b604082015260600190565b60208082526010908201526f313937903830b93a3c93b99037bb32b960811b604082015260600190565b6020808252602f908201527f416363657373436f6e74726f6c3a2063616e206f6e6c792072656e6f756e636560408201526e103937b632b9903337b91039b2b63360891b606082015260800190565b60008219821115610be257610be2610c84565b500190565b600082610c0257634e487b7160e01b81526012600452602481fd5b500490565b6000816000190483118215151615610c2157610c21610c84565b500290565b600082821015610c3857610c38610c84565b500390565b60005b83811015610c58578181015183820152602001610c40565b83811115610c67576000848401525b50505050565b600081610c7c57610c7c610c84565b506000190190565b634e487b7160e01b600052601160045260246000fdfe66b94ad480ec0823f8a0b3535544afb3710cebd5bc6d9711751f209f2164a0a6a26469706673582212206c3324514bd58d1e8fb5353d5c92a91c5a12c389757cbda26b537246dd82208864736f6c634300080000336080604052678ac7230489e800006001553480156200001d57600080fd5b506040516200167338038062001673833981016040819052620000409162000156565b600280546001600160a01b0319166001600160a01b038416179055620000877f66b94ad480ec0823f8a0b3535544afb3710cebd5bc6d9711751f209f2164a0a6826200008f565b5050620001ad565b6200009b82826200009f565b5050565b620000ab828262000129565b6200009b576000828152602081815260408083206001600160a01b03851684529091529020805460ff19166001179055620000e562000152565b6001600160a01b0316816001600160a01b0316837f2f8788117e7eff1d82e926ec794901d17c78024a50270940304540a733656f0d60405160405180910390a45050565b6000918252602082815260408084206001600160a01b0393909316845291905290205460ff1690565b3390565b6000806040838503121562000169578182fd5b8251620001768162000194565b6020840151909250620001898162000194565b809150509250929050565b6001600160a01b0381168114620001aa57600080fd5b50565b6114b680620001bd6000396000f3fe608060405234801561001057600080fd5b50600436106100db5760003560e01c806301ffc9a7146100e0578063209ec9eb14610109578063248a9ca31461011e5780632f2ff15d1461013e57806336568abe1461015157806353b5eb431461016457806355ec57f4146101895780635f0c4c36146101a957806389fb718a146101bc57806391d14854146101cf578063943f5b75146101e2578063a1a35bab146101f7578063a217fddf1461020a578063ad34329914610212578063d059622d1461021a578063d547741f14610222578063d9c58b8c14610235575b600080fd5b6100f36100ee36600461101e565b610248565b60405161010091906111fe565b60405180910390f35b61011c610117366004610fdb565b610275565b005b61013161012c366004610fdb565b6102b7565b6040516101009190611209565b61011c61014c366004610ff3565b6102cc565b61011c61015f366004610ff3565b6102f5565b610177610172366004610f92565b61033b565b60405161010096959493929190611334565b61019c610197366004610ebd565b610425565b6040516101009190611152565b6101776101b7366004610f92565b610570565b61011c6101ca366004610ed7565b61058c565b6100f36101dd366004610ff3565b6106e1565b6101ea61070a565b604051610100919061111a565b61017761020536600461105e565b610719565b610131610735565b61013161073a565b61013161074c565b61011c610230366004610ff3565b610752565b61019c610243366004610ebd565b610771565b60006001600160e01b03198216637965db0b60e01b148061026d575061026d826108b1565b90505b919050565b61028d600080516020611461833981519152336106e1565b6102b25760405162461bcd60e51b81526004016102a99061125a565b60405180910390fd5b600155565b60009081526020819052604090206001015490565b6102d5826102b7565b6102e6816102e16108ca565b6108ce565b6102f08383610932565b505050565b6102fd6108ca565b6001600160a01b0316816001600160a01b03161461032d5760405162461bcd60e51b81526004016102a9906112e5565b61033782826109b7565b5050565b6005602052816000526040600020818154811061035757600080fd5b600091825260209091206006909102018054600182015460028301546003840180549396506001600160a01b03928316955091169291610396906113f9565b80601f01602080910402602001604051908101604052809291908181526020018280546103c2906113f9565b801561040f5780601f106103e45761010080835404028352916020019161040f565b820191906000526020600020905b8154815290600101906020018083116103f257829003601f168201915b5050505050908060040154908060050154905086565b6001600160a01b0381166000908152600460209081526040808320805482518185028101850190935280835260609492939192909184015b828210156105655760008481526020908190206040805160c081018252600686029092018054835260018101546001600160a01b03908116948401949094526002810154909316908201526003820180549192916060840191906104c0906113f9565b80601f01602080910402602001604051908101604052809291908181526020018280546104ec906113f9565b80156105395780601f1061050e57610100808354040283529160200191610539565b820191906000526020600020905b81548152906001019060200180831161051c57829003601f168201915b50505050508152602001600482015481526020016005820154815250508152602001906001019061045d565b505050509050919050565b6004602052816000526040600020818154811061035757600080fd5b6002546040516370a0823160e01b81526001600160a01b03909116906370a08231906105bc90339060040161111a565b60206040518083038186803b1580156105d457600080fd5b505afa1580156105e8573d6000803e3d6000fd5b505050506040513d601f19601f8201168201806040525081019061060c9190611046565b81111561062b5760405162461bcd60e51b81526004016102a990611291565b60015481101561064d5760405162461bcd60e51b81526004016102a9906112be565b6002546040516323b872dd60e01b81526001600160a01b03909116906323b872dd906106819033908490869060040161112e565b602060405180830381600087803b15801561069b57600080fd5b505af11580156106af573d6000803e3d6000fd5b505050506040513d601f19601f820116820180604052508101906106d39190610fbb565b506102f03384848442610a3a565b6000918252602082815260408084206001600160a01b0393909316845291905290205460ff1690565b6002546001600160a01b031681565b6006602052816000526040600020818154811061035757600080fd5b600081565b60008051602061146183398151915281565b60035481565b61075b826102b7565b610767816102e16108ca565b6102f083836109b7565b6001600160a01b0381166000908152600560209081526040808320805482518185028101850190935280835260609492939192909184015b828210156105655760008481526020908190206040805160c081018252600686029092018054835260018101546001600160a01b039081169484019490945260028101549093169082015260038201805491929160608401919061080c906113f9565b80601f0160208091040260200160405190810160405280929190818152602001828054610838906113f9565b80156108855780601f1061085a57610100808354040283529160200191610885565b820191906000526020600020905b81548152906001019060200180831161086857829003601f168201915b5050505050815260200160048201548152602001600582015481525050815260200190600101906107a9565b6001600160e01b031981166301ffc9a760e01b14919050565b3390565b6108d882826106e1565b610337576108f0816001600160a01b03166014610c48565b6108fb836020610c48565b60405160200161090c9291906110ab565b60408051601f198184030181529082905262461bcd60e51b82526102a991600401611212565b61093c82826106e1565b610337576000828152602081815260408083206001600160a01b03851684529091529020805460ff191660011790556109736108ca565b6001600160a01b0316816001600160a01b0316837f2f8788117e7eff1d82e926ec794901d17c78024a50270940304540a733656f0d60405160405180910390a45050565b6109c182826106e1565b15610337576000828152602081815260408083206001600160a01b03851684529091529020805460ff191690556109f66108ca565b6001600160a01b0316816001600160a01b0316837ff6391f5c32d9c69d2a47ea670b442974b53935d1edc7fd64eb21e047a839171b60405160405180910390a45050565b6000610a466003610e00565b9050610a526003610e04565b6040805160c0810182528281526001600160a01b0380891660208084018281528a8416858701908152606086018b8152608087018b905260a087018a9052600094855260048452968420805460018181018355918652948490208751600690960201948555915191840180549286166001600160a01b0319938416179055516002840180549190951691161790925592518051929384939092610afc926003850192910190610e0d565b506080820151600482015560a0909101516005918201556001600160a01b038088166000908152602092835260408082208054600181810183559184529285902086516006909402019283558585015190830180549185166001600160a01b03199283161790559085015160028301805491909416911617909155606083015180518493610b91926003850192910190610e0d565b506080820151600482015560a0909101516005909101556000828152600660208181526040808420805460018181018355918652948390208651959094029093019384558482015192840180546001600160a01b039485166001600160a01b031991821617909155908501516002850180549190941691161790915560608301518051849392610c28926003850192910190610e0d565b506080820151816004015560a08201518160050155505050505050505050565b60606000610c57836002611393565b610c6290600261137b565b6001600160401b03811115610c8757634e487b7160e01b600052604160045260246000fd5b6040519080825280601f01601f191660200182016040528015610cb1576020820181803683370190505b509050600360fc1b81600081518110610cda57634e487b7160e01b600052603260045260246000fd5b60200101906001600160f81b031916908160001a905350600f60fb1b81600181518110610d1757634e487b7160e01b600052603260045260246000fd5b60200101906001600160f81b031916908160001a9053506000610d3b846002611393565b610d4690600161137b565b90505b6001811115610dda576f181899199a1a9b1b9c1cb0b131b232b360811b85600f1660108110610d8857634e487b7160e01b600052603260045260246000fd5b1a60f81b828281518110610dac57634e487b7160e01b600052603260045260246000fd5b60200101906001600160f81b031916908160001a90535060049490941c93610dd3816113e2565b9050610d49565b508315610df95760405162461bcd60e51b81526004016102a990611225565b9392505050565b5490565b80546001019055565b828054610e19906113f9565b90600052602060002090601f016020900481019282610e3b5760008555610e81565b82601f10610e5457805160ff1916838001178555610e81565b82800160010185558215610e81579182015b82811115610e81578251825591602001919060010190610e66565b50610e8d929150610e91565b5090565b5b80821115610e8d5760008155600101610e92565b80356001600160a01b038116811461027057600080fd5b600060208284031215610ece578081fd5b610df982610ea6565b600080600060608486031215610eeb578182fd5b610ef484610ea6565b92506020848101356001600160401b0380821115610f10578485fd5b818701915087601f830112610f23578485fd5b813581811115610f3557610f3561144a565b604051601f8201601f1916810185018381118282101715610f5857610f5861144a565b60405281815283820185018a1015610f6e578687fd5b81858501868301379081019093019490945250929592945050506040919091013590565b60008060408385031215610fa4578182fd5b610fad83610ea6565b946020939093013593505050565b600060208284031215610fcc578081fd5b81518015158114610df9578182fd5b600060208284031215610fec578081fd5b5035919050565b60008060408385031215611005578182fd5b8235915061101560208401610ea6565b90509250929050565b60006020828403121561102f578081fd5b81356001600160e01b031981168114610df9578182fd5b600060208284031215611057578081fd5b5051919050565b60008060408385031215611070578182fd5b50508035926020909101359150565b600081518084526110978160208601602086016113b2565b601f01601f19169290920160200192915050565b600076020b1b1b2b9b9a1b7b73a3937b61d1030b1b1b7bab73a1604d1b825283516110dd8160178501602088016113b2565b7001034b99036b4b9b9b4b733903937b6329607d1b601791840191820152835161110e8160288401602088016113b2565b01602801949350505050565b6001600160a01b0391909116815260200190565b6001600160a01b039384168152919092166020820152604081019190915260600190565b60208082528251828201819052600091906040908185019080840286018301878501865b838110156111f057888303603f19018552815180518452878101516001600160a01b039081168986015287820151168785015260608082015160c082870181905291906111c58388018261107f565b6080858101519089015260a09485015194909701939093525050509386019390860190600101611176565b509098975050505050505050565b901515815260200190565b90815260200190565b600060208252610df9602083018461107f565b6020808252818101527f537472696e67733a20686578206c656e67746820696e73756666696369656e74604082015260600190565b6020808252601e908201527f556e617574686f72697a65642c206e6f742066756e64206d616e616765720000604082015260600190565b602080825260139082015272636f7374203e20796f75722062616c616e636560681b604082015260600190565b6020808252600d908201526c151bdbc81b1a5d1d1b19480909609a1b604082015260600190565b6020808252602f908201527f416363657373436f6e74726f6c3a2063616e206f6e6c792072656e6f756e636560408201526e103937b632b9903337b91039b2b63360891b606082015260800190565b8681526001600160a01b0386811660208301528516604082015260c0606082018190526000906113669083018661107f565b60808301949094525060a00152949350505050565b6000821982111561138e5761138e611434565b500190565b60008160001904831182151516156113ad576113ad611434565b500290565b60005b838110156113cd5781810151838201526020016113b5565b838111156113dc576000848401525b50505050565b6000816113f1576113f1611434565b506000190190565b60028104600182168061140d57607f821691505b6020821081141561142e57634e487b7160e01b600052602260045260246000fd5b50919050565b634e487b7160e01b600052601160045260246000fd5b634e487b7160e01b600052604160045260246000fdfe66b94ad480ec0823f8a0b3535544afb3710cebd5bc6d9711751f209f2164a0a6a264697066735822122040349d296b15048b7e62153b8b8d2f5302cb1e49d9b834ab22e611a97e3ed0af64736f6c63430008000033",
  "linkReferences": {},
  "deployedLinkReferences": {}
}