{
  "_format": "hh-sol-artifact-1",
  "contractName": "Deployment",
  "sourceName": "contracts/Deploy.sol",
  "abi": [
    {
      "inputs": [
        {
          "internalType": "string",
          "name": "name",
          "type": "string"
        },
        {
          "internalType": "string",
          "name": "symbol",
          "type": "string"
        },
        {
          "internalType": "uint256",
          "name": "totalSupply",
          "type": "uint256"
        },
        {
          "internalType": "uint256",
          "name": "funderGets",
          "type": "uint256"
        },
        {
          "components": [
            {
              "internalType": "bool",
              "name": "enabled",
              "type": "bool"
            },
            {
              "internalType": "uint256",
              "name": "minDelay",
              "type": "uint256"
            },
            {
              "internalType": "address[]",
              "name": "proposers",
              "type": "address[]"
            },
            {
              "internalType": "address[]",
              "name": "executors",
              "type": "address[]"
            }
          ],
          "internalType": "struct Deployment.TimeLockSettings",
          "name": "timelockSet",
          "type": "tuple"
        },
        {
          "components": [
            {
              "internalType": "address",
              "name": "owner",
              "type": "address"
            },
            {
              "internalType": "address",
              "name": "fundManager",
              "type": "address"
            },
            {
              "internalType": "address[]",
              "name": "minters",
              "type": "address[]"
            },
            {
              "internalType": "address[]",
              "name": "moderators",
              "type": "address[]"
            }
          ],
          "internalType": "struct Deployment.RoleSettings",
          "name": "roles",
          "type": "tuple"
        },
        {
          "components": [
            {
              "internalType": "bool",
              "name": "enabled",
              "type": "bool"
            },
            {
              "internalType": "uint256",
              "name": "amount",
              "type": "uint256"
            },
            {
              "internalType": "uint256",
              "name": "rate",
              "type": "uint256"
            }
          ],
          "internalType": "struct Deployment.ICOSettings",
          "name": "icoSet",
          "type": "tuple"
        },
        {
          "components": [
            {
              "internalType": "bool",
              "name": "enabled",
              "type": "bool"
            },
            {
              "internalType": "uint256",
              "name": "cliff",
              "type": "uint256"
            },
            {
              "internalType": "uint256",
              "name": "duration",
              "type": "uint256"
            }
          ],
          "internalType": "struct Deployment.VestingSettings",
          "name": "vesting",
          "type": "tuple"
        }
      ],
      "stateMutability": "nonpayable",
      "type": "constructor"
    },
    {
      "inputs": [],
      "name": "controllerContract",
      "outputs": [
        {
          "internalType": "contract TimelockController",
          "name": "",
          "type": "address"
        }
      ],
      "stateMutability": "view",
      "type": "function"
    },
    {
      "inputs": [],
      "name": "icoContract",
      "outputs": [
        {
          "internalType": "contract ICO",
          "name": "",
          "type": "address"
        }
      ],
      "stateMutability": "view",
      "type": "function"
    },
    {
      "inputs": [],
      "name": "insultingContract",
      "outputs": [
        {
          "internalType": "contract Insulting",
          "name": "",
          "type": "address"
        }
      ],
      "stateMutability": "view",
      "type": "function"
    },
    {
      "inputs": [],
      "name": "tokenContract",
      "outputs": [
        {
          "internalType": "contract Token",
          "name": "",
          "type": "address"
        }
      ],
      "stateMutability": "view",
      "type": "function"
    },
    {
      "inputs": [],
      "name": "vestingContract",
      "outputs": [
        {
          "internalType": "contract TokenVesting",
          "name": "",
          "type": "address"
        }
      ],
      "stateMutability": "view",
      "type": "function"
    }
  ],
  "bytecode": "0x60806040523480156200001157600080fd5b50604051620081ae380380620081ae83398101604081905262000034916200079e565b85851115620000605760405162461bcd60e51b8152600401620000579062000a0e565b60405180910390fd5b6200006c858762000b65565b82602001511115620000925760405162461bcd60e51b8152600401620000579062000a7d565b8351156200018457836020015184604001518560600151604051620000b7906200049d565b620000c59392919062000b00565b604051809103906000f080158015620000e2573d6000803e3d6000fd5b50600280546001600160a01b0319166001600160a01b0392831617908190556020850151604080870151606088015191518d958d958d959116939092916001906200012d90620004ab565b6200014098979695949392919062000980565b604051809103906000f0801580156200015d573d6000803e3d6000fd5b50600080546001600160a01b0319166001600160a01b0392909216919091179055620001fd565b87878785600001518660200151876040015188606001516001604051620001ab90620004ab565b620001be98979695949392919062000980565b604051809103906000f080158015620001db573d6000803e3d6000fd5b50600080546001600160a01b0319166001600160a01b03929092169190911790555b805115620002d65782602001518160200151826040015160006040516200022490620004b9565b6200023394939291906200093e565b604051809103906000f08015801562000250573d6000803e3d6000fd5b50600380546001600160a01b0319166001600160a01b03928316179081905560005460405163f3fef3a360e01b81529083169263f3fef3a3926200029c92911690899060040162000925565b600060405180830381600087803b158015620002b757600080fd5b505af1158015620002cc573d6000803e3d6000fd5b5050505062000342565b600054602084015160405163f3fef3a360e01b81526001600160a01b039092169163f3fef3a3916200030d91899060040162000925565b600060405180830381600087803b1580156200032857600080fd5b505af11580156200033d573d6000803e3d6000fd5b505050505b8151156200042157600054602084015160408085015190516001600160a01b03909316926200037190620004c7565b6200037f9392919062000901565b604051809103906000f0801580156200039c573d6000803e3d6000fd5b50600180546001600160a01b0319166001600160a01b039283161790819055600054602085015160405163f3fef3a360e01b81529184169363f3fef3a393620003ec939116919060040162000925565b600060405180830381600087803b1580156200040757600080fd5b505af11580156200041c573d6000803e3d6000fd5b505050505b60005460208401516040516001600160a01b03909216916200044390620004d5565b6200045092919062000966565b604051809103906000f0801580156200046d573d6000803e3d6000fd5b50600480546001600160a01b0319166001600160a01b03929092169190911790555062000bd29650505050505050565b611ed08062000cfe83390190565b61204d8062002bce83390190565b610e7d8062004c1b83390190565b61102b8062005a9883390190565b6116eb8062006ac383390190565b80516001600160a01b0381168114620004fb57600080fd5b919050565b600082601f83011262000511578081fd5b815160206001600160401b038211156200052f576200052f62000bbc565b8082026200053f82820162000b39565b8381528281019086840183880185018910156200055a578687fd5b8693505b8584101562000587576200057281620004e3565b8352600193909301929184019184016200055e565b50979650505050505050565b80518015158114620004fb57600080fd5b600082601f830112620005b5578081fd5b81516001600160401b03811115620005d157620005d162000bbc565b620005e6601f8201601f191660200162000b39565b818152846020838601011115620005fb578283fd5b6200060e82602083016020870162000b89565b949350505050565b60006060828403121562000628578081fd5b604051606081016001600160401b03811182821017156200064d576200064d62000bbc565b6040529050806200065e8362000593565b815260208301516020820152604083015160408201525092915050565b6000608082840312156200068d578081fd5b604051608081016001600160401b038082118383101715620006b357620006b362000bbc565b81604052829350620006c585620004e3565b8352620006d560208601620004e3565b60208401526040850151915080821115620006ef57600080fd5b620006fd8683870162000500565b604084015260608501519150808211156200071757600080fd5b50620007268582860162000500565b6060830152505092915050565b60006080828403121562000745578081fd5b604051608081016001600160401b0380821183831017156200076b576200076b62000bbc565b816040528293506200077d8562000593565b8352602085015160208401526040850151915080821115620006ef57600080fd5b600080600080600080600080610180898b031215620007bb578384fd5b88516001600160401b0380821115620007d2578586fd5b620007e08c838d01620005a4565b995060208b0151915080821115620007f6578586fd5b620008048c838d01620005a4565b985060408b0151975060608b0151965060808b015191508082111562000828578586fd5b620008368c838d0162000733565b955060a08b01519150808211156200084c578485fd5b506200085b8b828c016200067b565b9350506200086d8a60c08b0162000616565b91506200087f8a6101208b0162000616565b90509295985092959890939650565b6000815180845260208085019450808401835b83811015620008c85781516001600160a01b031687529582019590820190600101620008a1565b509495945050505050565b60008151808452620008ed81602086016020860162000b89565b601f01601f19169290920160200192915050565b6001600160a01b039384168152919092166020820152604081019190915260600190565b6001600160a01b03929092168252602082015260400190565b6001600160a01b03949094168452602084019290925260408301521515606082015260800190565b6001600160a01b0392831681529116602082015260400190565b6000610100808352620009968184018c620008d3565b90508281036020840152620009ac818b620008d3565b604084018a90526001600160a01b0389811660608601528816608085015283810360a08501529050620009e081876200088e565b905082810360c0840152620009f681866200088e565b91505082151560e08301529998505050505050505050565b60208082526049908201527f54686520616d6f756e74207468652066756e64206d616e61676572206765747360408201527f206d757374206265206c6f776572207468616e2074686520746f74616c2073756060820152680e0e0d8f25840c8ead60bb1b608082015260a00190565b6020808252605f908201527f596f752063616e277420616c6c6f63617465206d6f7265207468616e2074686560408201527f20746f74616c20737570706c7920286578636c7564696e672066756e64206d6160608201527f6e61676572277320706f7274696f6e2920746f207468652069636f5365742100608082015260a00190565b60008482526060602083015262000b1b60608301856200088e565b828103604084015262000b2f81856200088e565b9695505050505050565b6040518181016001600160401b038111828210171562000b5d5762000b5d62000bbc565b604052919050565b60008282101562000b8457634e487b7160e01b81526011600452602481fd5b500390565b60005b8381101562000ba657818101518382015260200162000b8c565b8381111562000bb6576000848401525b50505050565b634e487b7160e01b600052604160045260246000fd5b61011c8062000be26000396000f3fe6080604052348015600f57600080fd5b506004361060505760003560e01c8063362c27ae14605557806355a373d614606f5780635e6f6045146075578063b5a01c4e14607b578063c66e4095146081575b600080fd5b605b6087565b6040516066919060d2565b60405180910390f35b605b6096565b605b60a5565b605b60b4565b605b60c3565b6004546001600160a01b031681565b6000546001600160a01b031681565b6003546001600160a01b031681565b6002546001600160a01b031681565b6001546001600160a01b031681565b6001600160a01b039190911681526020019056fea26469706673582212202ed4e9cfcdaf3801e9c26ea6d5b941e7e7b764e1fca201123c44450724fde0e164736f6c6343000800003360806040523480156200001157600080fd5b5060405162001ed038038062001ed08339810160408190526200003491620003da565b6200004f60008051602062001e7083398151915280620001ed565b6200007960008051602062001e9083398151915260008051602062001e70833981519152620001ed565b620000a360008051602062001eb083398151915260008051602062001e70833981519152620001ed565b620000c760008051602062001e70833981519152620000c162000239565b6200023d565b620000e260008051602062001e70833981519152306200023d565b60005b82518110156200014b576200013860008051602062001e908339815191528483815181106200012457634e487b7160e01b600052603260045260246000fd5b60200260200101516200023d60201b60201c565b620001438162000459565b9050620000e5565b5060005b8151811015620001a1576200018e60008051602062001eb08339815191528383815181106200012457634e487b7160e01b600052603260045260246000fd5b620001998162000459565b90506200014f565b5060028390556040517f11c24f4ead16507c69ac467fbd5e4eed5fb5c699626d2cc6d66421df253886d590620001dc9060009086906200044b565b60405180910390a150505062000497565b80620001f9836200024d565b60405184907fbd79b86ffe0ab8e8776151514217cd7cacd52c909f66475c3af44e129f0b00ff90600090a460009182526020829052604090912060010155565b3390565b62000249828262000265565b5050565b6000818152602081905260409020600101545b919050565b620002718282620002ef565b62000249576000828152602081815260408083206001600160a01b03851684529091529020805460ff19166001179055620002ab62000239565b6001600160a01b0316816001600160a01b0316837f2f8788117e7eff1d82e926ec794901d17c78024a50270940304540a733656f0d60405160405180910390a45050565b6000918252602082815260408084206001600160a01b0393909316845291905290205460ff1690565b80516001600160a01b03811681146200026057600080fd5b600082601f83011262000341578081fd5b815160206001600160401b038083111562000360576200036062000481565b8183026040518382820101818110848211171562000382576200038262000481565b60405284815283810192508684018288018501891015620003a1578687fd5b8692505b85831015620003ce57620003b98162000318565b845292840192600192909201918401620003a5565b50979650505050505050565b600080600060608486031215620003ef578283fd5b835160208501519093506001600160401b03808211156200040e578384fd5b6200041c8783880162000330565b9350604086015191508082111562000432578283fd5b50620004418682870162000330565b9150509250925092565b918252602082015260400190565b60006000198214156200047a57634e487b7160e01b81526011600452602481fd5b5060010190565b634e487b7160e01b600052604160045260246000fd5b6119c980620004a76000396000f3fe60806040526004361061011f5760003560e01c806301d5062a1461012b57806301ffc9a71461014d57806307bd0265146101835780630d3cf6fc146101a5578063134008d3146101ba57806313bc9f20146101cd578063248a9ca3146101ed5780632ab0f5291461020d5780632f2ff15d1461022d57806331d507501461024d57806336568abe1461026d578063584b153e1461028d57806364d62353146102ad5780638065657f146102cd5780638f2a0bb0146102ed5780638f61f4f51461030d57806391d1485414610322578063a217fddf14610342578063b1c5f42714610357578063c4d252f514610377578063d45c443514610397578063d547741f146103b7578063e38335e5146103d7578063f27a0c92146103ea57610126565b3661012657005b600080fd5b34801561013757600080fd5b5061014b61014636600461109b565b6103ff565b005b34801561015957600080fd5b5061016d6101683660046112a1565b610478565b60405161017a9190611510565b60405180910390f35b34801561018f57600080fd5b506101986104a5565b60405161017a919061151b565b3480156101b157600080fd5b506101986104b7565b61014b6101c8366004611032565b6104db565b3480156101d957600080fd5b5061016d6101e836600461125e565b610542565b3480156101f957600080fd5b5061019861020836600461125e565b610567565b34801561021957600080fd5b5061016d61022836600461125e565b61057c565b34801561023957600080fd5b5061014b610248366004611276565b610590565b34801561025957600080fd5b5061016d61026836600461125e565b6105b4565b34801561027957600080fd5b5061014b610288366004611276565b6105c7565b34801561029957600080fd5b5061016d6102a836600461125e565b610616565b3480156102b957600080fd5b5061014b6102c836600461125e565b610623565b3480156102d957600080fd5b506101986102e8366004611032565b610682565b3480156102f957600080fd5b5061014b6103083660046111b1565b6106c1565b34801561031957600080fd5b5061019861081c565b34801561032e57600080fd5b5061016d61033d366004611276565b61082e565b34801561034e57600080fd5b50610198610857565b34801561036357600080fd5b5061019861037236600461110d565b61085c565b34801561038357600080fd5b5061014b61039236600461125e565b6108a1565b3480156103a357600080fd5b506101986103b236600461125e565b61091d565b3480156103c357600080fd5b5061014b6103d2366004611276565b61092f565b61014b6103e536600461110d565b61094e565b3480156103f657600080fd5b50610198610a9c565b60008051602061193483398151915261041f8161041a610aa2565b610aa6565b600061042f898989898989610682565b905061043b8184610b0a565b6000816000805160206119748339815191528b8b8b8b8b8a6040516104659695949392919061142e565b60405180910390a3505050505050505050565b60006001600160e01b03198216637965db0b60e01b148061049d575061049d82610b77565b90505b919050565b60008051602061195483398151915281565b7f5f58e3a2316349923ce3780f8d587db2d72378aed66a8261c916544fa6846ca581565b6000805160206119548339815191526104f581600061082e565b610505576105058161041a610aa2565b6000610515888888888888610682565b905061052084610b90565b61052f8160008a8a8a8a610bc0565b61053881610c88565b5050505050505050565b60008061054e8361091d565b90506001811180156105605750428111155b9392505050565b60009081526020819052604090206001015490565b600060016105898361091d565b1492915050565b61059982610567565b6105a58161041a610aa2565b6105af8383610cc1565b505050565b6000806105c08361091d565b1192915050565b6105cf610aa2565b6001600160a01b0316816001600160a01b0316146106085760405162461bcd60e51b81526004016105ff90611790565b60405180910390fd5b6106128282610d46565b5050565b600060016105c08361091d565b3330146106425760405162461bcd60e51b81526004016105ff90611745565b7f11c24f4ead16507c69ac467fbd5e4eed5fb5c699626d2cc6d66421df253886d560025482604051610675929190611832565b60405180910390a1600255565b600086868686868660405160200161069f9695949392919061142e565b6040516020818303038152906040528051906020012090509695505050505050565b6000805160206119348339815191526106dc8161041a610aa2565b8887146106fb5760405162461bcd60e51b81526004016105ff906115d2565b88851461071a5760405162461bcd60e51b81526004016105ff906115d2565b600061072c8b8b8b8b8b8b8b8b61085c565b90506107388184610b0a565b60005b8a81101561080e5780826000805160206119748339815191528e8e8581811061077457634e487b7160e01b600052603260045260246000fd5b90506020020160208101906107899190611018565b8d8d868181106107a957634e487b7160e01b600052603260045260246000fd5b905060200201358c8c878181106107d057634e487b7160e01b600052603260045260246000fd5b90506020028101906107e29190611840565b8c8b6040516107f69695949392919061142e565b60405180910390a361080781611902565b905061073b565b505050505050505050505050565b60008051602061193483398151915281565b6000918252602082815260408084206001600160a01b0393909316845291905290205460ff1690565b600081565b6000888888888888888860405160200161087d98979695949392919061146b565b60405160208183030381529060405280519060200120905098975050505050505050565b6000805160206119348339815191526108bc8161041a610aa2565b6108c582610616565b6108e15760405162461bcd60e51b81526004016105ff906116f4565b6000828152600160205260408082208290555183917fbaa1eb22f2a492ba1a5fea61b8df4d27c6c8b5f3971e63bb58fa14ff72eedb7091a25050565b60009081526001602052604090205490565b61093882610567565b6109448161041a610aa2565b6105af8383610d46565b60008051602061195483398151915261096881600061082e565b610978576109788161041a610aa2565b8786146109975760405162461bcd60e51b81526004016105ff906115d2565b8784146109b65760405162461bcd60e51b81526004016105ff906115d2565b60006109c88a8a8a8a8a8a8a8a61085c565b90506109d384610b90565b60005b89811015610a8657610a7682828d8d85818110610a0357634e487b7160e01b600052603260045260246000fd5b9050602002016020810190610a189190611018565b8c8c86818110610a3857634e487b7160e01b600052603260045260246000fd5b905060200201358b8b87818110610a5f57634e487b7160e01b600052603260045260246000fd5b9050602002810190610a719190611840565b610bc0565b610a7f81611902565b90506109d6565b50610a9081610c88565b50505050505050505050565b60025490565b3390565b610ab0828261082e565b61061257610ac8816001600160a01b03166014610dc9565b610ad3836020610dc9565b604051602001610ae492919061138d565b60408051601f198184030181529082905262461bcd60e51b82526105ff91600401611524565b610b13826105b4565b15610b305760405162461bcd60e51b81526004016105ff9061165b565b610b38610a9c565b811015610b575760405162461bcd60e51b81526004016105ff90611615565b610b618142611884565b6000928352600160205260409092209190915550565b6001600160e01b031981166301ffc9a760e01b14919050565b801580610ba15750610ba18161057c565b610bbd5760405162461bcd60e51b81526004016105ff9061158c565b50565b6000846001600160a01b0316848484604051610bdd92919061137d565b60006040518083038185875af1925050503d8060008114610c1a576040519150601f19603f3d011682016040523d82523d6000602084013e610c1f565b606091505b5050905080610c405760405162461bcd60e51b81526004016105ff906117df565b85877fc2617efa69bab66782fa219543714338489c4e9e178271560a91b82c3f612b5887878787604051610c7794939291906113fc565b60405180910390a350505050505050565b610c9181610542565b610cad5760405162461bcd60e51b81526004016105ff906116aa565b600090815260016020819052604090912055565b610ccb828261082e565b610612576000828152602081815260408083206001600160a01b03851684529091529020805460ff19166001179055610d02610aa2565b6001600160a01b0316816001600160a01b0316837f2f8788117e7eff1d82e926ec794901d17c78024a50270940304540a733656f0d60405160405180910390a45050565b610d50828261082e565b15610612576000828152602081815260408083206001600160a01b03851684529091529020805460ff19169055610d85610aa2565b6001600160a01b0316816001600160a01b0316837ff6391f5c32d9c69d2a47ea670b442974b53935d1edc7fd64eb21e047a839171b60405160405180910390a45050565b60606000610dd883600261189c565b610de3906002611884565b6001600160401b03811115610e0857634e487b7160e01b600052604160045260246000fd5b6040519080825280601f01601f191660200182016040528015610e32576020820181803683370190505b509050600360fc1b81600081518110610e5b57634e487b7160e01b600052603260045260246000fd5b60200101906001600160f81b031916908160001a905350600f60fb1b81600181518110610e9857634e487b7160e01b600052603260045260246000fd5b60200101906001600160f81b031916908160001a9053506000610ebc84600261189c565b610ec7906001611884565b90505b6001811115610f5b576f181899199a1a9b1b9c1cb0b131b232b360811b85600f1660108110610f0957634e487b7160e01b600052603260045260246000fd5b1a60f81b828281518110610f2d57634e487b7160e01b600052603260045260246000fd5b60200101906001600160f81b031916908160001a90535060049490941c93610f54816118eb565b9050610eca565b5083156105605760405162461bcd60e51b81526004016105ff90611557565b80356001600160a01b03811681146104a057600080fd5b60008083601f840112610fa2578182fd5b5081356001600160401b03811115610fb8578182fd5b6020830191508360208083028501011115610fd257600080fd5b9250929050565b60008083601f840112610fea578182fd5b5081356001600160401b03811115611000578182fd5b602083019150836020828501011115610fd257600080fd5b600060208284031215611029578081fd5b61056082610f7a565b60008060008060008060a0878903121561104a578182fd5b61105387610f7a565b95506020870135945060408701356001600160401b03811115611074578283fd5b61108089828a01610fd9565b979a9699509760608101359660809091013595509350505050565b600080600080600080600060c0888a0312156110b5578081fd5b6110be88610f7a565b96506020880135955060408801356001600160401b038111156110df578182fd5b6110eb8a828b01610fd9565b989b979a50986060810135976080820135975060a09091013595509350505050565b60008060008060008060008060a0898b031215611128578081fd5b88356001600160401b038082111561113e578283fd5b61114a8c838d01610f91565b909a50985060208b0135915080821115611162578283fd5b61116e8c838d01610f91565b909850965060408b0135915080821115611186578283fd5b506111938b828c01610f91565b999c989b509699959896976060870135966080013595509350505050565b600080600080600080600080600060c08a8c0312156111ce578081fd5b89356001600160401b03808211156111e4578283fd5b6111f08d838e01610f91565b909b50995060208c0135915080821115611208578283fd5b6112148d838e01610f91565b909950975060408c013591508082111561122c578283fd5b506112398c828d01610f91565b9a9d999c50979a969997986060880135976080810135975060a0013595509350505050565b60006020828403121561126f578081fd5b5035919050565b60008060408385031215611288578182fd5b8235915061129860208401610f7a565b90509250929050565b6000602082840312156112b2578081fd5b81356001600160e01b031981168114610560578182fd5b818352602080840193600091908185020181018584845b878110156113465782840389528135601e19883603018112611300578687fd5b870180356001600160401b03811115611317578788fd5b803603891315611325578788fd5b6113328682898501611353565b9a87019a95505050908401906001016112e0565b5091979650505050505050565b60008284528282602086013780602084860101526020601f19601f85011685010190509392505050565b6000828483379101908152919050565b600076020b1b1b2b9b9a1b7b73a3937b61d1030b1b1b7bab73a1604d1b825283516113bf8160178501602088016118bb565b7001034b99036b4b9b9b4b733903937b6329607d1b60179184019182015283516113f08160288401602088016118bb565b01602801949350505050565b600060018060a01b038616825284602083015260606040830152611424606083018486611353565b9695505050505050565b600060018060a01b038816825286602083015260a0604083015261145660a083018688611353565b60608301949094525060800152949350505050565b60a0808252810188905260008960c08301825b8b8110156114ac576001600160a01b0361149784610f7a565b1682526020928301929091019060010161147e565b5083810360208501528881526001600160fb1b038911156114cb578283fd5b602089029150818a602083013701602081810183815284830390910160408501526114f781888a6112c9565b6060850196909652505050608001529695505050505050565b901515815260200190565b90815260200190565b60006020825282518060208401526115438160408501602087016118bb565b601f01601f19169190910160400192915050565b6020808252818101527f537472696e67733a20686578206c656e67746820696e73756666696369656e74604082015260600190565b60208082526026908201527f54696d656c6f636b436f6e74726f6c6c65723a206d697373696e6720646570656040820152656e64656e637960d01b606082015260800190565b60208082526023908201527f54696d656c6f636b436f6e74726f6c6c65723a206c656e677468206d69736d616040820152620e8c6d60eb1b606082015260800190565b60208082526026908201527f54696d656c6f636b436f6e74726f6c6c65723a20696e73756666696369656e746040820152652064656c617960d01b606082015260800190565b6020808252602f908201527f54696d656c6f636b436f6e74726f6c6c65723a206f7065726174696f6e20616c60408201526e1c9958591e481cd8da19591d5b1959608a1b606082015260800190565b6020808252602a908201527f54696d656c6f636b436f6e74726f6c6c65723a206f7065726174696f6e206973604082015269206e6f7420726561647960b01b606082015260800190565b60208082526031908201527f54696d656c6f636b436f6e74726f6c6c65723a206f7065726174696f6e2063616040820152701b9b9bdd0818994818d85b98d95b1b1959607a1b606082015260800190565b6020808252602b908201527f54696d656c6f636b436f6e74726f6c6c65723a2063616c6c6572206d7573742060408201526a62652074696d656c6f636b60a81b606082015260800190565b6020808252602f908201527f416363657373436f6e74726f6c3a2063616e206f6e6c792072656e6f756e636560408201526e103937b632b9903337b91039b2b63360891b606082015260800190565b60208082526033908201527f54696d656c6f636b436f6e74726f6c6c65723a20756e6465726c79696e6720746040820152721c985b9cd858dd1a5bdb881c995d995c9d1959606a1b606082015260800190565b918252602082015260400190565b6000808335601e19843603018112611856578283fd5b8301803591506001600160401b0382111561186f578283fd5b602001915036819003821315610fd257600080fd5b600082198211156118975761189761191d565b500190565b60008160001904831182151516156118b6576118b661191d565b500290565b60005b838110156118d65781810151838201526020016118be565b838111156118e5576000848401525b50505050565b6000816118fa576118fa61191d565b506000190190565b60006000198214156119165761191661191d565b5060010190565b634e487b7160e01b600052601160045260246000fdfeb09aa5aeb3702cfd50b6b62bc4532604938f21248a27a1d5ca736082b6819cc1d8aa0f3194971a2a116679f7c2090f6939c8d4e01a2a8d7e41d55e5351469e634cf4410cc57040e44862ef0f45f3dd5a5e02db8eb8add648d4b0e236f1d07dcaa264697066735822122070ba16a097f5f6efedd0bddccfe27487c972987c8a84c5c6b6e40619a8e9905264736f6c634300080000335f58e3a2316349923ce3780f8d587db2d72378aed66a8261c916544fa6846ca5b09aa5aeb3702cfd50b6b62bc4532604938f21248a27a1d5ca736082b6819cc1d8aa0f3194971a2a116679f7c2090f6939c8d4e01a2a8d7e41d55e5351469e6360806040526007805460ff191690553480156200001b57600080fd5b506040516200204d3803806200204d8339810160408190526200003e9162000622565b875188908890620000579060039060208501906200042a565b5080516200006d9060049060208401906200042a565b505050620000823087620001bc60201b60201c565b8015620000b1576200009660003362000290565b620000b16000805160206200200d8339815191523362000290565b620000be60008662000290565b620000d96000805160206200200d8339815191528562000290565b60005b83518110156200015557620001407ff0887ba65ee2024ea881d91b74c2450ef19e1557f03bed3ea9f16b037cbe2dc98583815181106200012c57634e487b7160e01b600052603260045260246000fd5b60200260200101516200029060201b60201c565b806200014c816200084a565b915050620000dc565b5060005b8251811015620001ad57620001986000805160206200202d8339815191528483815181106200012c57634e487b7160e01b600052603260045260246000fd5b80620001a4816200084a565b91505062000159565b50505050505050505062000894565b6001600160a01b038216620001ee5760405162461bcd60e51b8152600401620001e59062000786565b60405180910390fd5b620001fc60008383620002a0565b8060026000828254620002109190620007f2565b90915550506001600160a01b038216600090815260208190526040812080548392906200023f908490620007f2565b90915550506040516001600160a01b038316906000907fddf252ad1be2c89b69c2b068fc378daa952ba7f163c4a11628f55a4df523b3ef9062000284908590620007bd565b60405180910390a35050565b6200029c82826200036f565b5050565b60075460ff161580620002cf5750620002c96000805160206200202d83398151915284620003fb565b15156001145b620002ee5760405162461bcd60e51b8152600401620001e59062000718565b6001600160a01b03831660009081526006602052604090205460ff1615806200033357506200032d6000805160206200202d83398151915284620003fb565b15156001145b620003525760405162461bcd60e51b8152600401620001e5906200074f565b6200036a8383836200036a60201b620004fb1760201c565b505050565b6200037b8282620003fb565b6200029c5760008281526005602090815260408083206001600160a01b03851684529091529020805460ff19166001179055620003b762000426565b6001600160a01b0316816001600160a01b0316837f2f8788117e7eff1d82e926ec794901d17c78024a50270940304540a733656f0d60405160405180910390a45050565b60009182526005602090815260408084206001600160a01b0393909316845291905290205460ff1690565b3390565b82805462000438906200080d565b90600052602060002090601f0160209004810192826200045c5760008555620004a7565b82601f106200047757805160ff1916838001178555620004a7565b82800160010185558215620004a7579182015b82811115620004a75782518255916020019190600101906200048a565b50620004b5929150620004b9565b5090565b5b80821115620004b55760008155600101620004ba565b80516001600160a01b0381168114620004e857600080fd5b919050565b600082601f830112620004fe578081fd5b815160206001600160401b038211156200051c576200051c6200087e565b8082026200052c828201620007c6565b83815282810190868401838801850189101562000547578687fd5b8693505b8584101562000574576200055f81620004d0565b8352600193909301929184019184016200054b565b50979650505050505050565b80518015158114620004e857600080fd5b600082601f830112620005a2578081fd5b81516001600160401b03811115620005be57620005be6200087e565b6020620005d4601f8301601f19168201620007c6565b8281528582848701011115620005e8578384fd5b835b8381101562000607578581018301518282018401528201620005ea565b838111156200061857848385840101525b5095945050505050565b600080600080600080600080610100898b0312156200063f578384fd5b88516001600160401b038082111562000656578586fd5b620006648c838d0162000591565b995060208b01519150808211156200067a578586fd5b620006888c838d0162000591565b985060408b015197506200069f60608c01620004d0565b9650620006af60808c01620004d0565b955060a08b0151915080821115620006c5578485fd5b620006d38c838d01620004ed565b945060c08b0151915080821115620006e9578384fd5b50620006f88b828c01620004ed565b9250506200070960e08a0162000580565b90509295985092959890939650565b60208082526015908201527f496e73756c74436f696e206973207061757365642e0000000000000000000000604082015260600190565b60208082526017908201527f596f7572206163636f756e74206973207061757365642e000000000000000000604082015260600190565b6020808252601f908201527f45524332303a206d696e7420746f20746865207a65726f206164647265737300604082015260600190565b90815260200190565b6040518181016001600160401b0381118282101715620007ea57620007ea6200087e565b604052919050565b6000821982111562000808576200080862000868565b500190565b6002810460018216806200082257607f821691505b602082108114156200084457634e487b7160e01b600052602260045260246000fd5b50919050565b600060001982141562000861576200086162000868565b5060010190565b634e487b7160e01b600052601160045260246000fd5b634e487b7160e01b600052604160045260246000fd5b61176980620008a46000396000f3fe608060405234801561001057600080fd5b50600436106101495760003560e01c806301ffc9a71461014e57806306fdde0314610177578063095ea7b31461018c57806318160ddd1461019f57806323b872dd146101b4578063248a9ca3146101c75780632e48152c146101da5780632f2ff15d146101ed578063313ce5671461020257806334b4e6251461021757806336568abe1461021f57806339509351146102325780633fd629c21461024557806340c10f191461025857806370a082311461026b57806391d148541461027e57806395d89b41146102915780639be6390e14610299578063a217fddf146102a1578063a457c2d7146102a9578063a9059cbb146102bc578063ad343299146102cf578063c22dc722146102d7578063d547741f146102ea578063dd62ed3e146102fd578063f3fef3a314610310578063fe6d812414610323575b600080fd5b61016161015c3660046110c4565b61032b565b60405161016e9190611174565b60405180910390f35b61017f610358565b60405161016e9190611188565b61016161019a366004611029565b6103ea565b6101a7610407565b60405161016e919061117f565b6101616101c2366004610fb8565b61040d565b6101a76101d536600461108a565b6104ad565b6101616101e8366004610f6c565b6104c2565b6102006101fb3660046110a2565b6104d7565b005b61020a610500565b60405161016e91906115ae565b6101a7610505565b61020061022d3660046110a2565b610517565b610161610240366004611029565b61055d565b610200610253366004611052565b6105ac565b610200610266366004611029565b6105f3565b6101a7610279366004610f6c565b610657565b61016161028c3660046110a2565b610672565b61017f61069d565b6101616106ac565b6101a76106b5565b6101616102b7366004611029565b6106ba565b6101616102ca366004611029565b610735565b6101a7610749565b6102006102e5366004610ff3565b61075b565b6102006102f83660046110a2565b6107ba565b6101a761030b366004610f86565b6107d9565b61020061031e366004611029565b610804565b6101a76108d7565b60006001600160e01b03198216637965db0b60e01b14806103505750610350826108e9565b90505b919050565b60606003805461036790611651565b80601f016020809104026020016040519081016040528092919081815260200182805461039390611651565b80156103e05780601f106103b5576101008083540402835291602001916103e0565b820191906000526020600020905b8154815290600101906020018083116103c357829003601f168201915b5050505050905090565b60006103fe6103f7610902565b8484610906565b50600192915050565b60025490565b600061041a8484846109ba565b6001600160a01b03841660009081526001602052604081208161043b610902565b6001600160a01b03166001600160a01b03168152602001908152602001600020549050828110156104875760405162461bcd60e51b815260040161047e9061137c565b60405180910390fd5b6104a285610493610902565b61049d86856115f3565b610906565b506001949350505050565b60009081526005602052604090206001015490565b60066020526000908152604090205460ff1681565b6104e0826104ad565b6104f1816104ec610902565b610ad0565b6104fb8383610b34565b505050565b601290565b60008051602061171483398151915281565b61051f610902565b6001600160a01b0316816001600160a01b03161461054f5760405162461bcd60e51b815260040161047e90611528565b6105598282610bbb565b5050565b60006103fe61056a610902565b848460016000610578610902565b6001600160a01b03908116825260208083019390935260409182016000908120918b168152925290205461049d91906115bc565b6105c460008051602061171483398151915233610672565b6105e05760405162461bcd60e51b815260040161047e90611262565b6007805460ff1916911515919091179055565b6001600160a01b0382166106195760405162461bcd60e51b815260040161047e9061128d565b6106316000805160206116d483398151915233610672565b61064d5760405162461bcd60e51b815260040161047e906113fb565b6105598282610c40565b6001600160a01b031660009081526020819052604090205490565b60009182526005602090815260408084206001600160a01b0393909316845291905290205460ff1690565b60606004805461036790611651565b60075460ff1681565b600081565b600080600160006106c9610902565b6001600160a01b03908116825260208083019390935260409182016000908120918816815292529020549050828110156107155760405162461bcd60e51b815260040161047e906114e3565b61072b610720610902565b8561049d86856115f3565b5060019392505050565b60006103fe610742610902565b84846109ba565b6000805160206116b483398151915281565b61077360008051602061171483398151915233610672565b61078f5760405162461bcd60e51b815260040161047e90611262565b6001600160a01b03919091166000908152600660205260409020805460ff1916911515919091179055565b6107c3826104ad565b6107cf816104ec610902565b6104fb8383610bbb565b6001600160a01b03918216600090815260016020908152604080832093909416825291909152205490565b61081c6000805160206116b483398151915233610672565b6108385760405162461bcd60e51b815260040161047e90611345565b61084130610657565b8111156108605760405162461bcd60e51b815260040161047e906113c4565b60405163a9059cbb60e01b8152309063a9059cbb90610885908590859060040161115b565b602060405180830381600087803b15801561089f57600080fd5b505af11580156108b3573d6000803e3d6000fd5b505050506040513d601f19601f820116820180604052508101906104fb919061106e565b6000805160206116d483398151915281565b6001600160e01b031981166301ffc9a760e01b14919050565b3390565b6001600160a01b03831661092c5760405162461bcd60e51b815260040161047e9061146e565b6001600160a01b0382166109525760405162461bcd60e51b815260040161047e906112bd565b6001600160a01b0380841660008181526001602090815260408083209487168084529490915290819020849055517f8c5be1e5ebec7d5bd14f71427d1e84f3dd0314c0f7b2291e5b200ac8c7c3b925906109ad90859061117f565b60405180910390a3505050565b6001600160a01b0383166109e05760405162461bcd60e51b815260040161047e90611429565b6001600160a01b038216610a065760405162461bcd60e51b815260040161047e906111f0565b610a11838383610cee565b6001600160a01b03831660009081526020819052604090205481811015610a4a5760405162461bcd60e51b815260040161047e906112ff565b610a5482826115f3565b6001600160a01b038086166000908152602081905260408082209390935590851681529081208054849290610a8a9084906115bc565b92505081905550826001600160a01b0316846001600160a01b03166000805160206116f483398151915284604051610ac2919061117f565b60405180910390a350505050565b610ada8282610672565b61055957610af2816001600160a01b03166014610d9d565b610afd836020610d9d565b604051602001610b0e9291906110ec565b60408051601f198184030181529082905262461bcd60e51b825261047e91600401611188565b610b3e8282610672565b6105595760008281526005602090815260408083206001600160a01b03851684529091529020805460ff19166001179055610b77610902565b6001600160a01b0316816001600160a01b0316837f2f8788117e7eff1d82e926ec794901d17c78024a50270940304540a733656f0d60405160405180910390a45050565b610bc58282610672565b156105595760008281526005602090815260408083206001600160a01b03851684529091529020805460ff19169055610bfc610902565b6001600160a01b0316816001600160a01b0316837ff6391f5c32d9c69d2a47ea670b442974b53935d1edc7fd64eb21e047a839171b60405160405180910390a45050565b6001600160a01b038216610c665760405162461bcd60e51b815260040161047e90611577565b610c7260008383610cee565b8060026000828254610c8491906115bc565b90915550506001600160a01b03821660009081526020819052604081208054839290610cb19084906115bc565b90915550506040516001600160a01b038316906000906000805160206116f483398151915290610ce290859061117f565b60405180910390a35050565b60075460ff161580610d195750610d1360008051602061171483398151915284610672565b15156001145b610d355760405162461bcd60e51b815260040161047e90611233565b6001600160a01b03831660009081526006602052604090205460ff161580610d765750610d7060008051602061171483398151915284610672565b15156001145b610d925760405162461bcd60e51b815260040161047e906114b2565b6104fb8383836104fb565b60606000610dac8360026115d4565b610db79060026115bc565b6001600160401b03811115610ddc57634e487b7160e01b600052604160045260246000fd5b6040519080825280601f01601f191660200182016040528015610e06576020820181803683370190505b509050600360fc1b81600081518110610e2f57634e487b7160e01b600052603260045260246000fd5b60200101906001600160f81b031916908160001a905350600f60fb1b81600181518110610e6c57634e487b7160e01b600052603260045260246000fd5b60200101906001600160f81b031916908160001a9053506000610e908460026115d4565b610e9b9060016115bc565b90505b6001811115610f2f576f181899199a1a9b1b9c1cb0b131b232b360811b85600f1660108110610edd57634e487b7160e01b600052603260045260246000fd5b1a60f81b828281518110610f0157634e487b7160e01b600052603260045260246000fd5b60200101906001600160f81b031916908160001a90535060049490941c93610f288161163a565b9050610e9e565b508315610f4e5760405162461bcd60e51b815260040161047e906111bb565b9392505050565b80356001600160a01b038116811461035357600080fd5b600060208284031215610f7d578081fd5b610f4e82610f55565b60008060408385031215610f98578081fd5b610fa183610f55565b9150610faf60208401610f55565b90509250929050565b600080600060608486031215610fcc578081fd5b610fd584610f55565b9250610fe360208501610f55565b9150604084013590509250925092565b60008060408385031215611005578182fd5b61100e83610f55565b9150602083013561101e816116a2565b809150509250929050565b6000806040838503121561103b578182fd5b61104483610f55565b946020939093013593505050565b600060208284031215611063578081fd5b8135610f4e816116a2565b60006020828403121561107f578081fd5b8151610f4e816116a2565b60006020828403121561109b578081fd5b5035919050565b600080604083850312156110b4578182fd5b82359150610faf60208401610f55565b6000602082840312156110d5578081fd5b81356001600160e01b031981168114610f4e578182fd5b600076020b1b1b2b9b9a1b7b73a3937b61d1030b1b1b7bab73a1604d1b8252835161111e81601785016020880161160a565b7001034b99036b4b9b9b4b733903937b6329607d1b601791840191820152835161114f81602884016020880161160a565b01602801949350505050565b6001600160a01b03929092168252602082015260400190565b901515815260200190565b90815260200190565b60006020825282518060208401526111a781604085016020870161160a565b601f01601f19169190910160400192915050565b6020808252818101527f537472696e67733a20686578206c656e67746820696e73756666696369656e74604082015260600190565b60208082526023908201527f45524332303a207472616e7366657220746f20746865207a65726f206164647260408201526265737360e81b606082015260800190565b60208082526015908201527424b739bab63a21b7b4b71034b9903830bab9b2b21760591b604082015260600190565b602080825260119082015270596f75206172656e27742061206d6f642160781b604082015260600190565b602080825260169082015275596f752063616e2774206d696e7420746f203078302160501b604082015260600190565b60208082526022908201527f45524332303a20617070726f766520746f20746865207a65726f206164647265604082015261737360f01b606082015260800190565b60208082526026908201527f45524332303a207472616e7366657220616d6f756e7420657863656564732062604082015265616c616e636560d01b606082015260800190565b6020808252601e908201527f556e617574686f72697a65642c206e6f742066756e64206d616e616765720000604082015260600190565b60208082526028908201527f45524332303a207472616e7366657220616d6f756e74206578636565647320616040820152676c6c6f77616e636560c01b606082015260800190565b6020808252601d908201527f416d6f756e7420686967686572207468616e206d792062616c616e6365000000604082015260600190565b602080825260149082015273596f75206172656e27742061206d696e7465722160601b604082015260600190565b60208082526025908201527f45524332303a207472616e736665722066726f6d20746865207a65726f206164604082015264647265737360d81b606082015260800190565b60208082526024908201527f45524332303a20617070726f76652066726f6d20746865207a65726f206164646040820152637265737360e01b606082015260800190565b6020808252601790820152762cb7bab91030b1b1b7bab73a1034b9903830bab9b2b21760491b604082015260600190565b60208082526025908201527f45524332303a2064656372656173656420616c6c6f77616e63652062656c6f77604082015264207a65726f60d81b606082015260800190565b6020808252602f908201527f416363657373436f6e74726f6c3a2063616e206f6e6c792072656e6f756e636560408201526e103937b632b9903337b91039b2b63360891b606082015260800190565b6020808252601f908201527f45524332303a206d696e7420746f20746865207a65726f206164647265737300604082015260600190565b60ff91909116815260200190565b600082198211156115cf576115cf61168c565b500190565b60008160001904831182151516156115ee576115ee61168c565b500290565b6000828210156116055761160561168c565b500390565b60005b8381101561162557818101518382015260200161160d565b83811115611634576000848401525b50505050565b6000816116495761164961168c565b506000190190565b60028104600182168061166557607f821691505b6020821081141561168657634e487b7160e01b600052602260045260246000fd5b50919050565b634e487b7160e01b600052601160045260246000fd5b80151581146116b057600080fd5b5056fe66b94ad480ec0823f8a0b3535544afb3710cebd5bc6d9711751f209f2164a0a6f0887ba65ee2024ea881d91b74c2450ef19e1557f03bed3ea9f16b037cbe2dc9ddf252ad1be2c89b69c2b068fc378daa952ba7f163c4a11628f55a4df523b3ef450f604b66826728ca410073b516e1076aad0ea311f86fdebe2ee3302575f10ea2646970667358221220a96bfe19603f2147b1409af9a1eeed513acc64daa0725bd88891ac5c57748a3464736f6c6343000800003366b94ad480ec0823f8a0b3535544afb3710cebd5bc6d9711751f209f2164a0a6450f604b66826728ca410073b516e1076aad0ea311f86fdebe2ee3302575f10e608060405234801561001057600080fd5b50604051610e7d380380610e7d83398101604081905261002f916100f0565b60006100396100ec565b600080546001600160a01b0319166001600160a01b0383169081178255604051929350917f8be0079c531659141344cd1fd0a4f28419497f9722a3daafe3b4186f6b6457e0908290a3506001600160a01b03841661009657600080fd5b818311156100a357600080fd5b600180546001600160a01b0319166001600160a01b0386161790556005805460ff19168215151790556004829055426100dc848261014a565b6002556003555061016e92505050565b3390565b60008060008060808587031215610105578384fd5b84516001600160a01b038116811461011b578485fd5b8094505060208501519250604085015191506060850151801515811461013f578182fd5b939692955090935050565b6000821982111561016957634e487b7160e01b81526011600452602481fd5b500190565b610d008061017d6000396000f3fe608060405234801561001057600080fd5b50600436106100ba5760003560e01c80630fb5a6b4146100bf57806313d033c0146100dd5780631726cbc8146100e557806317cf5391146100f8578063191655871461010b57806338af3eed14610120578063715018a61461013557806374a8f1031461013d578063872a7810146101505780638da5cb5b146101655780639852595c1461016d578063be9a655514610180578063f2fde38b14610188578063fa01dc061461019b575b600080fd5b6100c76101ae565b6040516100d49190610bd9565b60405180910390f35b6100c76101b4565b6100c76100f3366004610907565b6101ba565b6100c7610106366004610943565b6101ed565b61011e610119366004610907565b61031b565b005b6101286103e7565b6040516100d491906109a2565b61011e6103f6565b61011e61014b366004610907565b61046d565b61015861060e565b6040516100d491906109cf565b610128610617565b6100c761017b366004610907565b610626565b6100c7610638565b61011e610196366004610907565b61063e565b6101586101a9366004610907565b6106ec565b60045481565b60025481565b6001600160a01b0381166000908152600660205260408120546101dd83426101ed565b6101e79190610c39565b92915050565b600080836001600160a01b03166370a08231306040518263ffffffff1660e01b815260040161021c91906109a2565b60206040518083038186803b15801561023457600080fd5b505afa158015610248573d6000803e3d6000fd5b505050506040513d601f19601f8201168201806040525081019061026c919061096e565b6001600160a01b038516600090815260066020526040812054919250906102939083610be2565b90506002548410156102aa576000925050506101e7565b6004546003546102ba9190610be2565b841015806102e057506001600160a01b03851660009081526007602052604090205460ff165b156102ee5791506101e79050565b6004546003546102fe9086610c39565b6103089083610c1a565b6103129190610bfa565b95945050505050565b6000610326826101ba565b9050600081116103515760405162461bcd60e51b815260040161034890610a99565b60405180910390fd5b6001600160a01b038216600090815260066020526040902054610375908290610be2565b6001600160a01b0383166000908152600660205260409081902091909155517ffb81f9b30d73d830c3544b34d827c08142579ee75710b490bab0b3995468c565906103c1908390610bd9565b60405180910390a16001546103e3906001600160a01b03848116911683610701565b5050565b6001546001600160a01b031681565b6103fe61075c565b6001600160a01b031661040f610617565b6001600160a01b0316146104355760405162461bcd60e51b815260040161034890610aca565b600080546040516001600160a01b0390911690600080516020610cab833981519152908390a3600080546001600160a01b0319169055565b61047561075c565b6001600160a01b0316610486610617565b6001600160a01b0316146104ac5760405162461bcd60e51b815260040161034890610aca565b60055460ff166104ce5760405162461bcd60e51b815260040161034890610b36565b6001600160a01b03811660009081526007602052604090205460ff16156105075760405162461bcd60e51b815260040161034890610bb0565b6040516370a0823160e01b81526000906001600160a01b038316906370a08231906105369030906004016109a2565b60206040518083038186803b15801561054e57600080fd5b505afa158015610562573d6000803e3d6000fd5b505050506040513d601f19601f82011682018060405250810190610586919061096e565b90506000610593836101ba565b905060006105a18284610c39565b6001600160a01b038516600090815260076020526040808220805460ff19166001179055519192507f44825a4b2df8acb19ce4e1afba9aa850c8b65cdb7942e2078f27d0b0960efee691a16106086105f7610617565b6001600160a01b0386169083610701565b50505050565b60055460ff1681565b6000546001600160a01b031690565b60066020526000908152604090205481565b60035481565b61064661075c565b6001600160a01b0316610657610617565b6001600160a01b03161461067d5760405162461bcd60e51b815260040161034890610aca565b6001600160a01b0381166106a35760405162461bcd60e51b815260040161034890610a0d565b600080546040516001600160a01b0380851693921691600080516020610cab83398151915291a3600080546001600160a01b0319166001600160a01b0392909216919091179055565b60076020526000908152604090205460ff1681565b6107578363a9059cbb60e01b84846040516024016107209291906109b6565b60408051601f198184030181529190526020810180516001600160e01b03166001600160e01b031990931692909217909152610760565b505050565b3390565b60006107b5826040518060400160405280602081526020017f5361666545524332303a206c6f772d6c6576656c2063616c6c206661696c6564815250856001600160a01b03166107ef9092919063ffffffff16565b80519091501561075757808060200190518101906107d39190610923565b6107575760405162461bcd60e51b815260040161034890610b66565b60606107fe8484600085610808565b90505b9392505050565b60608247101561082a5760405162461bcd60e51b815260040161034890610a53565b610833856108c8565b61084f5760405162461bcd60e51b815260040161034890610aff565b600080866001600160a01b0316858760405161086b9190610986565b60006040518083038185875af1925050503d80600081146108a8576040519150601f19603f3d011682016040523d82523d6000602084013e6108ad565b606091505b50915091506108bd8282866108ce565b979650505050505050565b3b151590565b606083156108dd575081610801565b8251156108ed5782518084602001fd5b8160405162461bcd60e51b815260040161034891906109da565b600060208284031215610918578081fd5b813561080181610c92565b600060208284031215610934578081fd5b81518015158114610801578182fd5b60008060408385031215610955578081fd5b823561096081610c92565b946020939093013593505050565b60006020828403121561097f578081fd5b5051919050565b60008251610998818460208701610c50565b9190910192915050565b6001600160a01b0391909116815260200190565b6001600160a01b03929092168252602082015260400190565b901515815260200190565b60006020825282518060208401526109f9816040850160208701610c50565b601f01601f19169190910160400192915050565b60208082526026908201527f4f776e61626c653a206e6577206f776e657220697320746865207a65726f206160408201526564647265737360d01b606082015260800190565b60208082526026908201527f416464726573733a20696e73756666696369656e742062616c616e636520666f6040820152651c8818d85b1b60d21b606082015260800190565b6020808252601790820152762cb7ba9031b0b71031b630b4b69034ba103630ba32b91760491b604082015260600190565b6020808252818101527f4f776e61626c653a2063616c6c6572206973206e6f7420746865206f776e6572604082015260600190565b6020808252601d908201527f416464726573733a2063616c6c20746f206e6f6e2d636f6e7472616374000000604082015260600190565b6020808252601690820152752a3434b99031b0b713ba103132903932bb37b5b2b21760511b604082015260600190565b6020808252602a908201527f5361666545524332303a204552433230206f7065726174696f6e20646964206e6040820152691bdd081cdd58d8d9595960b21b606082015260800190565b6020808252600f908201526e105b1c9958591e481c995d9bdad959608a1b604082015260600190565b90815260200190565b60008219821115610bf557610bf5610c7c565b500190565b600082610c1557634e487b7160e01b81526012600452602481fd5b500490565b6000816000190483118215151615610c3457610c34610c7c565b500290565b600082821015610c4b57610c4b610c7c565b500390565b60005b83811015610c6b578181015183820152602001610c53565b838111156106085750506000910152565b634e487b7160e01b600052601160045260246000fd5b6001600160a01b0381168114610ca757600080fd5b5056fe8be0079c531659141344cd1fd0a4f28419497f9722a3daafe3b4186f6b6457e0a26469706673582212206324468fc8b9d4e608116165b0bdd0b793877dfed1a093da6ce4299fbe7f114f64736f6c6343000800003360806040526103e86002553480156200001757600080fd5b506040516200102b3803806200102b8339810160408190526200003a9162000171565b600180546001600160a01b0319166001600160a01b038516179055620000817f66b94ad480ec0823f8a0b3535544afb3710cebd5bc6d9711751f209f2164a0a6836200008d565b60025550620001b19050565b6200009982826200009d565b5050565b620000a9828262000127565b62000099576000828152602081815260408083206001600160a01b03851684529091529020805460ff19166001179055620000e362000150565b6001600160a01b0316816001600160a01b0316837f2f8788117e7eff1d82e926ec794901d17c78024a50270940304540a733656f0d60405160405180910390a45050565b6000918252602082815260408084206001600160a01b0393909316845291905290205460ff1690565b3390565b80516001600160a01b03811681146200016c57600080fd5b919050565b60008060006060848603121562000186578283fd5b620001918462000154565b9250620001a16020850162000154565b9150604084015190509250925092565b610e6a80620001c16000396000f3fe60806040526004361061009b5760003560e01c806301ffc9a7146100b15780631d6d0792146100e7578063248a9ca3146101075780632f2ff15d1461013457806336568abe146101545780634faab3c714610174578063664e97041461019457806391d14854146101a9578063a217fddf146101c9578063a6f2ae3a146101de578063ad343299146101e6578063d547741f146101fb576100ac565b366100ac576100aa343361021b565b005b600080fd5b3480156100bd57600080fd5b506100d16100cc366004610b0f565b61037d565b6040516100de9190610c0c565b60405180910390f35b3480156100f357600080fd5b506100aa610102366004610a92565b6103aa565b34801561011357600080fd5b50610127610122366004610acc565b610513565b6040516100de9190610c17565b34801561014057600080fd5b506100aa61014f366004610ae4565b610528565b34801561016057600080fd5b506100aa61016f366004610ae4565b61054c565b34801561018057600080fd5b506100aa61018f366004610a92565b610592565b3480156101a057600080fd5b5061012761061b565b3480156101b557600080fd5b506100d16101c4366004610ae4565b610621565b3480156101d557600080fd5b5061012761064a565b6100aa61064f565b3480156101f257600080fd5b506101276106f9565b34801561020757600080fd5b506100aa610216366004610ae4565b61070b565b60006102268361072a565b6001546040516370a0823160e01b81529192506000916001600160a01b03909116906370a082319061025c903090600401610bbe565b60206040518083038186803b15801561027457600080fd5b505afa158015610288573d6000803e3d6000fd5b505050506040513d601f19601f820116820180604052508101906102ac9190610b37565b90507f28cab0d660ed8aedd61a8c9db00b97f6a2d67e07d87795994f440b18bc5f1aa383836102db8185610da0565b6040516102ea93929190610beb565b60405180910390a160015460405163a9059cbb60e01b81526001600160a01b039091169063a9059cbb906103249086908690600401610bd2565b602060405180830381600087803b15801561033e57600080fd5b505af1158015610352573d6000803e3d6000fd5b505050506040513d601f19601f820116820180604052508101906103769190610aac565b5050505050565b60006001600160e01b03198216637965db0b60e01b14806103a257506103a28261073a565b90505b919050565b6001546040516370a0823160e01b81526000916001600160a01b0316906370a08231906103db903090600401610bbe565b60206040518083038186803b1580156103f357600080fd5b505afa158015610407573d6000803e3d6000fd5b505050506040513d601f19601f8201168201806040525081019061042b9190610b37565b9050610445600080516020610e1583398151915233610621565b61046a5760405162461bcd60e51b815260040161046190610c88565b60405180910390fd5b6000811161048a5760405162461bcd60e51b815260040161046190610cca565b60015460405163a9059cbb60e01b81526001600160a01b039091169063a9059cbb906104bc9085908590600401610bd2565b602060405180830381600087803b1580156104d657600080fd5b505af11580156104ea573d6000803e3d6000fd5b505050506040513d601f19601f8201168201806040525081019061050e9190610aac565b505050565b60009081526020819052604090206001015490565b61053182610513565b6105428161053d610753565b610757565b61050e83836107bb565b610554610753565b6001600160a01b0316816001600160a01b0316146105845760405162461bcd60e51b815260040161046190610d1a565b61058e8282610840565b5050565b6105aa600080516020610e1583398151915233610621565b6105c65760405162461bcd60e51b815260040161046190610c88565b600047116105e65760405162461bcd60e51b815260040161046190610cca565b6040516001600160a01b038216904780156108fc02916000818181858888f1935050505015801561058e573d6000803e3d6000fd5b60025481565b6000918252602082815260408084206001600160a01b0393909316845291905290205460ff1690565b600081565b6001546040516370a0823160e01b81526000916001600160a01b0316906370a0823190610680903090600401610bbe565b60206040518083038186803b15801561069857600080fd5b505afa1580156106ac573d6000803e3d6000fd5b505050506040513d601f19601f820116820180604052508101906106d09190610b37565b116106ed5760405162461bcd60e51b815260040161046190610cf0565b6106f7343361021b565b565b600080516020610e1583398151915281565b61071482610513565b6107208161053d610753565b61050e8383610840565b6000600254826103a29190610d81565b6001600160e01b031981166301ffc9a760e01b14919050565b3390565b6107618282610621565b61058e57610779816001600160a01b031660146108c3565b6107848360206108c3565b604051602001610795929190610b4f565b60408051601f198184030181529082905262461bcd60e51b825261046191600401610c20565b6107c58282610621565b61058e576000828152602081815260408083206001600160a01b03851684529091529020805460ff191660011790556107fc610753565b6001600160a01b0316816001600160a01b0316837f2f8788117e7eff1d82e926ec794901d17c78024a50270940304540a733656f0d60405160405180910390a45050565b61084a8282610621565b1561058e576000828152602081815260408083206001600160a01b03851684529091529020805460ff1916905561087f610753565b6001600160a01b0316816001600160a01b0316837ff6391f5c32d9c69d2a47ea670b442974b53935d1edc7fd64eb21e047a839171b60405160405180910390a45050565b606060006108d2836002610d81565b6108dd906002610d69565b6001600160401b0381111561090257634e487b7160e01b600052604160045260246000fd5b6040519080825280601f01601f19166020018201604052801561092c576020820181803683370190505b509050600360fc1b8160008151811061095557634e487b7160e01b600052603260045260246000fd5b60200101906001600160f81b031916908160001a905350600f60fb1b8160018151811061099257634e487b7160e01b600052603260045260246000fd5b60200101906001600160f81b031916908160001a90535060006109b6846002610d81565b6109c1906001610d69565b90505b6001811115610a55576f181899199a1a9b1b9c1cb0b131b232b360811b85600f1660108110610a0357634e487b7160e01b600052603260045260246000fd5b1a60f81b828281518110610a2757634e487b7160e01b600052603260045260246000fd5b60200101906001600160f81b031916908160001a90535060049490941c93610a4e81610de7565b90506109c4565b508315610a745760405162461bcd60e51b815260040161046190610c53565b9392505050565b80356001600160a01b03811681146103a557600080fd5b600060208284031215610aa3578081fd5b610a7482610a7b565b600060208284031215610abd578081fd5b81518015158114610a74578182fd5b600060208284031215610add578081fd5b5035919050565b60008060408385031215610af6578081fd5b82359150610b0660208401610a7b565b90509250929050565b600060208284031215610b20578081fd5b81356001600160e01b031981168114610a74578182fd5b600060208284031215610b48578081fd5b5051919050565b600076020b1b1b2b9b9a1b7b73a3937b61d1030b1b1b7bab73a1604d1b82528351610b81816017850160208801610db7565b7001034b99036b4b9b9b4b733903937b6329607d1b6017918401918201528351610bb2816028840160208801610db7565b01602801949350505050565b6001600160a01b0391909116815260200190565b6001600160a01b03929092168252602082015260400190565b6001600160a01b039390931683526020830191909152604082015260600190565b901515815260200190565b90815260200190565b6000602082528251806020840152610c3f816040850160208701610db7565b601f01601f19169190910160400192915050565b6020808252818101527f537472696e67733a20686578206c656e67746820696e73756666696369656e74604082015260600190565b60208082526022908201527f6f6e6c792066756e64206d616e616765722063616e2077697468647261772024604082015261090960f21b606082015260800190565b6020808252600c908201526b0924eda40c4e4ded6ca40da760a31b604082015260600190565b60208082526010908201526f313937903830b93a3c93b99037bb32b960811b604082015260600190565b6020808252602f908201527f416363657373436f6e74726f6c3a2063616e206f6e6c792072656e6f756e636560408201526e103937b632b9903337b91039b2b63360891b606082015260800190565b60008219821115610d7c57610d7c610dfe565b500190565b6000816000190483118215151615610d9b57610d9b610dfe565b500290565b600082821015610db257610db2610dfe565b500390565b60005b83811015610dd2578181015183820152602001610dba565b83811115610de1576000848401525b50505050565b600081610df657610df6610dfe565b506000190190565b634e487b7160e01b600052601160045260246000fdfe66b94ad480ec0823f8a0b3535544afb3710cebd5bc6d9711751f209f2164a0a6a2646970667358221220bd20dc40087173ffdab0f5d410e7c43bcc42935d128fd9f733fae5bd1437837564736f6c634300080000336080604052670de0b6b3a76400006001553480156200001d57600080fd5b50604051620016eb380380620016eb833981016040819052620000409162000156565b600280546001600160a01b0319166001600160a01b038416179055620000877f66b94ad480ec0823f8a0b3535544afb3710cebd5bc6d9711751f209f2164a0a6826200008f565b5050620001ad565b6200009b82826200009f565b5050565b620000ab828262000129565b6200009b576000828152602081815260408083206001600160a01b03851684529091529020805460ff19166001179055620000e562000152565b6001600160a01b0316816001600160a01b0316837f2f8788117e7eff1d82e926ec794901d17c78024a50270940304540a733656f0d60405160405180910390a45050565b6000918252602082815260408084206001600160a01b0393909316845291905290205460ff1690565b3390565b6000806040838503121562000169578182fd5b8251620001768162000194565b6020840151909250620001898162000194565b809150509250929050565b6001600160a01b0381168114620001aa57600080fd5b50565b61152e80620001bd6000396000f3fe608060405234801561001057600080fd5b50600436106100e65760003560e01c806301ffc9a7146100eb578063209ec9eb14610114578063248a9ca3146101295780632f2ff15d1461014957806336568abe1461015c57806353b5eb431461016f57806355ec57f4146101945780635f0c4c36146101b457806389fb718a146101c757806391d14854146101da578063943f5b75146101ed578063a1a35bab14610202578063a217fddf14610215578063ad3432991461021d578063d059622d14610225578063d1008e401461022d578063d547741f14610235578063d9c58b8c14610248575b600080fd5b6100fe6100f936600461106e565b61025b565b60405161010b9190611263565b60405180910390f35b61012761012236600461102b565b610288565b005b61013c61013736600461102b565b6102ca565b60405161010b919061126e565b610127610157366004611043565b6102df565b61012761016a366004611043565b610308565b61018261017d366004610fe2565b61034e565b60405161010b969594939291906113ac565b6101a76101a2366004610f0d565b610438565b60405161010b9190611203565b6101826101c2366004610fe2565b610583565b6101276101d5366004610f27565b61059f565b6100fe6101e8366004611043565b6106f4565b6101f561071d565b60405161010b91906111cb565b6101826102103660046110ae565b61072c565b61013c610748565b61013c61074d565b61013c61075f565b61013c610765565b610127610243366004611043565b61076b565b6101a7610256366004610f0d565b61078a565b60006001600160e01b03198216637965db0b60e01b14806102805750610280826108ca565b90505b919050565b6102a06000805160206114d9833981519152336106f4565b6102c55760405162461bcd60e51b81526004016102bc906112bf565b60405180910390fd5b600155565b60009081526020819052604090206001015490565b6102e8826102ca565b6102f9816102f46108e3565b6108e7565b610303838361094b565b505050565b6103106108e3565b6001600160a01b0316816001600160a01b0316146103405760405162461bcd60e51b81526004016102bc9061134a565b61034a82826109d0565b5050565b6005602052816000526040600020818154811061036a57600080fd5b600091825260209091206006909102018054600182015460028301546003840180549396506001600160a01b039283169550911692916103a990611471565b80601f01602080910402602001604051908101604052809291908181526020018280546103d590611471565b80156104225780601f106103f757610100808354040283529160200191610422565b820191906000526020600020905b81548152906001019060200180831161040557829003601f168201915b5050505050908060040154908060050154905086565b6001600160a01b0381166000908152600460209081526040808320805482518185028101850190935280835260609492939192909184015b828210156105785760008481526020908190206040805160c081018252600686029092018054835260018101546001600160a01b03908116948401949094526002810154909316908201526003820180549192916060840191906104d390611471565b80601f01602080910402602001604051908101604052809291908181526020018280546104ff90611471565b801561054c5780601f106105215761010080835404028352916020019161054c565b820191906000526020600020905b81548152906001019060200180831161052f57829003601f168201915b505050505081526020016004820154815260200160058201548152505081526020019060010190610470565b505050509050919050565b6004602052816000526040600020818154811061036a57600080fd5b6002546040516370a0823160e01b81526001600160a01b03909116906370a08231906105cf9033906004016111cb565b60206040518083038186803b1580156105e757600080fd5b505afa1580156105fb573d6000803e3d6000fd5b505050506040513d601f19601f8201168201806040525081019061061f9190611096565b81111561063e5760405162461bcd60e51b81526004016102bc906112f6565b6001548110156106605760405162461bcd60e51b81526004016102bc90611323565b6002546040516323b872dd60e01b81526001600160a01b03909116906323b872dd90610694903390849086906004016111df565b602060405180830381600087803b1580156106ae57600080fd5b505af11580156106c2573d6000803e3d6000fd5b505050506040513d601f19601f820116820180604052508101906106e6919061100b565b506103033384848442610a53565b6000918252602082815260408084206001600160a01b0393909316845291905290205460ff1690565b6002546001600160a01b031681565b6006602052816000526040600020818154811061036a57600080fd5b600081565b6000805160206114d983398151915281565b60035481565b60015481565b610774826102ca565b610780816102f46108e3565b61030383836109d0565b6001600160a01b0381166000908152600560209081526040808320805482518185028101850190935280835260609492939192909184015b828210156105785760008481526020908190206040805160c081018252600686029092018054835260018101546001600160a01b039081169484019490945260028101549093169082015260038201805491929160608401919061082590611471565b80601f016020809104026020016040519081016040528092919081815260200182805461085190611471565b801561089e5780601f106108735761010080835404028352916020019161089e565b820191906000526020600020905b81548152906001019060200180831161088157829003601f168201915b5050505050815260200160048201548152602001600582015481525050815260200190600101906107c2565b6001600160e01b031981166301ffc9a760e01b14919050565b3390565b6108f182826106f4565b61034a57610909816001600160a01b03166014610c98565b610914836020610c98565b60405160200161092592919061115c565b60408051601f198184030181529082905262461bcd60e51b82526102bc91600401611277565b61095582826106f4565b61034a576000828152602081815260408083206001600160a01b03851684529091529020805460ff1916600117905561098c6108e3565b6001600160a01b0316816001600160a01b0316837f2f8788117e7eff1d82e926ec794901d17c78024a50270940304540a733656f0d60405160405180910390a45050565b6109da82826106f4565b1561034a576000828152602081815260408083206001600160a01b03851684529091529020805460ff19169055610a0f6108e3565b6001600160a01b0316816001600160a01b0316837ff6391f5c32d9c69d2a47ea670b442974b53935d1edc7fd64eb21e047a839171b60405160405180910390a45050565b6000610a5f6003610e50565b9050610a6b6003610e54565b6040805160c0810182528281526001600160a01b0380891660208084018281528a8416858701908152606086018b8152608087018b905260a087018a9052600094855260048452968420805460018181018355918652948490208751600690960201948555915191840180549286166001600160a01b0319938416179055516002840180549190951691161790925592518051929384939092610b15926003850192910190610e5d565b506080820151600482015560a0909101516005918201556001600160a01b038088166000908152602092835260408082208054600181810183559184529285902086516006909402019283558585015190830180549185166001600160a01b03199283161790559085015160028301805491909416911617909155606083015180518493610baa926003850192910190610e5d565b506080820151600482015560a0909101516005909101556000828152600660208181526040808420805460018181018355918652948390208651959094029093019384558482015192840180546001600160a01b039485166001600160a01b031991821617909155908501516002850180549190941691161790915560608301518051849392610c41926003850192910190610e5d565b506080820151816004015560a0820151816005015550507f5d5f7b27b0afabe71b412da783b418c1aa24291f06e69b5e087f0eb5882a53ff81604051610c879190611399565b60405180910390a150505050505050565b60606000610ca783600261140b565b610cb29060026113f3565b6001600160401b03811115610cd757634e487b7160e01b600052604160045260246000fd5b6040519080825280601f01601f191660200182016040528015610d01576020820181803683370190505b509050600360fc1b81600081518110610d2a57634e487b7160e01b600052603260045260246000fd5b60200101906001600160f81b031916908160001a905350600f60fb1b81600181518110610d6757634e487b7160e01b600052603260045260246000fd5b60200101906001600160f81b031916908160001a9053506000610d8b84600261140b565b610d969060016113f3565b90505b6001811115610e2a576f181899199a1a9b1b9c1cb0b131b232b360811b85600f1660108110610dd857634e487b7160e01b600052603260045260246000fd5b1a60f81b828281518110610dfc57634e487b7160e01b600052603260045260246000fd5b60200101906001600160f81b031916908160001a90535060049490941c93610e238161145a565b9050610d99565b508315610e495760405162461bcd60e51b81526004016102bc9061128a565b9392505050565b5490565b80546001019055565b828054610e6990611471565b90600052602060002090601f016020900481019282610e8b5760008555610ed1565b82601f10610ea457805160ff1916838001178555610ed1565b82800160010185558215610ed1579182015b82811115610ed1578251825591602001919060010190610eb6565b50610edd929150610ee1565b5090565b5b80821115610edd5760008155600101610ee2565b80356001600160a01b038116811461028357600080fd5b600060208284031215610f1e578081fd5b610e4982610ef6565b600080600060608486031215610f3b578182fd5b610f4484610ef6565b92506020848101356001600160401b0380821115610f60578485fd5b818701915087601f830112610f73578485fd5b813581811115610f8557610f856114c2565b604051601f8201601f1916810185018381118282101715610fa857610fa86114c2565b60405281815283820185018a1015610fbe578687fd5b81858501868301379081019093019490945250929592945050506040919091013590565b60008060408385031215610ff4578182fd5b610ffd83610ef6565b946020939093013593505050565b60006020828403121561101c578081fd5b81518015158114610e49578182fd5b60006020828403121561103c578081fd5b5035919050565b60008060408385031215611055578182fd5b8235915061106560208401610ef6565b90509250929050565b60006020828403121561107f578081fd5b81356001600160e01b031981168114610e49578182fd5b6000602082840312156110a7578081fd5b5051919050565b600080604083850312156110c0578182fd5b50508035926020909101359150565b600081518084526110e781602086016020860161142a565b601f01601f19169290920160200192915050565b600081518352602082015160018060a01b0380821660208601528060408501511660408601525050606082015160c0606085015261113c60c08501826110cf565b90506080830151608085015260a083015160a08501528091505092915050565b600076020b1b1b2b9b9a1b7b73a3937b61d1030b1b1b7bab73a1604d1b8252835161118e81601785016020880161142a565b7001034b99036b4b9b9b4b733903937b6329607d1b60179184019182015283516111bf81602884016020880161142a565b01602801949350505050565b6001600160a01b0391909116815260200190565b6001600160a01b039384168152919092166020820152604081019190915260600190565b6000602080830181845280855180835260408601915060408482028701019250838701855b8281101561125657603f198886030184526112448583516110fb565b94509285019290850190600101611228565b5092979650505050505050565b901515815260200190565b90815260200190565b600060208252610e4960208301846110cf565b6020808252818101527f537472696e67733a20686578206c656e67746820696e73756666696369656e74604082015260600190565b6020808252601e908201527f556e617574686f72697a65642c206e6f742066756e64206d616e616765720000604082015260600190565b602080825260139082015272636f7374203e20796f75722062616c616e636560681b604082015260600190565b6020808252600d908201526c151bdbc81b1a5d1d1b19480909609a1b604082015260600190565b6020808252602f908201527f416363657373436f6e74726f6c3a2063616e206f6e6c792072656e6f756e636560408201526e103937b632b9903337b91039b2b63360891b606082015260800190565b600060208252610e4960208301846110fb565b8681526001600160a01b0386811660208301528516604082015260c0606082018190526000906113de908301866110cf565b60808301949094525060a00152949350505050565b60008219821115611406576114066114ac565b500190565b6000816000190483118215151615611425576114256114ac565b500290565b60005b8381101561144557818101518382015260200161142d565b83811115611454576000848401525b50505050565b600081611469576114696114ac565b506000190190565b60028104600182168061148557607f821691505b602082108114156114a657634e487b7160e01b600052602260045260246000fd5b50919050565b634e487b7160e01b600052601160045260246000fd5b634e487b7160e01b600052604160045260246000fdfe66b94ad480ec0823f8a0b3535544afb3710cebd5bc6d9711751f209f2164a0a6a2646970667358221220fbf849e48bb4b1db9b2cd0959ae3a63bdc12bfb00c317b4c4d2c3d6002b338c864736f6c63430008000033",
  "linkReferences": {},
  "deployedLinkReferences": {}
}