{
  "_format": "hh-sol-artifact-1",
  "contractName": "ICO",
  "sourceName": "contracts/InsultICO.sol",
  "abi": [
    {
      "inputs": [
        {
          "internalType": "address",
          "name": "_tokenAddr",
          "type": "address"
        },
        {
          "internalType": "address",
          "name": "fundmanager",
          "type": "address"
        },
        {
          "internalType": "uint256",
          "name": "_rate",
          "type": "uint256"
        }
      ],
      "stateMutability": "nonpayable",
      "type": "constructor"
    },
    {
      "anonymous": false,
      "inputs": [
        {
          "indexed": true,
          "internalType": "bytes32",
          "name": "role",
          "type": "bytes32"
        },
        {
          "indexed": true,
          "internalType": "bytes32",
          "name": "previousAdminRole",
          "type": "bytes32"
        },
        {
          "indexed": true,
          "internalType": "bytes32",
          "name": "newAdminRole",
          "type": "bytes32"
        }
      ],
      "name": "RoleAdminChanged",
      "type": "event"
    },
    {
      "anonymous": false,
      "inputs": [
        {
          "indexed": true,
          "internalType": "bytes32",
          "name": "role",
          "type": "bytes32"
        },
        {
          "indexed": true,
          "internalType": "address",
          "name": "account",
          "type": "address"
        },
        {
          "indexed": true,
          "internalType": "address",
          "name": "sender",
          "type": "address"
        }
      ],
      "name": "RoleGranted",
      "type": "event"
    },
    {
      "anonymous": false,
      "inputs": [
        {
          "indexed": true,
          "internalType": "bytes32",
          "name": "role",
          "type": "bytes32"
        },
        {
          "indexed": true,
          "internalType": "address",
          "name": "account",
          "type": "address"
        },
        {
          "indexed": true,
          "internalType": "address",
          "name": "sender",
          "type": "address"
        }
      ],
      "name": "RoleRevoked",
      "type": "event"
    },
    {
      "anonymous": false,
      "inputs": [
        {
          "indexed": false,
          "internalType": "address",
          "name": "sender",
          "type": "address"
        },
        {
          "indexed": false,
          "internalType": "uint256",
          "name": "amount",
          "type": "uint256"
        },
        {
          "indexed": false,
          "internalType": "uint256",
          "name": "remaining",
          "type": "uint256"
        }
      ],
      "name": "TokenBought",
      "type": "event"
    },
    {
      "inputs": [],
      "name": "DEFAULT_ADMIN_ROLE",
      "outputs": [
        {
          "internalType": "bytes32",
          "name": "",
          "type": "bytes32"
        }
      ],
      "stateMutability": "view",
      "type": "function"
    },
    {
      "inputs": [],
      "name": "FUNDMAN",
      "outputs": [
        {
          "internalType": "bytes32",
          "name": "",
          "type": "bytes32"
        }
      ],
      "stateMutability": "view",
      "type": "function"
    },
    {
      "inputs": [],
      "name": "RATE",
      "outputs": [
        {
          "internalType": "uint256",
          "name": "",
          "type": "uint256"
        }
      ],
      "stateMutability": "view",
      "type": "function"
    },
    {
      "inputs": [],
      "name": "buy",
      "outputs": [],
      "stateMutability": "payable",
      "type": "function"
    },
    {
      "inputs": [
        {
          "internalType": "bytes32",
          "name": "role",
          "type": "bytes32"
        }
      ],
      "name": "getRoleAdmin",
      "outputs": [
        {
          "internalType": "bytes32",
          "name": "",
          "type": "bytes32"
        }
      ],
      "stateMutability": "view",
      "type": "function"
    },
    {
      "inputs": [
        {
          "internalType": "bytes32",
          "name": "role",
          "type": "bytes32"
        },
        {
          "internalType": "address",
          "name": "account",
          "type": "address"
        }
      ],
      "name": "grantRole",
      "outputs": [],
      "stateMutability": "nonpayable",
      "type": "function"
    },
    {
      "inputs": [
        {
          "internalType": "address",
          "name": "account",
          "type": "address"
        }
      ],
      "name": "harvestToAccount",
      "outputs": [],
      "stateMutability": "nonpayable",
      "type": "function"
    },
    {
      "inputs": [
        {
          "internalType": "address",
          "name": "account",
          "type": "address"
        }
      ],
      "name": "harvestTokens",
      "outputs": [],
      "stateMutability": "nonpayable",
      "type": "function"
    },
    {
      "inputs": [
        {
          "internalType": "bytes32",
          "name": "role",
          "type": "bytes32"
        },
        {
          "internalType": "address",
          "name": "account",
          "type": "address"
        }
      ],
      "name": "hasRole",
      "outputs": [
        {
          "internalType": "bool",
          "name": "",
          "type": "bool"
        }
      ],
      "stateMutability": "view",
      "type": "function"
    },
    {
      "inputs": [
        {
          "internalType": "bytes32",
          "name": "role",
          "type": "bytes32"
        },
        {
          "internalType": "address",
          "name": "account",
          "type": "address"
        }
      ],
      "name": "renounceRole",
      "outputs": [],
      "stateMutability": "nonpayable",
      "type": "function"
    },
    {
      "inputs": [
        {
          "internalType": "bytes32",
          "name": "role",
          "type": "bytes32"
        },
        {
          "internalType": "address",
          "name": "account",
          "type": "address"
        }
      ],
      "name": "revokeRole",
      "outputs": [],
      "stateMutability": "nonpayable",
      "type": "function"
    },
    {
      "inputs": [
        {
          "internalType": "bytes4",
          "name": "interfaceId",
          "type": "bytes4"
        }
      ],
      "name": "supportsInterface",
      "outputs": [
        {
          "internalType": "bool",
          "name": "",
          "type": "bool"
        }
      ],
      "stateMutability": "view",
      "type": "function"
    },
    {
      "stateMutability": "payable",
      "type": "receive"
    }
  ],
  "bytecode": "0x60806040526103e86002553480156200001757600080fd5b506040516200102b3803806200102b8339810160408190526200003a9162000171565b600180546001600160a01b0319166001600160a01b038516179055620000817f66b94ad480ec0823f8a0b3535544afb3710cebd5bc6d9711751f209f2164a0a6836200008d565b60025550620001b19050565b6200009982826200009d565b5050565b620000a9828262000127565b62000099576000828152602081815260408083206001600160a01b03851684529091529020805460ff19166001179055620000e362000150565b6001600160a01b0316816001600160a01b0316837f2f8788117e7eff1d82e926ec794901d17c78024a50270940304540a733656f0d60405160405180910390a45050565b6000918252602082815260408084206001600160a01b0393909316845291905290205460ff1690565b3390565b80516001600160a01b03811681146200016c57600080fd5b919050565b60008060006060848603121562000186578283fd5b620001918462000154565b9250620001a16020850162000154565b9150604084015190509250925092565b610e6a80620001c16000396000f3fe60806040526004361061009b5760003560e01c806301ffc9a7146100b15780631d6d0792146100e7578063248a9ca3146101075780632f2ff15d1461013457806336568abe146101545780634faab3c714610174578063664e97041461019457806391d14854146101a9578063a217fddf146101c9578063a6f2ae3a146101de578063ad343299146101e6578063d547741f146101fb576100ac565b366100ac576100aa343361021b565b005b600080fd5b3480156100bd57600080fd5b506100d16100cc366004610b0f565b61037d565b6040516100de9190610c0c565b60405180910390f35b3480156100f357600080fd5b506100aa610102366004610a92565b6103aa565b34801561011357600080fd5b50610127610122366004610acc565b610513565b6040516100de9190610c17565b34801561014057600080fd5b506100aa61014f366004610ae4565b610528565b34801561016057600080fd5b506100aa61016f366004610ae4565b61054c565b34801561018057600080fd5b506100aa61018f366004610a92565b610592565b3480156101a057600080fd5b5061012761061b565b3480156101b557600080fd5b506100d16101c4366004610ae4565b610621565b3480156101d557600080fd5b5061012761064a565b6100aa61064f565b3480156101f257600080fd5b506101276106f9565b34801561020757600080fd5b506100aa610216366004610ae4565b61070b565b60006102268361072a565b6001546040516370a0823160e01b81529192506000916001600160a01b03909116906370a082319061025c903090600401610bbe565b60206040518083038186803b15801561027457600080fd5b505afa158015610288573d6000803e3d6000fd5b505050506040513d601f19601f820116820180604052508101906102ac9190610b37565b90507f28cab0d660ed8aedd61a8c9db00b97f6a2d67e07d87795994f440b18bc5f1aa383836102db8185610da0565b6040516102ea93929190610beb565b60405180910390a160015460405163a9059cbb60e01b81526001600160a01b039091169063a9059cbb906103249086908690600401610bd2565b602060405180830381600087803b15801561033e57600080fd5b505af1158015610352573d6000803e3d6000fd5b505050506040513d601f19601f820116820180604052508101906103769190610aac565b5050505050565b60006001600160e01b03198216637965db0b60e01b14806103a257506103a28261073a565b90505b919050565b6001546040516370a0823160e01b81526000916001600160a01b0316906370a08231906103db903090600401610bbe565b60206040518083038186803b1580156103f357600080fd5b505afa158015610407573d6000803e3d6000fd5b505050506040513d601f19601f8201168201806040525081019061042b9190610b37565b9050610445600080516020610e1583398151915233610621565b61046a5760405162461bcd60e51b815260040161046190610c88565b60405180910390fd5b6000811161048a5760405162461bcd60e51b815260040161046190610cca565b60015460405163a9059cbb60e01b81526001600160a01b039091169063a9059cbb906104bc9085908590600401610bd2565b602060405180830381600087803b1580156104d657600080fd5b505af11580156104ea573d6000803e3d6000fd5b505050506040513d601f19601f8201168201806040525081019061050e9190610aac565b505050565b60009081526020819052604090206001015490565b61053182610513565b6105428161053d610753565b610757565b61050e83836107bb565b610554610753565b6001600160a01b0316816001600160a01b0316146105845760405162461bcd60e51b815260040161046190610d1a565b61058e8282610840565b5050565b6105aa600080516020610e1583398151915233610621565b6105c65760405162461bcd60e51b815260040161046190610c88565b600047116105e65760405162461bcd60e51b815260040161046190610cca565b6040516001600160a01b038216904780156108fc02916000818181858888f1935050505015801561058e573d6000803e3d6000fd5b60025481565b6000918252602082815260408084206001600160a01b0393909316845291905290205460ff1690565b600081565b6001546040516370a0823160e01b81526000916001600160a01b0316906370a0823190610680903090600401610bbe565b60206040518083038186803b15801561069857600080fd5b505afa1580156106ac573d6000803e3d6000fd5b505050506040513d601f19601f820116820180604052508101906106d09190610b37565b116106ed5760405162461bcd60e51b815260040161046190610cf0565b6106f7343361021b565b565b600080516020610e1583398151915281565b61071482610513565b6107208161053d610753565b61050e8383610840565b6000600254826103a29190610d81565b6001600160e01b031981166301ffc9a760e01b14919050565b3390565b6107618282610621565b61058e57610779816001600160a01b031660146108c3565b6107848360206108c3565b604051602001610795929190610b4f565b60408051601f198184030181529082905262461bcd60e51b825261046191600401610c20565b6107c58282610621565b61058e576000828152602081815260408083206001600160a01b03851684529091529020805460ff191660011790556107fc610753565b6001600160a01b0316816001600160a01b0316837f2f8788117e7eff1d82e926ec794901d17c78024a50270940304540a733656f0d60405160405180910390a45050565b61084a8282610621565b1561058e576000828152602081815260408083206001600160a01b03851684529091529020805460ff1916905561087f610753565b6001600160a01b0316816001600160a01b0316837ff6391f5c32d9c69d2a47ea670b442974b53935d1edc7fd64eb21e047a839171b60405160405180910390a45050565b606060006108d2836002610d81565b6108dd906002610d69565b6001600160401b0381111561090257634e487b7160e01b600052604160045260246000fd5b6040519080825280601f01601f19166020018201604052801561092c576020820181803683370190505b509050600360fc1b8160008151811061095557634e487b7160e01b600052603260045260246000fd5b60200101906001600160f81b031916908160001a905350600f60fb1b8160018151811061099257634e487b7160e01b600052603260045260246000fd5b60200101906001600160f81b031916908160001a90535060006109b6846002610d81565b6109c1906001610d69565b90505b6001811115610a55576f181899199a1a9b1b9c1cb0b131b232b360811b85600f1660108110610a0357634e487b7160e01b600052603260045260246000fd5b1a60f81b828281518110610a2757634e487b7160e01b600052603260045260246000fd5b60200101906001600160f81b031916908160001a90535060049490941c93610a4e81610de7565b90506109c4565b508315610a745760405162461bcd60e51b815260040161046190610c53565b9392505050565b80356001600160a01b03811681146103a557600080fd5b600060208284031215610aa3578081fd5b610a7482610a7b565b600060208284031215610abd578081fd5b81518015158114610a74578182fd5b600060208284031215610add578081fd5b5035919050565b60008060408385031215610af6578081fd5b82359150610b0660208401610a7b565b90509250929050565b600060208284031215610b20578081fd5b81356001600160e01b031981168114610a74578182fd5b600060208284031215610b48578081fd5b5051919050565b600076020b1b1b2b9b9a1b7b73a3937b61d1030b1b1b7bab73a1604d1b82528351610b81816017850160208801610db7565b7001034b99036b4b9b9b4b733903937b6329607d1b6017918401918201528351610bb2816028840160208801610db7565b01602801949350505050565b6001600160a01b0391909116815260200190565b6001600160a01b03929092168252602082015260400190565b6001600160a01b039390931683526020830191909152604082015260600190565b901515815260200190565b90815260200190565b6000602082528251806020840152610c3f816040850160208701610db7565b601f01601f19169190910160400192915050565b6020808252818101527f537472696e67733a20686578206c656e67746820696e73756666696369656e74604082015260600190565b60208082526022908201527f6f6e6c792066756e64206d616e616765722063616e2077697468647261772024604082015261090960f21b606082015260800190565b6020808252600c908201526b0924eda40c4e4ded6ca40da760a31b604082015260600190565b60208082526010908201526f313937903830b93a3c93b99037bb32b960811b604082015260600190565b6020808252602f908201527f416363657373436f6e74726f6c3a2063616e206f6e6c792072656e6f756e636560408201526e103937b632b9903337b91039b2b63360891b606082015260800190565b60008219821115610d7c57610d7c610dfe565b500190565b6000816000190483118215151615610d9b57610d9b610dfe565b500290565b600082821015610db257610db2610dfe565b500390565b60005b83811015610dd2578181015183820152602001610dba565b83811115610de1576000848401525b50505050565b600081610df657610df6610dfe565b506000190190565b634e487b7160e01b600052601160045260246000fdfe66b94ad480ec0823f8a0b3535544afb3710cebd5bc6d9711751f209f2164a0a6a2646970667358221220bd20dc40087173ffdab0f5d410e7c43bcc42935d128fd9f733fae5bd1437837564736f6c63430008000033",
  "linkReferences": {},
  "deployedLinkReferences": {}
}