{
  "_format": "hh-sol-artifact-1",
  "contractName": "ICO",
  "sourceName": "contracts/optional/InsultICO.sol",
  "abi": [
    {
      "inputs": [
        {
          "internalType": "address",
          "name": "_tokenAddr",
          "type": "address"
        },
        {
          "internalType": "address",
          "name": "fundmanager",
          "type": "address"
        },
        {
          "internalType": "uint256",
          "name": "_rate",
          "type": "uint256"
        }
      ],
      "stateMutability": "nonpayable",
      "type": "constructor"
    },
    {
      "anonymous": false,
      "inputs": [
        {
          "indexed": true,
          "internalType": "bytes32",
          "name": "role",
          "type": "bytes32"
        },
        {
          "indexed": true,
          "internalType": "bytes32",
          "name": "previousAdminRole",
          "type": "bytes32"
        },
        {
          "indexed": true,
          "internalType": "bytes32",
          "name": "newAdminRole",
          "type": "bytes32"
        }
      ],
      "name": "RoleAdminChanged",
      "type": "event"
    },
    {
      "anonymous": false,
      "inputs": [
        {
          "indexed": true,
          "internalType": "bytes32",
          "name": "role",
          "type": "bytes32"
        },
        {
          "indexed": true,
          "internalType": "address",
          "name": "account",
          "type": "address"
        },
        {
          "indexed": true,
          "internalType": "address",
          "name": "sender",
          "type": "address"
        }
      ],
      "name": "RoleGranted",
      "type": "event"
    },
    {
      "anonymous": false,
      "inputs": [
        {
          "indexed": true,
          "internalType": "bytes32",
          "name": "role",
          "type": "bytes32"
        },
        {
          "indexed": true,
          "internalType": "address",
          "name": "account",
          "type": "address"
        },
        {
          "indexed": true,
          "internalType": "address",
          "name": "sender",
          "type": "address"
        }
      ],
      "name": "RoleRevoked",
      "type": "event"
    },
    {
      "anonymous": false,
      "inputs": [
        {
          "indexed": false,
          "internalType": "uint256",
          "name": "amount",
          "type": "uint256"
        },
        {
          "indexed": false,
          "internalType": "uint256",
          "name": "remaining",
          "type": "uint256"
        },
        {
          "indexed": false,
          "internalType": "uint256",
          "name": "total",
          "type": "uint256"
        }
      ],
      "name": "TokenBought",
      "type": "event"
    },
    {
      "inputs": [],
      "name": "DEFAULT_ADMIN_ROLE",
      "outputs": [
        {
          "internalType": "bytes32",
          "name": "",
          "type": "bytes32"
        }
      ],
      "stateMutability": "view",
      "type": "function"
    },
    {
      "inputs": [],
      "name": "FUNDMAN",
      "outputs": [
        {
          "internalType": "bytes32",
          "name": "",
          "type": "bytes32"
        }
      ],
      "stateMutability": "view",
      "type": "function"
    },
    {
      "inputs": [],
      "name": "RATE",
      "outputs": [
        {
          "internalType": "uint256",
          "name": "",
          "type": "uint256"
        }
      ],
      "stateMutability": "view",
      "type": "function"
    },
    {
      "inputs": [],
      "name": "buy",
      "outputs": [],
      "stateMutability": "payable",
      "type": "function"
    },
    {
      "inputs": [
        {
          "internalType": "bytes32",
          "name": "role",
          "type": "bytes32"
        }
      ],
      "name": "getRoleAdmin",
      "outputs": [
        {
          "internalType": "bytes32",
          "name": "",
          "type": "bytes32"
        }
      ],
      "stateMutability": "view",
      "type": "function"
    },
    {
      "inputs": [
        {
          "internalType": "bytes32",
          "name": "role",
          "type": "bytes32"
        },
        {
          "internalType": "address",
          "name": "account",
          "type": "address"
        }
      ],
      "name": "grantRole",
      "outputs": [],
      "stateMutability": "nonpayable",
      "type": "function"
    },
    {
      "inputs": [
        {
          "internalType": "address",
          "name": "account",
          "type": "address"
        }
      ],
      "name": "harvestToAccount",
      "outputs": [],
      "stateMutability": "nonpayable",
      "type": "function"
    },
    {
      "inputs": [
        {
          "internalType": "bytes32",
          "name": "role",
          "type": "bytes32"
        },
        {
          "internalType": "address",
          "name": "account",
          "type": "address"
        }
      ],
      "name": "hasRole",
      "outputs": [
        {
          "internalType": "bool",
          "name": "",
          "type": "bool"
        }
      ],
      "stateMutability": "view",
      "type": "function"
    },
    {
      "inputs": [
        {
          "internalType": "bytes32",
          "name": "role",
          "type": "bytes32"
        },
        {
          "internalType": "address",
          "name": "account",
          "type": "address"
        }
      ],
      "name": "renounceRole",
      "outputs": [],
      "stateMutability": "nonpayable",
      "type": "function"
    },
    {
      "inputs": [
        {
          "internalType": "bytes32",
          "name": "role",
          "type": "bytes32"
        },
        {
          "internalType": "address",
          "name": "account",
          "type": "address"
        }
      ],
      "name": "revokeRole",
      "outputs": [],
      "stateMutability": "nonpayable",
      "type": "function"
    },
    {
      "inputs": [
        {
          "internalType": "bytes4",
          "name": "interfaceId",
          "type": "bytes4"
        }
      ],
      "name": "supportsInterface",
      "outputs": [
        {
          "internalType": "bool",
          "name": "",
          "type": "bool"
        }
      ],
      "stateMutability": "view",
      "type": "function"
    }
  ],
  "bytecode": "0x60806040526103e860025534801561001657600080fd5b5060405162000e9338038062000e9383398101604081905261003791610163565b600180546001600160a01b0319166001600160a01b03851617905561007c7f66b94ad480ec0823f8a0b3535544afb3710cebd5bc6d9711751f209f2164a0a683610087565b6002555061019e9050565b6100918282610095565b5050565b61009f828261011a565b610091576000828152602081815260408083206001600160a01b03851684529091529020805460ff191660011790556100d6610143565b6001600160a01b0316816001600160a01b0316837f2f8788117e7eff1d82e926ec794901d17c78024a50270940304540a733656f0d60405160405180910390a45050565b6000918252602082815260408084206001600160a01b0393909316845291905290205460ff1690565b3390565b80516001600160a01b038116811461015e57600080fd5b919050565b600080600060608486031215610177578283fd5b61018084610147565b925061018e60208501610147565b9150604084015190509250925092565b610ce580620001ae6000396000f3fe60806040526004361061008c5760003560e01c806301ffc9a714610091578063248a9ca3146100c75780632f2ff15d146100f457806336568abe146101165780634faab3c714610136578063664e97041461015657806391d148541461016b578063a217fddf1461018b578063a6f2ae3a146101a0578063ad343299146101a8578063d547741f146101bd575b600080fd5b34801561009d57600080fd5b506100b16100ac366004610975565b6101dd565b6040516100be9190610a51565b60405180910390f35b3480156100d357600080fd5b506100e76100e2366004610932565b61020a565b6040516100be9190610a5c565b34801561010057600080fd5b5061011461010f36600461094a565b61021f565b005b34801561012257600080fd5b5061011461013136600461094a565b610248565b34801561014257600080fd5b506101146101513660046108f8565b610297565b34801561016257600080fd5b506100e7610320565b34801561017757600080fd5b506100b161018636600461094a565b610326565b34801561019757600080fd5b506100e761034f565b610114610354565b3480156101b457600080fd5b506100e761054d565b3480156101c957600080fd5b506101146101d836600461094a565b61055f565b60006001600160e01b03198216637965db0b60e01b148061020257506102028261057e565b90505b919050565b60009081526020819052604090206001015490565b6102288261020a565b61023981610234610597565b61059b565b61024383836105ff565b505050565b610250610597565b6001600160a01b0316816001600160a01b0316146102895760405162461bcd60e51b815260040161028090610b5f565b60405180910390fd5b6102938282610684565b5050565b6102af600080516020610c9083398151915233610326565b6102cb5760405162461bcd60e51b815260040161028090610acd565b600047116102eb5760405162461bcd60e51b815260040161028090610b0f565b6040516001600160a01b038216904780156108fc02916000818181858888f19350505050158015610293573d6000803e3d6000fd5b60025481565b6000918252602082815260408084206001600160a01b0393909316845291905290205460ff1690565b600081565b6001546040516370a0823160e01b81526000916001600160a01b0316906370a0823190610385903090600401610a24565b60206040518083038186803b15801561039d57600080fd5b505afa1580156103b1573d6000803e3d6000fd5b505050506040513d601f19601f820116820180604052508101906103d5919061099d565b116103f25760405162461bcd60e51b815260040161028090610b35565b60006103fd34610707565b6001546040516370a0823160e01b81529192506000916001600160a01b03909116906370a0823190610433903090600401610a24565b60206040518083038186803b15801561044b57600080fd5b505afa15801561045f573d6000803e3d6000fd5b505050506040513d601f19601f82011682018060405250810190610483919061099d565b90507fe1e6e81362fb06436354ae6d8fe9b92620df8cb103ec4ca4c47187ce0185853f82826104b28282610c1b565b6040516104c193929190610bae565b60405180910390a160015460405163a9059cbb60e01b81526001600160a01b039091169063a9059cbb906104fb9033908690600401610a38565b602060405180830381600087803b15801561051557600080fd5b505af1158015610529573d6000803e3d6000fd5b505050506040513d601f19601f820116820180604052508101906102439190610912565b600080516020610c9083398151915281565b6105688261020a565b61057481610234610597565b6102438383610684565b6001600160e01b031981166301ffc9a760e01b14919050565b3390565b6105a58282610326565b610293576105bd816001600160a01b03166014610729565b6105c8836020610729565b6040516020016105d99291906109b5565b60408051601f198184030181529082905262461bcd60e51b825261028091600401610a65565b6106098282610326565b610293576000828152602081815260408083206001600160a01b03851684529091529020805460ff19166001179055610640610597565b6001600160a01b0316816001600160a01b0316837f2f8788117e7eff1d82e926ec794901d17c78024a50270940304540a733656f0d60405160405180910390a45050565b61068e8282610326565b15610293576000828152602081815260408083206001600160a01b03851684529091529020805460ff191690556106c3610597565b6001600160a01b0316816001600160a01b0316837ff6391f5c32d9c69d2a47ea670b442974b53935d1edc7fd64eb21e047a839171b60405160405180910390a45050565b60025460009061071f670de0b6b3a764000084610bdc565b6102029190610bfc565b60606000610738836002610bfc565b610743906002610bc4565b6001600160401b0381111561076857634e487b7160e01b600052604160045260246000fd5b6040519080825280601f01601f191660200182016040528015610792576020820181803683370190505b509050600360fc1b816000815181106107bb57634e487b7160e01b600052603260045260246000fd5b60200101906001600160f81b031916908160001a905350600f60fb1b816001815181106107f857634e487b7160e01b600052603260045260246000fd5b60200101906001600160f81b031916908160001a905350600061081c846002610bfc565b610827906001610bc4565b90505b60018111156108bb576f181899199a1a9b1b9c1cb0b131b232b360811b85600f166010811061086957634e487b7160e01b600052603260045260246000fd5b1a60f81b82828151811061088d57634e487b7160e01b600052603260045260246000fd5b60200101906001600160f81b031916908160001a90535060049490941c936108b481610c62565b905061082a565b5083156108da5760405162461bcd60e51b815260040161028090610a98565b9392505050565b80356001600160a01b038116811461020557600080fd5b600060208284031215610909578081fd5b6108da826108e1565b600060208284031215610923578081fd5b815180151581146108da578182fd5b600060208284031215610943578081fd5b5035919050565b6000806040838503121561095c578081fd5b8235915061096c602084016108e1565b90509250929050565b600060208284031215610986578081fd5b81356001600160e01b0319811681146108da578182fd5b6000602082840312156109ae578081fd5b5051919050565b600076020b1b1b2b9b9a1b7b73a3937b61d1030b1b1b7bab73a1604d1b825283516109e7816017850160208801610c32565b7001034b99036b4b9b9b4b733903937b6329607d1b6017918401918201528351610a18816028840160208801610c32565b01602801949350505050565b6001600160a01b0391909116815260200190565b6001600160a01b03929092168252602082015260400190565b901515815260200190565b90815260200190565b6000602082528251806020840152610a84816040850160208701610c32565b601f01601f19169190910160400192915050565b6020808252818101527f537472696e67733a20686578206c656e67746820696e73756666696369656e74604082015260600190565b60208082526022908201527f6f6e6c792066756e64206d616e616765722063616e2077697468647261772024604082015261090960f21b606082015260800190565b6020808252600c908201526b0924eda40c4e4ded6ca40da760a31b604082015260600190565b60208082526010908201526f313937903830b93a3c93b99037bb32b960811b604082015260600190565b6020808252602f908201527f416363657373436f6e74726f6c3a2063616e206f6e6c792072656e6f756e636560408201526e103937b632b9903337b91039b2b63360891b606082015260800190565b9283526020830191909152604082015260600190565b60008219821115610bd757610bd7610c79565b500190565b600082610bf757634e487b7160e01b81526012600452602481fd5b500490565b6000816000190483118215151615610c1657610c16610c79565b500290565b600082821015610c2d57610c2d610c79565b500390565b60005b83811015610c4d578181015183820152602001610c35565b83811115610c5c576000848401525b50505050565b600081610c7157610c71610c79565b506000190190565b634e487b7160e01b600052601160045260246000fdfe66b94ad480ec0823f8a0b3535544afb3710cebd5bc6d9711751f209f2164a0a6a2646970667358221220b40af7f92e26c3b8eb611978bd459b574fce8de3c0ae5ba34a47e40e2944879964736f6c63430008000033",
  "linkReferences": {},
  "deployedLinkReferences": {}
}