{
  "_format": "hh-sol-artifact-1",
  "contractName": "Insulting",
  "sourceName": "contracts/optional/Insulting.sol",
  "abi": [
    {
      "inputs": [
        {
          "internalType": "contract ERC20",
          "name": "token",
          "type": "address"
        },
        {
          "internalType": "address",
          "name": "fundman",
          "type": "address"
        }
      ],
      "stateMutability": "nonpayable",
      "type": "constructor"
    },
    {
      "anonymous": false,
      "inputs": [
        {
          "indexed": true,
          "internalType": "bytes32",
          "name": "role",
          "type": "bytes32"
        },
        {
          "indexed": true,
          "internalType": "bytes32",
          "name": "previousAdminRole",
          "type": "bytes32"
        },
        {
          "indexed": true,
          "internalType": "bytes32",
          "name": "newAdminRole",
          "type": "bytes32"
        }
      ],
      "name": "RoleAdminChanged",
      "type": "event"
    },
    {
      "anonymous": false,
      "inputs": [
        {
          "indexed": true,
          "internalType": "bytes32",
          "name": "role",
          "type": "bytes32"
        },
        {
          "indexed": true,
          "internalType": "address",
          "name": "account",
          "type": "address"
        },
        {
          "indexed": true,
          "internalType": "address",
          "name": "sender",
          "type": "address"
        }
      ],
      "name": "RoleGranted",
      "type": "event"
    },
    {
      "anonymous": false,
      "inputs": [
        {
          "indexed": true,
          "internalType": "bytes32",
          "name": "role",
          "type": "bytes32"
        },
        {
          "indexed": true,
          "internalType": "address",
          "name": "account",
          "type": "address"
        },
        {
          "indexed": true,
          "internalType": "address",
          "name": "sender",
          "type": "address"
        }
      ],
      "name": "RoleRevoked",
      "type": "event"
    },
    {
      "inputs": [],
      "name": "DEFAULT_ADMIN_ROLE",
      "outputs": [
        {
          "internalType": "bytes32",
          "name": "",
          "type": "bytes32"
        }
      ],
      "stateMutability": "view",
      "type": "function"
    },
    {
      "inputs": [],
      "name": "FUNDMAN",
      "outputs": [
        {
          "internalType": "bytes32",
          "name": "",
          "type": "bytes32"
        }
      ],
      "stateMutability": "view",
      "type": "function"
    },
    {
      "inputs": [
        {
          "internalType": "uint256",
          "name": "newAmount",
          "type": "uint256"
        }
      ],
      "name": "adjustCost",
      "outputs": [],
      "stateMutability": "nonpayable",
      "type": "function"
    },
    {
      "inputs": [
        {
          "internalType": "address",
          "name": "user",
          "type": "address"
        }
      ],
      "name": "getReceivedInsults",
      "outputs": [
        {
          "components": [
            {
              "internalType": "uint256",
              "name": "id",
              "type": "uint256"
            },
            {
              "internalType": "address",
              "name": "sender",
              "type": "address"
            },
            {
              "internalType": "address",
              "name": "receiver",
              "type": "address"
            },
            {
              "internalType": "string",
              "name": "message",
              "type": "string"
            },
            {
              "internalType": "uint256",
              "name": "cost",
              "type": "uint256"
            },
            {
              "internalType": "uint256",
              "name": "timestamp",
              "type": "uint256"
            }
          ],
          "internalType": "struct Insulting.Insult[]",
          "name": "",
          "type": "tuple[]"
        }
      ],
      "stateMutability": "view",
      "type": "function"
    },
    {
      "inputs": [
        {
          "internalType": "bytes32",
          "name": "role",
          "type": "bytes32"
        }
      ],
      "name": "getRoleAdmin",
      "outputs": [
        {
          "internalType": "bytes32",
          "name": "",
          "type": "bytes32"
        }
      ],
      "stateMutability": "view",
      "type": "function"
    },
    {
      "inputs": [
        {
          "internalType": "address",
          "name": "user",
          "type": "address"
        }
      ],
      "name": "getSentInsults",
      "outputs": [
        {
          "components": [
            {
              "internalType": "uint256",
              "name": "id",
              "type": "uint256"
            },
            {
              "internalType": "address",
              "name": "sender",
              "type": "address"
            },
            {
              "internalType": "address",
              "name": "receiver",
              "type": "address"
            },
            {
              "internalType": "string",
              "name": "message",
              "type": "string"
            },
            {
              "internalType": "uint256",
              "name": "cost",
              "type": "uint256"
            },
            {
              "internalType": "uint256",
              "name": "timestamp",
              "type": "uint256"
            }
          ],
          "internalType": "struct Insulting.Insult[]",
          "name": "",
          "type": "tuple[]"
        }
      ],
      "stateMutability": "view",
      "type": "function"
    },
    {
      "inputs": [
        {
          "internalType": "bytes32",
          "name": "role",
          "type": "bytes32"
        },
        {
          "internalType": "address",
          "name": "account",
          "type": "address"
        }
      ],
      "name": "grantRole",
      "outputs": [],
      "stateMutability": "nonpayable",
      "type": "function"
    },
    {
      "inputs": [
        {
          "internalType": "bytes32",
          "name": "role",
          "type": "bytes32"
        },
        {
          "internalType": "address",
          "name": "account",
          "type": "address"
        }
      ],
      "name": "hasRole",
      "outputs": [
        {
          "internalType": "bool",
          "name": "",
          "type": "bool"
        }
      ],
      "stateMutability": "view",
      "type": "function"
    },
    {
      "inputs": [
        {
          "internalType": "uint256",
          "name": "",
          "type": "uint256"
        },
        {
          "internalType": "uint256",
          "name": "",
          "type": "uint256"
        }
      ],
      "name": "idToInsult",
      "outputs": [
        {
          "internalType": "uint256",
          "name": "id",
          "type": "uint256"
        },
        {
          "internalType": "address",
          "name": "sender",
          "type": "address"
        },
        {
          "internalType": "address",
          "name": "receiver",
          "type": "address"
        },
        {
          "internalType": "string",
          "name": "message",
          "type": "string"
        },
        {
          "internalType": "uint256",
          "name": "cost",
          "type": "uint256"
        },
        {
          "internalType": "uint256",
          "name": "timestamp",
          "type": "uint256"
        }
      ],
      "stateMutability": "view",
      "type": "function"
    },
    {
      "inputs": [
        {
          "internalType": "address",
          "name": "target",
          "type": "address"
        },
        {
          "internalType": "string",
          "name": "message",
          "type": "string"
        },
        {
          "internalType": "uint256",
          "name": "cost",
          "type": "uint256"
        }
      ],
      "name": "insult",
      "outputs": [],
      "stateMutability": "nonpayable",
      "type": "function"
    },
    {
      "inputs": [],
      "name": "insultCoin",
      "outputs": [
        {
          "internalType": "contract ERC20",
          "name": "",
          "type": "address"
        }
      ],
      "stateMutability": "view",
      "type": "function"
    },
    {
      "inputs": [],
      "name": "insultIdCount",
      "outputs": [
        {
          "internalType": "uint256",
          "name": "_value",
          "type": "uint256"
        }
      ],
      "stateMutability": "view",
      "type": "function"
    },
    {
      "inputs": [
        {
          "internalType": "address",
          "name": "",
          "type": "address"
        },
        {
          "internalType": "uint256",
          "name": "",
          "type": "uint256"
        }
      ],
      "name": "myReceivedInsults",
      "outputs": [
        {
          "internalType": "uint256",
          "name": "id",
          "type": "uint256"
        },
        {
          "internalType": "address",
          "name": "sender",
          "type": "address"
        },
        {
          "internalType": "address",
          "name": "receiver",
          "type": "address"
        },
        {
          "internalType": "string",
          "name": "message",
          "type": "string"
        },
        {
          "internalType": "uint256",
          "name": "cost",
          "type": "uint256"
        },
        {
          "internalType": "uint256",
          "name": "timestamp",
          "type": "uint256"
        }
      ],
      "stateMutability": "view",
      "type": "function"
    },
    {
      "inputs": [
        {
          "internalType": "address",
          "name": "",
          "type": "address"
        },
        {
          "internalType": "uint256",
          "name": "",
          "type": "uint256"
        }
      ],
      "name": "mySentInsults",
      "outputs": [
        {
          "internalType": "uint256",
          "name": "id",
          "type": "uint256"
        },
        {
          "internalType": "address",
          "name": "sender",
          "type": "address"
        },
        {
          "internalType": "address",
          "name": "receiver",
          "type": "address"
        },
        {
          "internalType": "string",
          "name": "message",
          "type": "string"
        },
        {
          "internalType": "uint256",
          "name": "cost",
          "type": "uint256"
        },
        {
          "internalType": "uint256",
          "name": "timestamp",
          "type": "uint256"
        }
      ],
      "stateMutability": "view",
      "type": "function"
    },
    {
      "inputs": [
        {
          "internalType": "bytes32",
          "name": "role",
          "type": "bytes32"
        },
        {
          "internalType": "address",
          "name": "account",
          "type": "address"
        }
      ],
      "name": "renounceRole",
      "outputs": [],
      "stateMutability": "nonpayable",
      "type": "function"
    },
    {
      "inputs": [
        {
          "internalType": "bytes32",
          "name": "role",
          "type": "bytes32"
        },
        {
          "internalType": "address",
          "name": "account",
          "type": "address"
        }
      ],
      "name": "revokeRole",
      "outputs": [],
      "stateMutability": "nonpayable",
      "type": "function"
    },
    {
      "inputs": [
        {
          "internalType": "bytes4",
          "name": "interfaceId",
          "type": "bytes4"
        }
      ],
      "name": "supportsInterface",
      "outputs": [
        {
          "internalType": "bool",
          "name": "",
          "type": "bool"
        }
      ],
      "stateMutability": "view",
      "type": "function"
    }
  ],
  "bytecode": "0x6080604052678ac7230489e800006001553480156200001d57600080fd5b506040516200167338038062001673833981016040819052620000409162000156565b600280546001600160a01b0319166001600160a01b038416179055620000877f66b94ad480ec0823f8a0b3535544afb3710cebd5bc6d9711751f209f2164a0a6826200008f565b5050620001ad565b6200009b82826200009f565b5050565b620000ab828262000129565b6200009b576000828152602081815260408083206001600160a01b03851684529091529020805460ff19166001179055620000e562000152565b6001600160a01b0316816001600160a01b0316837f2f8788117e7eff1d82e926ec794901d17c78024a50270940304540a733656f0d60405160405180910390a45050565b6000918252602082815260408084206001600160a01b0393909316845291905290205460ff1690565b3390565b6000806040838503121562000169578182fd5b8251620001768162000194565b6020840151909250620001898162000194565b809150509250929050565b6001600160a01b0381168114620001aa57600080fd5b50565b6114b680620001bd6000396000f3fe608060405234801561001057600080fd5b50600436106100db5760003560e01c806301ffc9a7146100e0578063209ec9eb14610109578063248a9ca31461011e5780632f2ff15d1461013e57806336568abe1461015157806353b5eb431461016457806355ec57f4146101895780635f0c4c36146101a957806389fb718a146101bc57806391d14854146101cf578063943f5b75146101e2578063a1a35bab146101f7578063a217fddf1461020a578063ad34329914610212578063d059622d1461021a578063d547741f14610222578063d9c58b8c14610235575b600080fd5b6100f36100ee36600461101e565b610248565b60405161010091906111fe565b60405180910390f35b61011c610117366004610fdb565b610275565b005b61013161012c366004610fdb565b6102b7565b6040516101009190611209565b61011c61014c366004610ff3565b6102cc565b61011c61015f366004610ff3565b6102f5565b610177610172366004610f92565b61033b565b60405161010096959493929190611334565b61019c610197366004610ebd565b610425565b6040516101009190611152565b6101776101b7366004610f92565b610570565b61011c6101ca366004610ed7565b61058c565b6100f36101dd366004610ff3565b6106e1565b6101ea61070a565b604051610100919061111a565b61017761020536600461105e565b610719565b610131610735565b61013161073a565b61013161074c565b61011c610230366004610ff3565b610752565b61019c610243366004610ebd565b610771565b60006001600160e01b03198216637965db0b60e01b148061026d575061026d826108b1565b90505b919050565b61028d600080516020611461833981519152336106e1565b6102b25760405162461bcd60e51b81526004016102a99061125a565b60405180910390fd5b600155565b60009081526020819052604090206001015490565b6102d5826102b7565b6102e6816102e16108ca565b6108ce565b6102f08383610932565b505050565b6102fd6108ca565b6001600160a01b0316816001600160a01b03161461032d5760405162461bcd60e51b81526004016102a9906112e5565b61033782826109b7565b5050565b6005602052816000526040600020818154811061035757600080fd5b600091825260209091206006909102018054600182015460028301546003840180549396506001600160a01b03928316955091169291610396906113f9565b80601f01602080910402602001604051908101604052809291908181526020018280546103c2906113f9565b801561040f5780601f106103e45761010080835404028352916020019161040f565b820191906000526020600020905b8154815290600101906020018083116103f257829003601f168201915b5050505050908060040154908060050154905086565b6001600160a01b0381166000908152600460209081526040808320805482518185028101850190935280835260609492939192909184015b828210156105655760008481526020908190206040805160c081018252600686029092018054835260018101546001600160a01b03908116948401949094526002810154909316908201526003820180549192916060840191906104c0906113f9565b80601f01602080910402602001604051908101604052809291908181526020018280546104ec906113f9565b80156105395780601f1061050e57610100808354040283529160200191610539565b820191906000526020600020905b81548152906001019060200180831161051c57829003601f168201915b50505050508152602001600482015481526020016005820154815250508152602001906001019061045d565b505050509050919050565b6004602052816000526040600020818154811061035757600080fd5b6002546040516370a0823160e01b81526001600160a01b03909116906370a08231906105bc90339060040161111a565b60206040518083038186803b1580156105d457600080fd5b505afa1580156105e8573d6000803e3d6000fd5b505050506040513d601f19601f8201168201806040525081019061060c9190611046565b81111561062b5760405162461bcd60e51b81526004016102a990611291565b60015481101561064d5760405162461bcd60e51b81526004016102a9906112be565b6002546040516323b872dd60e01b81526001600160a01b03909116906323b872dd906106819033908490869060040161112e565b602060405180830381600087803b15801561069b57600080fd5b505af11580156106af573d6000803e3d6000fd5b505050506040513d601f19601f820116820180604052508101906106d39190610fbb565b506102f03384848442610a3a565b6000918252602082815260408084206001600160a01b0393909316845291905290205460ff1690565b6002546001600160a01b031681565b6006602052816000526040600020818154811061035757600080fd5b600081565b60008051602061146183398151915281565b60035481565b61075b826102b7565b610767816102e16108ca565b6102f083836109b7565b6001600160a01b0381166000908152600560209081526040808320805482518185028101850190935280835260609492939192909184015b828210156105655760008481526020908190206040805160c081018252600686029092018054835260018101546001600160a01b039081169484019490945260028101549093169082015260038201805491929160608401919061080c906113f9565b80601f0160208091040260200160405190810160405280929190818152602001828054610838906113f9565b80156108855780601f1061085a57610100808354040283529160200191610885565b820191906000526020600020905b81548152906001019060200180831161086857829003601f168201915b5050505050815260200160048201548152602001600582015481525050815260200190600101906107a9565b6001600160e01b031981166301ffc9a760e01b14919050565b3390565b6108d882826106e1565b610337576108f0816001600160a01b03166014610c48565b6108fb836020610c48565b60405160200161090c9291906110ab565b60408051601f198184030181529082905262461bcd60e51b82526102a991600401611212565b61093c82826106e1565b610337576000828152602081815260408083206001600160a01b03851684529091529020805460ff191660011790556109736108ca565b6001600160a01b0316816001600160a01b0316837f2f8788117e7eff1d82e926ec794901d17c78024a50270940304540a733656f0d60405160405180910390a45050565b6109c182826106e1565b15610337576000828152602081815260408083206001600160a01b03851684529091529020805460ff191690556109f66108ca565b6001600160a01b0316816001600160a01b0316837ff6391f5c32d9c69d2a47ea670b442974b53935d1edc7fd64eb21e047a839171b60405160405180910390a45050565b6000610a466003610e00565b9050610a526003610e04565b6040805160c0810182528281526001600160a01b0380891660208084018281528a8416858701908152606086018b8152608087018b905260a087018a9052600094855260048452968420805460018181018355918652948490208751600690960201948555915191840180549286166001600160a01b0319938416179055516002840180549190951691161790925592518051929384939092610afc926003850192910190610e0d565b506080820151600482015560a0909101516005918201556001600160a01b038088166000908152602092835260408082208054600181810183559184529285902086516006909402019283558585015190830180549185166001600160a01b03199283161790559085015160028301805491909416911617909155606083015180518493610b91926003850192910190610e0d565b506080820151600482015560a0909101516005909101556000828152600660208181526040808420805460018181018355918652948390208651959094029093019384558482015192840180546001600160a01b039485166001600160a01b031991821617909155908501516002850180549190941691161790915560608301518051849392610c28926003850192910190610e0d565b506080820151816004015560a08201518160050155505050505050505050565b60606000610c57836002611393565b610c6290600261137b565b6001600160401b03811115610c8757634e487b7160e01b600052604160045260246000fd5b6040519080825280601f01601f191660200182016040528015610cb1576020820181803683370190505b509050600360fc1b81600081518110610cda57634e487b7160e01b600052603260045260246000fd5b60200101906001600160f81b031916908160001a905350600f60fb1b81600181518110610d1757634e487b7160e01b600052603260045260246000fd5b60200101906001600160f81b031916908160001a9053506000610d3b846002611393565b610d4690600161137b565b90505b6001811115610dda576f181899199a1a9b1b9c1cb0b131b232b360811b85600f1660108110610d8857634e487b7160e01b600052603260045260246000fd5b1a60f81b828281518110610dac57634e487b7160e01b600052603260045260246000fd5b60200101906001600160f81b031916908160001a90535060049490941c93610dd3816113e2565b9050610d49565b508315610df95760405162461bcd60e51b81526004016102a990611225565b9392505050565b5490565b80546001019055565b828054610e19906113f9565b90600052602060002090601f016020900481019282610e3b5760008555610e81565b82601f10610e5457805160ff1916838001178555610e81565b82800160010185558215610e81579182015b82811115610e81578251825591602001919060010190610e66565b50610e8d929150610e91565b5090565b5b80821115610e8d5760008155600101610e92565b80356001600160a01b038116811461027057600080fd5b600060208284031215610ece578081fd5b610df982610ea6565b600080600060608486031215610eeb578182fd5b610ef484610ea6565b92506020848101356001600160401b0380821115610f10578485fd5b818701915087601f830112610f23578485fd5b813581811115610f3557610f3561144a565b604051601f8201601f1916810185018381118282101715610f5857610f5861144a565b60405281815283820185018a1015610f6e578687fd5b81858501868301379081019093019490945250929592945050506040919091013590565b60008060408385031215610fa4578182fd5b610fad83610ea6565b946020939093013593505050565b600060208284031215610fcc578081fd5b81518015158114610df9578182fd5b600060208284031215610fec578081fd5b5035919050565b60008060408385031215611005578182fd5b8235915061101560208401610ea6565b90509250929050565b60006020828403121561102f578081fd5b81356001600160e01b031981168114610df9578182fd5b600060208284031215611057578081fd5b5051919050565b60008060408385031215611070578182fd5b50508035926020909101359150565b600081518084526110978160208601602086016113b2565b601f01601f19169290920160200192915050565b600076020b1b1b2b9b9a1b7b73a3937b61d1030b1b1b7bab73a1604d1b825283516110dd8160178501602088016113b2565b7001034b99036b4b9b9b4b733903937b6329607d1b601791840191820152835161110e8160288401602088016113b2565b01602801949350505050565b6001600160a01b0391909116815260200190565b6001600160a01b039384168152919092166020820152604081019190915260600190565b60208082528251828201819052600091906040908185019080840286018301878501865b838110156111f057888303603f19018552815180518452878101516001600160a01b039081168986015287820151168785015260608082015160c082870181905291906111c58388018261107f565b6080858101519089015260a09485015194909701939093525050509386019390860190600101611176565b509098975050505050505050565b901515815260200190565b90815260200190565b600060208252610df9602083018461107f565b6020808252818101527f537472696e67733a20686578206c656e67746820696e73756666696369656e74604082015260600190565b6020808252601e908201527f556e617574686f72697a65642c206e6f742066756e64206d616e616765720000604082015260600190565b602080825260139082015272636f7374203e20796f75722062616c616e636560681b604082015260600190565b6020808252600d908201526c151bdbc81b1a5d1d1b19480909609a1b604082015260600190565b6020808252602f908201527f416363657373436f6e74726f6c3a2063616e206f6e6c792072656e6f756e636560408201526e103937b632b9903337b91039b2b63360891b606082015260800190565b8681526001600160a01b0386811660208301528516604082015260c0606082018190526000906113669083018661107f565b60808301949094525060a00152949350505050565b6000821982111561138e5761138e611434565b500190565b60008160001904831182151516156113ad576113ad611434565b500290565b60005b838110156113cd5781810151838201526020016113b5565b838111156113dc576000848401525b50505050565b6000816113f1576113f1611434565b506000190190565b60028104600182168061140d57607f821691505b6020821081141561142e57634e487b7160e01b600052602260045260246000fd5b50919050565b634e487b7160e01b600052601160045260246000fd5b634e487b7160e01b600052604160045260246000fdfe66b94ad480ec0823f8a0b3535544afb3710cebd5bc6d9711751f209f2164a0a6a264697066735822122040349d296b15048b7e62153b8b8d2f5302cb1e49d9b834ab22e611a97e3ed0af64736f6c63430008000033",
  "linkReferences": {},
  "deployedLinkReferences": {}
}