{
  "_format": "hh-sol-artifact-1",
  "contractName": "Insulting",
  "sourceName": "contracts/Insulting.sol",
  "abi": [
    {
      "inputs": [
        {
          "internalType": "contract ERC20",
          "name": "token",
          "type": "address"
        },
        {
          "internalType": "address",
          "name": "fundman",
          "type": "address"
        }
      ],
      "stateMutability": "nonpayable",
      "type": "constructor"
    },
    {
      "anonymous": false,
      "inputs": [
        {
          "components": [
            {
              "internalType": "uint256",
              "name": "id",
              "type": "uint256"
            },
            {
              "internalType": "address",
              "name": "sender",
              "type": "address"
            },
            {
              "internalType": "address",
              "name": "receiver",
              "type": "address"
            },
            {
              "internalType": "string",
              "name": "message",
              "type": "string"
            },
            {
              "internalType": "uint256",
              "name": "cost",
              "type": "uint256"
            },
            {
              "internalType": "uint256",
              "name": "timestamp",
              "type": "uint256"
            }
          ],
          "indexed": false,
          "internalType": "struct Insulting.Insult",
          "name": "insult",
          "type": "tuple"
        }
      ],
      "name": "InsultSent",
      "type": "event"
    },
    {
      "anonymous": false,
      "inputs": [
        {
          "indexed": true,
          "internalType": "bytes32",
          "name": "role",
          "type": "bytes32"
        },
        {
          "indexed": true,
          "internalType": "bytes32",
          "name": "previousAdminRole",
          "type": "bytes32"
        },
        {
          "indexed": true,
          "internalType": "bytes32",
          "name": "newAdminRole",
          "type": "bytes32"
        }
      ],
      "name": "RoleAdminChanged",
      "type": "event"
    },
    {
      "anonymous": false,
      "inputs": [
        {
          "indexed": true,
          "internalType": "bytes32",
          "name": "role",
          "type": "bytes32"
        },
        {
          "indexed": true,
          "internalType": "address",
          "name": "account",
          "type": "address"
        },
        {
          "indexed": true,
          "internalType": "address",
          "name": "sender",
          "type": "address"
        }
      ],
      "name": "RoleGranted",
      "type": "event"
    },
    {
      "anonymous": false,
      "inputs": [
        {
          "indexed": true,
          "internalType": "bytes32",
          "name": "role",
          "type": "bytes32"
        },
        {
          "indexed": true,
          "internalType": "address",
          "name": "account",
          "type": "address"
        },
        {
          "indexed": true,
          "internalType": "address",
          "name": "sender",
          "type": "address"
        }
      ],
      "name": "RoleRevoked",
      "type": "event"
    },
    {
      "inputs": [],
      "name": "DEFAULT_ADMIN_ROLE",
      "outputs": [
        {
          "internalType": "bytes32",
          "name": "",
          "type": "bytes32"
        }
      ],
      "stateMutability": "view",
      "type": "function"
    },
    {
      "inputs": [],
      "name": "FUNDMAN",
      "outputs": [
        {
          "internalType": "bytes32",
          "name": "",
          "type": "bytes32"
        }
      ],
      "stateMutability": "view",
      "type": "function"
    },
    {
      "inputs": [
        {
          "internalType": "uint256",
          "name": "newAmount",
          "type": "uint256"
        }
      ],
      "name": "adjustCost",
      "outputs": [],
      "stateMutability": "nonpayable",
      "type": "function"
    },
    {
      "inputs": [
        {
          "internalType": "address",
          "name": "user",
          "type": "address"
        }
      ],
      "name": "getReceivedInsults",
      "outputs": [
        {
          "components": [
            {
              "internalType": "uint256",
              "name": "id",
              "type": "uint256"
            },
            {
              "internalType": "address",
              "name": "sender",
              "type": "address"
            },
            {
              "internalType": "address",
              "name": "receiver",
              "type": "address"
            },
            {
              "internalType": "string",
              "name": "message",
              "type": "string"
            },
            {
              "internalType": "uint256",
              "name": "cost",
              "type": "uint256"
            },
            {
              "internalType": "uint256",
              "name": "timestamp",
              "type": "uint256"
            }
          ],
          "internalType": "struct Insulting.Insult[]",
          "name": "",
          "type": "tuple[]"
        }
      ],
      "stateMutability": "view",
      "type": "function"
    },
    {
      "inputs": [
        {
          "internalType": "bytes32",
          "name": "role",
          "type": "bytes32"
        }
      ],
      "name": "getRoleAdmin",
      "outputs": [
        {
          "internalType": "bytes32",
          "name": "",
          "type": "bytes32"
        }
      ],
      "stateMutability": "view",
      "type": "function"
    },
    {
      "inputs": [
        {
          "internalType": "address",
          "name": "user",
          "type": "address"
        }
      ],
      "name": "getSentInsults",
      "outputs": [
        {
          "components": [
            {
              "internalType": "uint256",
              "name": "id",
              "type": "uint256"
            },
            {
              "internalType": "address",
              "name": "sender",
              "type": "address"
            },
            {
              "internalType": "address",
              "name": "receiver",
              "type": "address"
            },
            {
              "internalType": "string",
              "name": "message",
              "type": "string"
            },
            {
              "internalType": "uint256",
              "name": "cost",
              "type": "uint256"
            },
            {
              "internalType": "uint256",
              "name": "timestamp",
              "type": "uint256"
            }
          ],
          "internalType": "struct Insulting.Insult[]",
          "name": "",
          "type": "tuple[]"
        }
      ],
      "stateMutability": "view",
      "type": "function"
    },
    {
      "inputs": [
        {
          "internalType": "bytes32",
          "name": "role",
          "type": "bytes32"
        },
        {
          "internalType": "address",
          "name": "account",
          "type": "address"
        }
      ],
      "name": "grantRole",
      "outputs": [],
      "stateMutability": "nonpayable",
      "type": "function"
    },
    {
      "inputs": [
        {
          "internalType": "bytes32",
          "name": "role",
          "type": "bytes32"
        },
        {
          "internalType": "address",
          "name": "account",
          "type": "address"
        }
      ],
      "name": "hasRole",
      "outputs": [
        {
          "internalType": "bool",
          "name": "",
          "type": "bool"
        }
      ],
      "stateMutability": "view",
      "type": "function"
    },
    {
      "inputs": [
        {
          "internalType": "uint256",
          "name": "",
          "type": "uint256"
        },
        {
          "internalType": "uint256",
          "name": "",
          "type": "uint256"
        }
      ],
      "name": "idToInsult",
      "outputs": [
        {
          "internalType": "uint256",
          "name": "id",
          "type": "uint256"
        },
        {
          "internalType": "address",
          "name": "sender",
          "type": "address"
        },
        {
          "internalType": "address",
          "name": "receiver",
          "type": "address"
        },
        {
          "internalType": "string",
          "name": "message",
          "type": "string"
        },
        {
          "internalType": "uint256",
          "name": "cost",
          "type": "uint256"
        },
        {
          "internalType": "uint256",
          "name": "timestamp",
          "type": "uint256"
        }
      ],
      "stateMutability": "view",
      "type": "function"
    },
    {
      "inputs": [
        {
          "internalType": "address",
          "name": "target",
          "type": "address"
        },
        {
          "internalType": "string",
          "name": "message",
          "type": "string"
        },
        {
          "internalType": "uint256",
          "name": "cost",
          "type": "uint256"
        }
      ],
      "name": "insult",
      "outputs": [],
      "stateMutability": "nonpayable",
      "type": "function"
    },
    {
      "inputs": [],
      "name": "insultCoin",
      "outputs": [
        {
          "internalType": "contract ERC20",
          "name": "",
          "type": "address"
        }
      ],
      "stateMutability": "view",
      "type": "function"
    },
    {
      "inputs": [],
      "name": "insultIdCount",
      "outputs": [
        {
          "internalType": "uint256",
          "name": "_value",
          "type": "uint256"
        }
      ],
      "stateMutability": "view",
      "type": "function"
    },
    {
      "inputs": [
        {
          "internalType": "address",
          "name": "",
          "type": "address"
        },
        {
          "internalType": "uint256",
          "name": "",
          "type": "uint256"
        }
      ],
      "name": "myReceivedInsults",
      "outputs": [
        {
          "internalType": "uint256",
          "name": "id",
          "type": "uint256"
        },
        {
          "internalType": "address",
          "name": "sender",
          "type": "address"
        },
        {
          "internalType": "address",
          "name": "receiver",
          "type": "address"
        },
        {
          "internalType": "string",
          "name": "message",
          "type": "string"
        },
        {
          "internalType": "uint256",
          "name": "cost",
          "type": "uint256"
        },
        {
          "internalType": "uint256",
          "name": "timestamp",
          "type": "uint256"
        }
      ],
      "stateMutability": "view",
      "type": "function"
    },
    {
      "inputs": [
        {
          "internalType": "address",
          "name": "",
          "type": "address"
        },
        {
          "internalType": "uint256",
          "name": "",
          "type": "uint256"
        }
      ],
      "name": "mySentInsults",
      "outputs": [
        {
          "internalType": "uint256",
          "name": "id",
          "type": "uint256"
        },
        {
          "internalType": "address",
          "name": "sender",
          "type": "address"
        },
        {
          "internalType": "address",
          "name": "receiver",
          "type": "address"
        },
        {
          "internalType": "string",
          "name": "message",
          "type": "string"
        },
        {
          "internalType": "uint256",
          "name": "cost",
          "type": "uint256"
        },
        {
          "internalType": "uint256",
          "name": "timestamp",
          "type": "uint256"
        }
      ],
      "stateMutability": "view",
      "type": "function"
    },
    {
      "inputs": [
        {
          "internalType": "bytes32",
          "name": "role",
          "type": "bytes32"
        },
        {
          "internalType": "address",
          "name": "account",
          "type": "address"
        }
      ],
      "name": "renounceRole",
      "outputs": [],
      "stateMutability": "nonpayable",
      "type": "function"
    },
    {
      "inputs": [
        {
          "internalType": "bytes32",
          "name": "role",
          "type": "bytes32"
        },
        {
          "internalType": "address",
          "name": "account",
          "type": "address"
        }
      ],
      "name": "revokeRole",
      "outputs": [],
      "stateMutability": "nonpayable",
      "type": "function"
    },
    {
      "inputs": [
        {
          "internalType": "bytes4",
          "name": "interfaceId",
          "type": "bytes4"
        }
      ],
      "name": "supportsInterface",
      "outputs": [
        {
          "internalType": "bool",
          "name": "",
          "type": "bool"
        }
      ],
      "stateMutability": "view",
      "type": "function"
    },
    {
      "inputs": [],
      "name": "tokensRequired",
      "outputs": [
        {
          "internalType": "uint256",
          "name": "",
          "type": "uint256"
        }
      ],
      "stateMutability": "view",
      "type": "function"
    }
  ],
  "bytecode": "0x6080604052670de0b6b3a76400006001553480156200001d57600080fd5b50604051620016eb380380620016eb833981016040819052620000409162000156565b600280546001600160a01b0319166001600160a01b038416179055620000877f66b94ad480ec0823f8a0b3535544afb3710cebd5bc6d9711751f209f2164a0a6826200008f565b5050620001ad565b6200009b82826200009f565b5050565b620000ab828262000129565b6200009b576000828152602081815260408083206001600160a01b03851684529091529020805460ff19166001179055620000e562000152565b6001600160a01b0316816001600160a01b0316837f2f8788117e7eff1d82e926ec794901d17c78024a50270940304540a733656f0d60405160405180910390a45050565b6000918252602082815260408084206001600160a01b0393909316845291905290205460ff1690565b3390565b6000806040838503121562000169578182fd5b8251620001768162000194565b6020840151909250620001898162000194565b809150509250929050565b6001600160a01b0381168114620001aa57600080fd5b50565b61152e80620001bd6000396000f3fe608060405234801561001057600080fd5b50600436106100e65760003560e01c806301ffc9a7146100eb578063209ec9eb14610114578063248a9ca3146101295780632f2ff15d1461014957806336568abe1461015c57806353b5eb431461016f57806355ec57f4146101945780635f0c4c36146101b457806389fb718a146101c757806391d14854146101da578063943f5b75146101ed578063a1a35bab14610202578063a217fddf14610215578063ad3432991461021d578063d059622d14610225578063d1008e401461022d578063d547741f14610235578063d9c58b8c14610248575b600080fd5b6100fe6100f936600461106e565b61025b565b60405161010b9190611263565b60405180910390f35b61012761012236600461102b565b610288565b005b61013c61013736600461102b565b6102ca565b60405161010b919061126e565b610127610157366004611043565b6102df565b61012761016a366004611043565b610308565b61018261017d366004610fe2565b61034e565b60405161010b969594939291906113ac565b6101a76101a2366004610f0d565b610438565b60405161010b9190611203565b6101826101c2366004610fe2565b610583565b6101276101d5366004610f27565b61059f565b6100fe6101e8366004611043565b6106f4565b6101f561071d565b60405161010b91906111cb565b6101826102103660046110ae565b61072c565b61013c610748565b61013c61074d565b61013c61075f565b61013c610765565b610127610243366004611043565b61076b565b6101a7610256366004610f0d565b61078a565b60006001600160e01b03198216637965db0b60e01b14806102805750610280826108ca565b90505b919050565b6102a06000805160206114d9833981519152336106f4565b6102c55760405162461bcd60e51b81526004016102bc906112bf565b60405180910390fd5b600155565b60009081526020819052604090206001015490565b6102e8826102ca565b6102f9816102f46108e3565b6108e7565b610303838361094b565b505050565b6103106108e3565b6001600160a01b0316816001600160a01b0316146103405760405162461bcd60e51b81526004016102bc9061134a565b61034a82826109d0565b5050565b6005602052816000526040600020818154811061036a57600080fd5b600091825260209091206006909102018054600182015460028301546003840180549396506001600160a01b039283169550911692916103a990611471565b80601f01602080910402602001604051908101604052809291908181526020018280546103d590611471565b80156104225780601f106103f757610100808354040283529160200191610422565b820191906000526020600020905b81548152906001019060200180831161040557829003601f168201915b5050505050908060040154908060050154905086565b6001600160a01b0381166000908152600460209081526040808320805482518185028101850190935280835260609492939192909184015b828210156105785760008481526020908190206040805160c081018252600686029092018054835260018101546001600160a01b03908116948401949094526002810154909316908201526003820180549192916060840191906104d390611471565b80601f01602080910402602001604051908101604052809291908181526020018280546104ff90611471565b801561054c5780601f106105215761010080835404028352916020019161054c565b820191906000526020600020905b81548152906001019060200180831161052f57829003601f168201915b505050505081526020016004820154815260200160058201548152505081526020019060010190610470565b505050509050919050565b6004602052816000526040600020818154811061036a57600080fd5b6002546040516370a0823160e01b81526001600160a01b03909116906370a08231906105cf9033906004016111cb565b60206040518083038186803b1580156105e757600080fd5b505afa1580156105fb573d6000803e3d6000fd5b505050506040513d601f19601f8201168201806040525081019061061f9190611096565b81111561063e5760405162461bcd60e51b81526004016102bc906112f6565b6001548110156106605760405162461bcd60e51b81526004016102bc90611323565b6002546040516323b872dd60e01b81526001600160a01b03909116906323b872dd90610694903390849086906004016111df565b602060405180830381600087803b1580156106ae57600080fd5b505af11580156106c2573d6000803e3d6000fd5b505050506040513d601f19601f820116820180604052508101906106e6919061100b565b506103033384848442610a53565b6000918252602082815260408084206001600160a01b0393909316845291905290205460ff1690565b6002546001600160a01b031681565b6006602052816000526040600020818154811061036a57600080fd5b600081565b6000805160206114d983398151915281565b60035481565b60015481565b610774826102ca565b610780816102f46108e3565b61030383836109d0565b6001600160a01b0381166000908152600560209081526040808320805482518185028101850190935280835260609492939192909184015b828210156105785760008481526020908190206040805160c081018252600686029092018054835260018101546001600160a01b039081169484019490945260028101549093169082015260038201805491929160608401919061082590611471565b80601f016020809104026020016040519081016040528092919081815260200182805461085190611471565b801561089e5780601f106108735761010080835404028352916020019161089e565b820191906000526020600020905b81548152906001019060200180831161088157829003601f168201915b5050505050815260200160048201548152602001600582015481525050815260200190600101906107c2565b6001600160e01b031981166301ffc9a760e01b14919050565b3390565b6108f182826106f4565b61034a57610909816001600160a01b03166014610c98565b610914836020610c98565b60405160200161092592919061115c565b60408051601f198184030181529082905262461bcd60e51b82526102bc91600401611277565b61095582826106f4565b61034a576000828152602081815260408083206001600160a01b03851684529091529020805460ff1916600117905561098c6108e3565b6001600160a01b0316816001600160a01b0316837f2f8788117e7eff1d82e926ec794901d17c78024a50270940304540a733656f0d60405160405180910390a45050565b6109da82826106f4565b1561034a576000828152602081815260408083206001600160a01b03851684529091529020805460ff19169055610a0f6108e3565b6001600160a01b0316816001600160a01b0316837ff6391f5c32d9c69d2a47ea670b442974b53935d1edc7fd64eb21e047a839171b60405160405180910390a45050565b6000610a5f6003610e50565b9050610a6b6003610e54565b6040805160c0810182528281526001600160a01b0380891660208084018281528a8416858701908152606086018b8152608087018b905260a087018a9052600094855260048452968420805460018181018355918652948490208751600690960201948555915191840180549286166001600160a01b0319938416179055516002840180549190951691161790925592518051929384939092610b15926003850192910190610e5d565b506080820151600482015560a0909101516005918201556001600160a01b038088166000908152602092835260408082208054600181810183559184529285902086516006909402019283558585015190830180549185166001600160a01b03199283161790559085015160028301805491909416911617909155606083015180518493610baa926003850192910190610e5d565b506080820151600482015560a0909101516005909101556000828152600660208181526040808420805460018181018355918652948390208651959094029093019384558482015192840180546001600160a01b039485166001600160a01b031991821617909155908501516002850180549190941691161790915560608301518051849392610c41926003850192910190610e5d565b506080820151816004015560a0820151816005015550507f5d5f7b27b0afabe71b412da783b418c1aa24291f06e69b5e087f0eb5882a53ff81604051610c879190611399565b60405180910390a150505050505050565b60606000610ca783600261140b565b610cb29060026113f3565b6001600160401b03811115610cd757634e487b7160e01b600052604160045260246000fd5b6040519080825280601f01601f191660200182016040528015610d01576020820181803683370190505b509050600360fc1b81600081518110610d2a57634e487b7160e01b600052603260045260246000fd5b60200101906001600160f81b031916908160001a905350600f60fb1b81600181518110610d6757634e487b7160e01b600052603260045260246000fd5b60200101906001600160f81b031916908160001a9053506000610d8b84600261140b565b610d969060016113f3565b90505b6001811115610e2a576f181899199a1a9b1b9c1cb0b131b232b360811b85600f1660108110610dd857634e487b7160e01b600052603260045260246000fd5b1a60f81b828281518110610dfc57634e487b7160e01b600052603260045260246000fd5b60200101906001600160f81b031916908160001a90535060049490941c93610e238161145a565b9050610d99565b508315610e495760405162461bcd60e51b81526004016102bc9061128a565b9392505050565b5490565b80546001019055565b828054610e6990611471565b90600052602060002090601f016020900481019282610e8b5760008555610ed1565b82601f10610ea457805160ff1916838001178555610ed1565b82800160010185558215610ed1579182015b82811115610ed1578251825591602001919060010190610eb6565b50610edd929150610ee1565b5090565b5b80821115610edd5760008155600101610ee2565b80356001600160a01b038116811461028357600080fd5b600060208284031215610f1e578081fd5b610e4982610ef6565b600080600060608486031215610f3b578182fd5b610f4484610ef6565b92506020848101356001600160401b0380821115610f60578485fd5b818701915087601f830112610f73578485fd5b813581811115610f8557610f856114c2565b604051601f8201601f1916810185018381118282101715610fa857610fa86114c2565b60405281815283820185018a1015610fbe578687fd5b81858501868301379081019093019490945250929592945050506040919091013590565b60008060408385031215610ff4578182fd5b610ffd83610ef6565b946020939093013593505050565b60006020828403121561101c578081fd5b81518015158114610e49578182fd5b60006020828403121561103c578081fd5b5035919050565b60008060408385031215611055578182fd5b8235915061106560208401610ef6565b90509250929050565b60006020828403121561107f578081fd5b81356001600160e01b031981168114610e49578182fd5b6000602082840312156110a7578081fd5b5051919050565b600080604083850312156110c0578182fd5b50508035926020909101359150565b600081518084526110e781602086016020860161142a565b601f01601f19169290920160200192915050565b600081518352602082015160018060a01b0380821660208601528060408501511660408601525050606082015160c0606085015261113c60c08501826110cf565b90506080830151608085015260a083015160a08501528091505092915050565b600076020b1b1b2b9b9a1b7b73a3937b61d1030b1b1b7bab73a1604d1b8252835161118e81601785016020880161142a565b7001034b99036b4b9b9b4b733903937b6329607d1b60179184019182015283516111bf81602884016020880161142a565b01602801949350505050565b6001600160a01b0391909116815260200190565b6001600160a01b039384168152919092166020820152604081019190915260600190565b6000602080830181845280855180835260408601915060408482028701019250838701855b8281101561125657603f198886030184526112448583516110fb565b94509285019290850190600101611228565b5092979650505050505050565b901515815260200190565b90815260200190565b600060208252610e4960208301846110cf565b6020808252818101527f537472696e67733a20686578206c656e67746820696e73756666696369656e74604082015260600190565b6020808252601e908201527f556e617574686f72697a65642c206e6f742066756e64206d616e616765720000604082015260600190565b602080825260139082015272636f7374203e20796f75722062616c616e636560681b604082015260600190565b6020808252600d908201526c151bdbc81b1a5d1d1b19480909609a1b604082015260600190565b6020808252602f908201527f416363657373436f6e74726f6c3a2063616e206f6e6c792072656e6f756e636560408201526e103937b632b9903337b91039b2b63360891b606082015260800190565b600060208252610e4960208301846110fb565b8681526001600160a01b0386811660208301528516604082015260c0606082018190526000906113de908301866110cf565b60808301949094525060a00152949350505050565b60008219821115611406576114066114ac565b500190565b6000816000190483118215151615611425576114256114ac565b500290565b60005b8381101561144557818101518382015260200161142d565b83811115611454576000848401525b50505050565b600081611469576114696114ac565b506000190190565b60028104600182168061148557607f821691505b602082108114156114a657634e487b7160e01b600052602260045260246000fd5b50919050565b634e487b7160e01b600052601160045260246000fd5b634e487b7160e01b600052604160045260246000fdfe66b94ad480ec0823f8a0b3535544afb3710cebd5bc6d9711751f209f2164a0a6a2646970667358221220fbf849e48bb4b1db9b2cd0959ae3a63bdc12bfb00c317b4c4d2c3d6002b338c864736f6c63430008000033",
  "linkReferences": {},
  "deployedLinkReferences": {}
}