{
  "_format": "hh-sol-artifact-1",
  "contractName": "TokenVesting",
  "sourceName": "contracts/optional/Vesting.sol",
  "abi": [
    {
      "inputs": [
        {
          "internalType": "address",
          "name": "_beneficiary",
          "type": "address"
        },
        {
          "internalType": "uint256",
          "name": "_cliff",
          "type": "uint256"
        },
        {
          "internalType": "uint256",
          "name": "_duration",
          "type": "uint256"
        },
        {
          "internalType": "bool",
          "name": "_revocable",
          "type": "bool"
        }
      ],
      "stateMutability": "nonpayable",
      "type": "constructor"
    },
    {
      "anonymous": false,
      "inputs": [
        {
          "indexed": true,
          "internalType": "address",
          "name": "previousOwner",
          "type": "address"
        },
        {
          "indexed": true,
          "internalType": "address",
          "name": "newOwner",
          "type": "address"
        }
      ],
      "name": "OwnershipTransferred",
      "type": "event"
    },
    {
      "anonymous": false,
      "inputs": [
        {
          "indexed": false,
          "internalType": "uint256",
          "name": "amount",
          "type": "uint256"
        }
      ],
      "name": "Released",
      "type": "event"
    },
    {
      "anonymous": false,
      "inputs": [],
      "name": "Revoked",
      "type": "event"
    },
    {
      "inputs": [],
      "name": "beneficiary",
      "outputs": [
        {
          "internalType": "address",
          "name": "",
          "type": "address"
        }
      ],
      "stateMutability": "view",
      "type": "function"
    },
    {
      "inputs": [],
      "name": "cliff",
      "outputs": [
        {
          "internalType": "uint256",
          "name": "",
          "type": "uint256"
        }
      ],
      "stateMutability": "view",
      "type": "function"
    },
    {
      "inputs": [],
      "name": "duration",
      "outputs": [
        {
          "internalType": "uint256",
          "name": "",
          "type": "uint256"
        }
      ],
      "stateMutability": "view",
      "type": "function"
    },
    {
      "inputs": [],
      "name": "owner",
      "outputs": [
        {
          "internalType": "address",
          "name": "",
          "type": "address"
        }
      ],
      "stateMutability": "view",
      "type": "function"
    },
    {
      "inputs": [
        {
          "internalType": "contract ERC20",
          "name": "token",
          "type": "address"
        }
      ],
      "name": "releasableAmount",
      "outputs": [
        {
          "internalType": "uint256",
          "name": "",
          "type": "uint256"
        }
      ],
      "stateMutability": "view",
      "type": "function"
    },
    {
      "inputs": [
        {
          "internalType": "contract ERC20",
          "name": "token",
          "type": "address"
        }
      ],
      "name": "release",
      "outputs": [],
      "stateMutability": "nonpayable",
      "type": "function"
    },
    {
      "inputs": [
        {
          "internalType": "address",
          "name": "",
          "type": "address"
        }
      ],
      "name": "released",
      "outputs": [
        {
          "internalType": "uint256",
          "name": "",
          "type": "uint256"
        }
      ],
      "stateMutability": "view",
      "type": "function"
    },
    {
      "inputs": [],
      "name": "renounceOwnership",
      "outputs": [],
      "stateMutability": "nonpayable",
      "type": "function"
    },
    {
      "inputs": [],
      "name": "revocable",
      "outputs": [
        {
          "internalType": "bool",
          "name": "",
          "type": "bool"
        }
      ],
      "stateMutability": "view",
      "type": "function"
    },
    {
      "inputs": [
        {
          "internalType": "contract ERC20",
          "name": "token",
          "type": "address"
        }
      ],
      "name": "revoke",
      "outputs": [],
      "stateMutability": "nonpayable",
      "type": "function"
    },
    {
      "inputs": [
        {
          "internalType": "address",
          "name": "",
          "type": "address"
        }
      ],
      "name": "revoked",
      "outputs": [
        {
          "internalType": "bool",
          "name": "",
          "type": "bool"
        }
      ],
      "stateMutability": "view",
      "type": "function"
    },
    {
      "inputs": [],
      "name": "start",
      "outputs": [
        {
          "internalType": "uint256",
          "name": "",
          "type": "uint256"
        }
      ],
      "stateMutability": "view",
      "type": "function"
    },
    {
      "inputs": [
        {
          "internalType": "address",
          "name": "newOwner",
          "type": "address"
        }
      ],
      "name": "transferOwnership",
      "outputs": [],
      "stateMutability": "nonpayable",
      "type": "function"
    },
    {
      "inputs": [
        {
          "internalType": "contract ERC20",
          "name": "token",
          "type": "address"
        },
        {
          "internalType": "uint256",
          "name": "timestamp",
          "type": "uint256"
        }
      ],
      "name": "vestedAmount",
      "outputs": [
        {
          "internalType": "uint256",
          "name": "",
          "type": "uint256"
        }
      ],
      "stateMutability": "view",
      "type": "function"
    }
  ],
  "bytecode": "0x608060405234801561001057600080fd5b50604051610dba380380610dba83398101604081905261002f916100f0565b60006100396100ec565b600080546001600160a01b0319166001600160a01b0383169081178255604051929350917f8be0079c531659141344cd1fd0a4f28419497f9722a3daafe3b4186f6b6457e0908290a3506001600160a01b03841661009657600080fd5b818311156100a357600080fd5b600180546001600160a01b0319166001600160a01b0386161790556005805460ff19168215151790556004829055426100dc848261014a565b6002556003555061016e92505050565b3390565b60008060008060808587031215610105578384fd5b84516001600160a01b038116811461011b578485fd5b8094505060208501519250604085015191506060850151801515811461013f578182fd5b939692955090935050565b6000821982111561016957634e487b7160e01b81526011600452602481fd5b500190565b610c3d8061017d6000396000f3fe608060405234801561001057600080fd5b50600436106100ba5760003560e01c80630fb5a6b4146100bf57806313d033c0146100dd5780631726cbc8146100e557806317cf5391146100f8578063191655871461010b57806338af3eed14610120578063715018a61461013557806374a8f1031461013d578063872a7810146101505780638da5cb5b146101655780639852595c1461016d578063be9a655514610180578063f2fde38b14610188578063fa01dc061461019b575b600080fd5b6100c76101ae565b6040516100d49190610b16565b60405180910390f35b6100c76101b4565b6100c76100f33660046108ce565b6101ba565b6100c761010636600461090a565b6101ed565b61011e6101193660046108ce565b61031b565b005b6101286103cb565b6040516100d49190610969565b61011e6103da565b61011e61014b3660046108ce565b61045a565b6101586105d5565b6040516100d49190610996565b6101286105de565b6100c761017b3660046108ce565b6105ed565b6100c76105ff565b61011e6101963660046108ce565b610605565b6101586101a93660046108ce565b6106b3565b60045481565b60025481565b6001600160a01b0381166000908152600660205260408120546101dd83426101ed565b6101e79190610b76565b92915050565b600080836001600160a01b03166370a08231306040518263ffffffff1660e01b815260040161021c9190610969565b60206040518083038186803b15801561023457600080fd5b505afa158015610248573d6000803e3d6000fd5b505050506040513d601f19601f8201168201806040525081019061026c9190610935565b6001600160a01b038516600090815260066020526040812054919250906102939083610b1f565b90506002548410156102aa576000925050506101e7565b6004546003546102ba9190610b1f565b841015806102e057506001600160a01b03851660009081526007602052604090205460ff165b156102ee5791506101e79050565b6004546003546102fe9086610b76565b6103089083610b57565b6103129190610b37565b95945050505050565b6000610326826101ba565b90506000811161033557600080fd5b6001600160a01b038216600090815260066020526040902054610359908290610b1f565b6001600160a01b0383166000908152600660205260409081902091909155517ffb81f9b30d73d830c3544b34d827c08142579ee75710b490bab0b3995468c565906103a5908390610b16565b60405180910390a16001546103c7906001600160a01b038481169116836106c8565b5050565b6001546001600160a01b031681565b6103e2610723565b6001600160a01b03166103f36105de565b6001600160a01b0316146104225760405162461bcd60e51b815260040161041990610a60565b60405180910390fd5b600080546040516001600160a01b0390911690600080516020610be8833981519152908390a3600080546001600160a01b0319169055565b610462610723565b6001600160a01b03166104736105de565b6001600160a01b0316146104995760405162461bcd60e51b815260040161041990610a60565b60055460ff166104a857600080fd5b6001600160a01b03811660009081526007602052604090205460ff16156104ce57600080fd5b6040516370a0823160e01b81526000906001600160a01b038316906370a08231906104fd903090600401610969565b60206040518083038186803b15801561051557600080fd5b505afa158015610529573d6000803e3d6000fd5b505050506040513d601f19601f8201168201806040525081019061054d9190610935565b9050600061055a836101ba565b905060006105688284610b76565b6001600160a01b038516600090815260076020526040808220805460ff19166001179055519192507f44825a4b2df8acb19ce4e1afba9aa850c8b65cdb7942e2078f27d0b0960efee691a16105cf6105be6105de565b6001600160a01b03861690836106c8565b50505050565b60055460ff1681565b6000546001600160a01b031690565b60066020526000908152604090205481565b60035481565b61060d610723565b6001600160a01b031661061e6105de565b6001600160a01b0316146106445760405162461bcd60e51b815260040161041990610a60565b6001600160a01b03811661066a5760405162461bcd60e51b8152600401610419906109d4565b600080546040516001600160a01b0380851693921691600080516020610be883398151915291a3600080546001600160a01b0319166001600160a01b0392909216919091179055565b60076020526000908152604090205460ff1681565b61071e8363a9059cbb60e01b84846040516024016106e792919061097d565b60408051601f198184030181529190526020810180516001600160e01b03166001600160e01b031990931692909217909152610727565b505050565b3390565b600061077c826040518060400160405280602081526020017f5361666545524332303a206c6f772d6c6576656c2063616c6c206661696c6564815250856001600160a01b03166107b69092919063ffffffff16565b80519091501561071e578080602001905181019061079a91906108ea565b61071e5760405162461bcd60e51b815260040161041990610acc565b60606107c584846000856107cf565b90505b9392505050565b6060824710156107f15760405162461bcd60e51b815260040161041990610a1a565b6107fa8561088f565b6108165760405162461bcd60e51b815260040161041990610a95565b600080866001600160a01b03168587604051610832919061094d565b60006040518083038185875af1925050503d806000811461086f576040519150601f19603f3d011682016040523d82523d6000602084013e610874565b606091505b5091509150610884828286610895565b979650505050505050565b3b151590565b606083156108a45750816107c8565b8251156108b45782518084602001fd5b8160405162461bcd60e51b815260040161041991906109a1565b6000602082840312156108df578081fd5b81356107c881610bcf565b6000602082840312156108fb578081fd5b815180151581146107c8578182fd5b6000806040838503121561091c578081fd5b823561092781610bcf565b946020939093013593505050565b600060208284031215610946578081fd5b5051919050565b6000825161095f818460208701610b8d565b9190910192915050565b6001600160a01b0391909116815260200190565b6001600160a01b03929092168252602082015260400190565b901515815260200190565b60006020825282518060208401526109c0816040850160208701610b8d565b601f01601f19169190910160400192915050565b60208082526026908201527f4f776e61626c653a206e6577206f776e657220697320746865207a65726f206160408201526564647265737360d01b606082015260800190565b60208082526026908201527f416464726573733a20696e73756666696369656e742062616c616e636520666f6040820152651c8818d85b1b60d21b606082015260800190565b6020808252818101527f4f776e61626c653a2063616c6c6572206973206e6f7420746865206f776e6572604082015260600190565b6020808252601d908201527f416464726573733a2063616c6c20746f206e6f6e2d636f6e7472616374000000604082015260600190565b6020808252602a908201527f5361666545524332303a204552433230206f7065726174696f6e20646964206e6040820152691bdd081cdd58d8d9595960b21b606082015260800190565b90815260200190565b60008219821115610b3257610b32610bb9565b500190565b600082610b5257634e487b7160e01b81526012600452602481fd5b500490565b6000816000190483118215151615610b7157610b71610bb9565b500290565b600082821015610b8857610b88610bb9565b500390565b60005b83811015610ba8578181015183820152602001610b90565b838111156105cf5750506000910152565b634e487b7160e01b600052601160045260246000fd5b6001600160a01b0381168114610be457600080fd5b5056fe8be0079c531659141344cd1fd0a4f28419497f9722a3daafe3b4186f6b6457e0a26469706673582212205f12d4a437521b2edb33168145675d8da540581a2579d0b17870ab6ba3f0068c64736f6c63430008000033",
  "linkReferences": {},
  "deployedLinkReferences": {}
}