{
  "_format": "hh-sol-artifact-1",
  "contractName": "Token",
  "sourceName": "contracts/Token.sol",
  "abi": [
    {
      "inputs": [
        {
          "internalType": "string",
          "name": "_name",
          "type": "string"
        },
        {
          "internalType": "string",
          "name": "_symbol",
          "type": "string"
        },
        {
          "internalType": "uint256",
          "name": "_totalSupply",
          "type": "uint256"
        },
        {
          "internalType": "address",
          "name": "owner",
          "type": "address"
        },
        {
          "internalType": "address",
          "name": "fundman",
          "type": "address"
        },
        {
          "internalType": "address[]",
          "name": "minters",
          "type": "address[]"
        },
        {
          "internalType": "address[]",
          "name": "moderators",
          "type": "address[]"
        },
        {
          "internalType": "bool",
          "name": "usingDeployCtr",
          "type": "bool"
        }
      ],
      "stateMutability": "nonpayable",
      "type": "constructor"
    },
    {
      "anonymous": false,
      "inputs": [
        {
          "indexed": true,
          "internalType": "address",
          "name": "owner",
          "type": "address"
        },
        {
          "indexed": true,
          "internalType": "address",
          "name": "spender",
          "type": "address"
        },
        {
          "indexed": false,
          "internalType": "uint256",
          "name": "value",
          "type": "uint256"
        }
      ],
      "name": "Approval",
      "type": "event"
    },
    {
      "anonymous": false,
      "inputs": [
        {
          "indexed": true,
          "internalType": "bytes32",
          "name": "role",
          "type": "bytes32"
        },
        {
          "indexed": true,
          "internalType": "bytes32",
          "name": "previousAdminRole",
          "type": "bytes32"
        },
        {
          "indexed": true,
          "internalType": "bytes32",
          "name": "newAdminRole",
          "type": "bytes32"
        }
      ],
      "name": "RoleAdminChanged",
      "type": "event"
    },
    {
      "anonymous": false,
      "inputs": [
        {
          "indexed": true,
          "internalType": "bytes32",
          "name": "role",
          "type": "bytes32"
        },
        {
          "indexed": true,
          "internalType": "address",
          "name": "account",
          "type": "address"
        },
        {
          "indexed": true,
          "internalType": "address",
          "name": "sender",
          "type": "address"
        }
      ],
      "name": "RoleGranted",
      "type": "event"
    },
    {
      "anonymous": false,
      "inputs": [
        {
          "indexed": true,
          "internalType": "bytes32",
          "name": "role",
          "type": "bytes32"
        },
        {
          "indexed": true,
          "internalType": "address",
          "name": "account",
          "type": "address"
        },
        {
          "indexed": true,
          "internalType": "address",
          "name": "sender",
          "type": "address"
        }
      ],
      "name": "RoleRevoked",
      "type": "event"
    },
    {
      "anonymous": false,
      "inputs": [
        {
          "indexed": true,
          "internalType": "address",
          "name": "from",
          "type": "address"
        },
        {
          "indexed": true,
          "internalType": "address",
          "name": "to",
          "type": "address"
        },
        {
          "indexed": false,
          "internalType": "uint256",
          "name": "value",
          "type": "uint256"
        }
      ],
      "name": "Transfer",
      "type": "event"
    },
    {
      "inputs": [],
      "name": "DEFAULT_ADMIN_ROLE",
      "outputs": [
        {
          "internalType": "bytes32",
          "name": "",
          "type": "bytes32"
        }
      ],
      "stateMutability": "view",
      "type": "function"
    },
    {
      "inputs": [],
      "name": "FUNDMAN",
      "outputs": [
        {
          "internalType": "bytes32",
          "name": "",
          "type": "bytes32"
        }
      ],
      "stateMutability": "view",
      "type": "function"
    },
    {
      "inputs": [],
      "name": "MINTER",
      "outputs": [
        {
          "internalType": "bytes32",
          "name": "",
          "type": "bytes32"
        }
      ],
      "stateMutability": "view",
      "type": "function"
    },
    {
      "inputs": [],
      "name": "MODERATOR",
      "outputs": [
        {
          "internalType": "bytes32",
          "name": "",
          "type": "bytes32"
        }
      ],
      "stateMutability": "view",
      "type": "function"
    },
    {
      "inputs": [
        {
          "internalType": "address",
          "name": "owner",
          "type": "address"
        },
        {
          "internalType": "address",
          "name": "spender",
          "type": "address"
        }
      ],
      "name": "allowance",
      "outputs": [
        {
          "internalType": "uint256",
          "name": "",
          "type": "uint256"
        }
      ],
      "stateMutability": "view",
      "type": "function"
    },
    {
      "inputs": [
        {
          "internalType": "address",
          "name": "spender",
          "type": "address"
        },
        {
          "internalType": "uint256",
          "name": "amount",
          "type": "uint256"
        }
      ],
      "name": "approve",
      "outputs": [
        {
          "internalType": "bool",
          "name": "",
          "type": "bool"
        }
      ],
      "stateMutability": "nonpayable",
      "type": "function"
    },
    {
      "inputs": [
        {
          "internalType": "address",
          "name": "account",
          "type": "address"
        }
      ],
      "name": "balanceOf",
      "outputs": [
        {
          "internalType": "uint256",
          "name": "",
          "type": "uint256"
        }
      ],
      "stateMutability": "view",
      "type": "function"
    },
    {
      "inputs": [],
      "name": "decimals",
      "outputs": [
        {
          "internalType": "uint8",
          "name": "",
          "type": "uint8"
        }
      ],
      "stateMutability": "view",
      "type": "function"
    },
    {
      "inputs": [
        {
          "internalType": "address",
          "name": "spender",
          "type": "address"
        },
        {
          "internalType": "uint256",
          "name": "subtractedValue",
          "type": "uint256"
        }
      ],
      "name": "decreaseAllowance",
      "outputs": [
        {
          "internalType": "bool",
          "name": "",
          "type": "bool"
        }
      ],
      "stateMutability": "nonpayable",
      "type": "function"
    },
    {
      "inputs": [
        {
          "internalType": "bytes32",
          "name": "role",
          "type": "bytes32"
        }
      ],
      "name": "getRoleAdmin",
      "outputs": [
        {
          "internalType": "bytes32",
          "name": "",
          "type": "bytes32"
        }
      ],
      "stateMutability": "view",
      "type": "function"
    },
    {
      "inputs": [
        {
          "internalType": "bytes32",
          "name": "role",
          "type": "bytes32"
        },
        {
          "internalType": "address",
          "name": "account",
          "type": "address"
        }
      ],
      "name": "grantRole",
      "outputs": [],
      "stateMutability": "nonpayable",
      "type": "function"
    },
    {
      "inputs": [
        {
          "internalType": "bytes32",
          "name": "role",
          "type": "bytes32"
        },
        {
          "internalType": "address",
          "name": "account",
          "type": "address"
        }
      ],
      "name": "hasRole",
      "outputs": [
        {
          "internalType": "bool",
          "name": "",
          "type": "bool"
        }
      ],
      "stateMutability": "view",
      "type": "function"
    },
    {
      "inputs": [
        {
          "internalType": "address",
          "name": "spender",
          "type": "address"
        },
        {
          "internalType": "uint256",
          "name": "addedValue",
          "type": "uint256"
        }
      ],
      "name": "increaseAllowance",
      "outputs": [
        {
          "internalType": "bool",
          "name": "",
          "type": "bool"
        }
      ],
      "stateMutability": "nonpayable",
      "type": "function"
    },
    {
      "inputs": [
        {
          "internalType": "address",
          "name": "addr",
          "type": "address"
        },
        {
          "internalType": "uint256",
          "name": "amount",
          "type": "uint256"
        }
      ],
      "name": "mint",
      "outputs": [],
      "stateMutability": "nonpayable",
      "type": "function"
    },
    {
      "inputs": [],
      "name": "name",
      "outputs": [
        {
          "internalType": "string",
          "name": "",
          "type": "string"
        }
      ],
      "stateMutability": "view",
      "type": "function"
    },
    {
      "inputs": [
        {
          "internalType": "address",
          "name": "",
          "type": "address"
        }
      ],
      "name": "paused",
      "outputs": [
        {
          "internalType": "bool",
          "name": "",
          "type": "bool"
        }
      ],
      "stateMutability": "view",
      "type": "function"
    },
    {
      "inputs": [],
      "name": "pausedAll",
      "outputs": [
        {
          "internalType": "bool",
          "name": "",
          "type": "bool"
        }
      ],
      "stateMutability": "view",
      "type": "function"
    },
    {
      "inputs": [
        {
          "internalType": "bytes32",
          "name": "role",
          "type": "bytes32"
        },
        {
          "internalType": "address",
          "name": "account",
          "type": "address"
        }
      ],
      "name": "renounceRole",
      "outputs": [],
      "stateMutability": "nonpayable",
      "type": "function"
    },
    {
      "inputs": [
        {
          "internalType": "bytes32",
          "name": "role",
          "type": "bytes32"
        },
        {
          "internalType": "address",
          "name": "account",
          "type": "address"
        }
      ],
      "name": "revokeRole",
      "outputs": [],
      "stateMutability": "nonpayable",
      "type": "function"
    },
    {
      "inputs": [
        {
          "internalType": "address",
          "name": "addr",
          "type": "address"
        },
        {
          "internalType": "bool",
          "name": "toggle",
          "type": "bool"
        }
      ],
      "name": "setPause",
      "outputs": [],
      "stateMutability": "nonpayable",
      "type": "function"
    },
    {
      "inputs": [
        {
          "internalType": "bool",
          "name": "toggle",
          "type": "bool"
        }
      ],
      "name": "setPauseAll",
      "outputs": [],
      "stateMutability": "nonpayable",
      "type": "function"
    },
    {
      "inputs": [
        {
          "internalType": "bytes4",
          "name": "interfaceId",
          "type": "bytes4"
        }
      ],
      "name": "supportsInterface",
      "outputs": [
        {
          "internalType": "bool",
          "name": "",
          "type": "bool"
        }
      ],
      "stateMutability": "view",
      "type": "function"
    },
    {
      "inputs": [],
      "name": "symbol",
      "outputs": [
        {
          "internalType": "string",
          "name": "",
          "type": "string"
        }
      ],
      "stateMutability": "view",
      "type": "function"
    },
    {
      "inputs": [],
      "name": "totalSupply",
      "outputs": [
        {
          "internalType": "uint256",
          "name": "",
          "type": "uint256"
        }
      ],
      "stateMutability": "view",
      "type": "function"
    },
    {
      "inputs": [
        {
          "internalType": "address",
          "name": "recipient",
          "type": "address"
        },
        {
          "internalType": "uint256",
          "name": "amount",
          "type": "uint256"
        }
      ],
      "name": "transfer",
      "outputs": [
        {
          "internalType": "bool",
          "name": "",
          "type": "bool"
        }
      ],
      "stateMutability": "nonpayable",
      "type": "function"
    },
    {
      "inputs": [
        {
          "internalType": "address",
          "name": "sender",
          "type": "address"
        },
        {
          "internalType": "address",
          "name": "recipient",
          "type": "address"
        },
        {
          "internalType": "uint256",
          "name": "amount",
          "type": "uint256"
        }
      ],
      "name": "transferFrom",
      "outputs": [
        {
          "internalType": "bool",
          "name": "",
          "type": "bool"
        }
      ],
      "stateMutability": "nonpayable",
      "type": "function"
    },
    {
      "inputs": [
        {
          "internalType": "address",
          "name": "receiver",
          "type": "address"
        },
        {
          "internalType": "uint256",
          "name": "amount",
          "type": "uint256"
        }
      ],
      "name": "withdraw",
      "outputs": [],
      "stateMutability": "nonpayable",
      "type": "function"
    }
  ],
  "bytecode": "0x60806040526007805460ff191690553480156200001b57600080fd5b506040516200204d3803806200204d8339810160408190526200003e9162000622565b875188908890620000579060039060208501906200042a565b5080516200006d9060049060208401906200042a565b505050620000823087620001bc60201b60201c565b8015620000b1576200009660003362000290565b620000b16000805160206200200d8339815191523362000290565b620000be60008662000290565b620000d96000805160206200200d8339815191528562000290565b60005b83518110156200015557620001407ff0887ba65ee2024ea881d91b74c2450ef19e1557f03bed3ea9f16b037cbe2dc98583815181106200012c57634e487b7160e01b600052603260045260246000fd5b60200260200101516200029060201b60201c565b806200014c816200084a565b915050620000dc565b5060005b8251811015620001ad57620001986000805160206200202d8339815191528483815181106200012c57634e487b7160e01b600052603260045260246000fd5b80620001a4816200084a565b91505062000159565b50505050505050505062000894565b6001600160a01b038216620001ee5760405162461bcd60e51b8152600401620001e59062000786565b60405180910390fd5b620001fc60008383620002a0565b8060026000828254620002109190620007f2565b90915550506001600160a01b038216600090815260208190526040812080548392906200023f908490620007f2565b90915550506040516001600160a01b038316906000907fddf252ad1be2c89b69c2b068fc378daa952ba7f163c4a11628f55a4df523b3ef9062000284908590620007bd565b60405180910390a35050565b6200029c82826200036f565b5050565b60075460ff161580620002cf5750620002c96000805160206200202d83398151915284620003fb565b15156001145b620002ee5760405162461bcd60e51b8152600401620001e59062000718565b6001600160a01b03831660009081526006602052604090205460ff1615806200033357506200032d6000805160206200202d83398151915284620003fb565b15156001145b620003525760405162461bcd60e51b8152600401620001e5906200074f565b6200036a8383836200036a60201b620004fb1760201c565b505050565b6200037b8282620003fb565b6200029c5760008281526005602090815260408083206001600160a01b03851684529091529020805460ff19166001179055620003b762000426565b6001600160a01b0316816001600160a01b0316837f2f8788117e7eff1d82e926ec794901d17c78024a50270940304540a733656f0d60405160405180910390a45050565b60009182526005602090815260408084206001600160a01b0393909316845291905290205460ff1690565b3390565b82805462000438906200080d565b90600052602060002090601f0160209004810192826200045c5760008555620004a7565b82601f106200047757805160ff1916838001178555620004a7565b82800160010185558215620004a7579182015b82811115620004a75782518255916020019190600101906200048a565b50620004b5929150620004b9565b5090565b5b80821115620004b55760008155600101620004ba565b80516001600160a01b0381168114620004e857600080fd5b919050565b600082601f830112620004fe578081fd5b815160206001600160401b038211156200051c576200051c6200087e565b8082026200052c828201620007c6565b83815282810190868401838801850189101562000547578687fd5b8693505b8584101562000574576200055f81620004d0565b8352600193909301929184019184016200054b565b50979650505050505050565b80518015158114620004e857600080fd5b600082601f830112620005a2578081fd5b81516001600160401b03811115620005be57620005be6200087e565b6020620005d4601f8301601f19168201620007c6565b8281528582848701011115620005e8578384fd5b835b8381101562000607578581018301518282018401528201620005ea565b838111156200061857848385840101525b5095945050505050565b600080600080600080600080610100898b0312156200063f578384fd5b88516001600160401b038082111562000656578586fd5b620006648c838d0162000591565b995060208b01519150808211156200067a578586fd5b620006888c838d0162000591565b985060408b015197506200069f60608c01620004d0565b9650620006af60808c01620004d0565b955060a08b0151915080821115620006c5578485fd5b620006d38c838d01620004ed565b945060c08b0151915080821115620006e9578384fd5b50620006f88b828c01620004ed565b9250506200070960e08a0162000580565b90509295985092959890939650565b60208082526015908201527f496e73756c74436f696e206973207061757365642e0000000000000000000000604082015260600190565b60208082526017908201527f596f7572206163636f756e74206973207061757365642e000000000000000000604082015260600190565b6020808252601f908201527f45524332303a206d696e7420746f20746865207a65726f206164647265737300604082015260600190565b90815260200190565b6040518181016001600160401b0381118282101715620007ea57620007ea6200087e565b604052919050565b6000821982111562000808576200080862000868565b500190565b6002810460018216806200082257607f821691505b602082108114156200084457634e487b7160e01b600052602260045260246000fd5b50919050565b600060001982141562000861576200086162000868565b5060010190565b634e487b7160e01b600052601160045260246000fd5b634e487b7160e01b600052604160045260246000fd5b61176980620008a46000396000f3fe608060405234801561001057600080fd5b50600436106101495760003560e01c806301ffc9a71461014e57806306fdde0314610177578063095ea7b31461018c57806318160ddd1461019f57806323b872dd146101b4578063248a9ca3146101c75780632e48152c146101da5780632f2ff15d146101ed578063313ce5671461020257806334b4e6251461021757806336568abe1461021f57806339509351146102325780633fd629c21461024557806340c10f191461025857806370a082311461026b57806391d148541461027e57806395d89b41146102915780639be6390e14610299578063a217fddf146102a1578063a457c2d7146102a9578063a9059cbb146102bc578063ad343299146102cf578063c22dc722146102d7578063d547741f146102ea578063dd62ed3e146102fd578063f3fef3a314610310578063fe6d812414610323575b600080fd5b61016161015c3660046110c4565b61032b565b60405161016e9190611174565b60405180910390f35b61017f610358565b60405161016e9190611188565b61016161019a366004611029565b6103ea565b6101a7610407565b60405161016e919061117f565b6101616101c2366004610fb8565b61040d565b6101a76101d536600461108a565b6104ad565b6101616101e8366004610f6c565b6104c2565b6102006101fb3660046110a2565b6104d7565b005b61020a610500565b60405161016e91906115ae565b6101a7610505565b61020061022d3660046110a2565b610517565b610161610240366004611029565b61055d565b610200610253366004611052565b6105ac565b610200610266366004611029565b6105f3565b6101a7610279366004610f6c565b610657565b61016161028c3660046110a2565b610672565b61017f61069d565b6101616106ac565b6101a76106b5565b6101616102b7366004611029565b6106ba565b6101616102ca366004611029565b610735565b6101a7610749565b6102006102e5366004610ff3565b61075b565b6102006102f83660046110a2565b6107ba565b6101a761030b366004610f86565b6107d9565b61020061031e366004611029565b610804565b6101a76108d7565b60006001600160e01b03198216637965db0b60e01b14806103505750610350826108e9565b90505b919050565b60606003805461036790611651565b80601f016020809104026020016040519081016040528092919081815260200182805461039390611651565b80156103e05780601f106103b5576101008083540402835291602001916103e0565b820191906000526020600020905b8154815290600101906020018083116103c357829003601f168201915b5050505050905090565b60006103fe6103f7610902565b8484610906565b50600192915050565b60025490565b600061041a8484846109ba565b6001600160a01b03841660009081526001602052604081208161043b610902565b6001600160a01b03166001600160a01b03168152602001908152602001600020549050828110156104875760405162461bcd60e51b815260040161047e9061137c565b60405180910390fd5b6104a285610493610902565b61049d86856115f3565b610906565b506001949350505050565b60009081526005602052604090206001015490565b60066020526000908152604090205460ff1681565b6104e0826104ad565b6104f1816104ec610902565b610ad0565b6104fb8383610b34565b505050565b601290565b60008051602061171483398151915281565b61051f610902565b6001600160a01b0316816001600160a01b03161461054f5760405162461bcd60e51b815260040161047e90611528565b6105598282610bbb565b5050565b60006103fe61056a610902565b848460016000610578610902565b6001600160a01b03908116825260208083019390935260409182016000908120918b168152925290205461049d91906115bc565b6105c460008051602061171483398151915233610672565b6105e05760405162461bcd60e51b815260040161047e90611262565b6007805460ff1916911515919091179055565b6001600160a01b0382166106195760405162461bcd60e51b815260040161047e9061128d565b6106316000805160206116d483398151915233610672565b61064d5760405162461bcd60e51b815260040161047e906113fb565b6105598282610c40565b6001600160a01b031660009081526020819052604090205490565b60009182526005602090815260408084206001600160a01b0393909316845291905290205460ff1690565b60606004805461036790611651565b60075460ff1681565b600081565b600080600160006106c9610902565b6001600160a01b03908116825260208083019390935260409182016000908120918816815292529020549050828110156107155760405162461bcd60e51b815260040161047e906114e3565b61072b610720610902565b8561049d86856115f3565b5060019392505050565b60006103fe610742610902565b84846109ba565b6000805160206116b483398151915281565b61077360008051602061171483398151915233610672565b61078f5760405162461bcd60e51b815260040161047e90611262565b6001600160a01b03919091166000908152600660205260409020805460ff1916911515919091179055565b6107c3826104ad565b6107cf816104ec610902565b6104fb8383610bbb565b6001600160a01b03918216600090815260016020908152604080832093909416825291909152205490565b61081c6000805160206116b483398151915233610672565b6108385760405162461bcd60e51b815260040161047e90611345565b61084130610657565b8111156108605760405162461bcd60e51b815260040161047e906113c4565b60405163a9059cbb60e01b8152309063a9059cbb90610885908590859060040161115b565b602060405180830381600087803b15801561089f57600080fd5b505af11580156108b3573d6000803e3d6000fd5b505050506040513d601f19601f820116820180604052508101906104fb919061106e565b6000805160206116d483398151915281565b6001600160e01b031981166301ffc9a760e01b14919050565b3390565b6001600160a01b03831661092c5760405162461bcd60e51b815260040161047e9061146e565b6001600160a01b0382166109525760405162461bcd60e51b815260040161047e906112bd565b6001600160a01b0380841660008181526001602090815260408083209487168084529490915290819020849055517f8c5be1e5ebec7d5bd14f71427d1e84f3dd0314c0f7b2291e5b200ac8c7c3b925906109ad90859061117f565b60405180910390a3505050565b6001600160a01b0383166109e05760405162461bcd60e51b815260040161047e90611429565b6001600160a01b038216610a065760405162461bcd60e51b815260040161047e906111f0565b610a11838383610cee565b6001600160a01b03831660009081526020819052604090205481811015610a4a5760405162461bcd60e51b815260040161047e906112ff565b610a5482826115f3565b6001600160a01b038086166000908152602081905260408082209390935590851681529081208054849290610a8a9084906115bc565b92505081905550826001600160a01b0316846001600160a01b03166000805160206116f483398151915284604051610ac2919061117f565b60405180910390a350505050565b610ada8282610672565b61055957610af2816001600160a01b03166014610d9d565b610afd836020610d9d565b604051602001610b0e9291906110ec565b60408051601f198184030181529082905262461bcd60e51b825261047e91600401611188565b610b3e8282610672565b6105595760008281526005602090815260408083206001600160a01b03851684529091529020805460ff19166001179055610b77610902565b6001600160a01b0316816001600160a01b0316837f2f8788117e7eff1d82e926ec794901d17c78024a50270940304540a733656f0d60405160405180910390a45050565b610bc58282610672565b156105595760008281526005602090815260408083206001600160a01b03851684529091529020805460ff19169055610bfc610902565b6001600160a01b0316816001600160a01b0316837ff6391f5c32d9c69d2a47ea670b442974b53935d1edc7fd64eb21e047a839171b60405160405180910390a45050565b6001600160a01b038216610c665760405162461bcd60e51b815260040161047e90611577565b610c7260008383610cee565b8060026000828254610c8491906115bc565b90915550506001600160a01b03821660009081526020819052604081208054839290610cb19084906115bc565b90915550506040516001600160a01b038316906000906000805160206116f483398151915290610ce290859061117f565b60405180910390a35050565b60075460ff161580610d195750610d1360008051602061171483398151915284610672565b15156001145b610d355760405162461bcd60e51b815260040161047e90611233565b6001600160a01b03831660009081526006602052604090205460ff161580610d765750610d7060008051602061171483398151915284610672565b15156001145b610d925760405162461bcd60e51b815260040161047e906114b2565b6104fb8383836104fb565b60606000610dac8360026115d4565b610db79060026115bc565b6001600160401b03811115610ddc57634e487b7160e01b600052604160045260246000fd5b6040519080825280601f01601f191660200182016040528015610e06576020820181803683370190505b509050600360fc1b81600081518110610e2f57634e487b7160e01b600052603260045260246000fd5b60200101906001600160f81b031916908160001a905350600f60fb1b81600181518110610e6c57634e487b7160e01b600052603260045260246000fd5b60200101906001600160f81b031916908160001a9053506000610e908460026115d4565b610e9b9060016115bc565b90505b6001811115610f2f576f181899199a1a9b1b9c1cb0b131b232b360811b85600f1660108110610edd57634e487b7160e01b600052603260045260246000fd5b1a60f81b828281518110610f0157634e487b7160e01b600052603260045260246000fd5b60200101906001600160f81b031916908160001a90535060049490941c93610f288161163a565b9050610e9e565b508315610f4e5760405162461bcd60e51b815260040161047e906111bb565b9392505050565b80356001600160a01b038116811461035357600080fd5b600060208284031215610f7d578081fd5b610f4e82610f55565b60008060408385031215610f98578081fd5b610fa183610f55565b9150610faf60208401610f55565b90509250929050565b600080600060608486031215610fcc578081fd5b610fd584610f55565b9250610fe360208501610f55565b9150604084013590509250925092565b60008060408385031215611005578182fd5b61100e83610f55565b9150602083013561101e816116a2565b809150509250929050565b6000806040838503121561103b578182fd5b61104483610f55565b946020939093013593505050565b600060208284031215611063578081fd5b8135610f4e816116a2565b60006020828403121561107f578081fd5b8151610f4e816116a2565b60006020828403121561109b578081fd5b5035919050565b600080604083850312156110b4578182fd5b82359150610faf60208401610f55565b6000602082840312156110d5578081fd5b81356001600160e01b031981168114610f4e578182fd5b600076020b1b1b2b9b9a1b7b73a3937b61d1030b1b1b7bab73a1604d1b8252835161111e81601785016020880161160a565b7001034b99036b4b9b9b4b733903937b6329607d1b601791840191820152835161114f81602884016020880161160a565b01602801949350505050565b6001600160a01b03929092168252602082015260400190565b901515815260200190565b90815260200190565b60006020825282518060208401526111a781604085016020870161160a565b601f01601f19169190910160400192915050565b6020808252818101527f537472696e67733a20686578206c656e67746820696e73756666696369656e74604082015260600190565b60208082526023908201527f45524332303a207472616e7366657220746f20746865207a65726f206164647260408201526265737360e81b606082015260800190565b60208082526015908201527424b739bab63a21b7b4b71034b9903830bab9b2b21760591b604082015260600190565b602080825260119082015270596f75206172656e27742061206d6f642160781b604082015260600190565b602080825260169082015275596f752063616e2774206d696e7420746f203078302160501b604082015260600190565b60208082526022908201527f45524332303a20617070726f766520746f20746865207a65726f206164647265604082015261737360f01b606082015260800190565b60208082526026908201527f45524332303a207472616e7366657220616d6f756e7420657863656564732062604082015265616c616e636560d01b606082015260800190565b6020808252601e908201527f556e617574686f72697a65642c206e6f742066756e64206d616e616765720000604082015260600190565b60208082526028908201527f45524332303a207472616e7366657220616d6f756e74206578636565647320616040820152676c6c6f77616e636560c01b606082015260800190565b6020808252601d908201527f416d6f756e7420686967686572207468616e206d792062616c616e6365000000604082015260600190565b602080825260149082015273596f75206172656e27742061206d696e7465722160601b604082015260600190565b60208082526025908201527f45524332303a207472616e736665722066726f6d20746865207a65726f206164604082015264647265737360d81b606082015260800190565b60208082526024908201527f45524332303a20617070726f76652066726f6d20746865207a65726f206164646040820152637265737360e01b606082015260800190565b6020808252601790820152762cb7bab91030b1b1b7bab73a1034b9903830bab9b2b21760491b604082015260600190565b60208082526025908201527f45524332303a2064656372656173656420616c6c6f77616e63652062656c6f77604082015264207a65726f60d81b606082015260800190565b6020808252602f908201527f416363657373436f6e74726f6c3a2063616e206f6e6c792072656e6f756e636560408201526e103937b632b9903337b91039b2b63360891b606082015260800190565b6020808252601f908201527f45524332303a206d696e7420746f20746865207a65726f206164647265737300604082015260600190565b60ff91909116815260200190565b600082198211156115cf576115cf61168c565b500190565b60008160001904831182151516156115ee576115ee61168c565b500290565b6000828210156116055761160561168c565b500390565b60005b8381101561162557818101518382015260200161160d565b83811115611634576000848401525b50505050565b6000816116495761164961168c565b506000190190565b60028104600182168061166557607f821691505b6020821081141561168657634e487b7160e01b600052602260045260246000fd5b50919050565b634e487b7160e01b600052601160045260246000fd5b80151581146116b057600080fd5b5056fe66b94ad480ec0823f8a0b3535544afb3710cebd5bc6d9711751f209f2164a0a6f0887ba65ee2024ea881d91b74c2450ef19e1557f03bed3ea9f16b037cbe2dc9ddf252ad1be2c89b69c2b068fc378daa952ba7f163c4a11628f55a4df523b3ef450f604b66826728ca410073b516e1076aad0ea311f86fdebe2ee3302575f10ea2646970667358221220a96bfe19603f2147b1409af9a1eeed513acc64daa0725bd88891ac5c57748a3464736f6c6343000800003366b94ad480ec0823f8a0b3535544afb3710cebd5bc6d9711751f209f2164a0a6450f604b66826728ca410073b516e1076aad0ea311f86fdebe2ee3302575f10e",
  "linkReferences": {},
  "deployedLinkReferences": {}
}