{
  "_format": "hh-sol-artifact-1",
  "contractName": "TokenVesting",
  "sourceName": "contracts/Vesting.sol",
  "abi": [
    {
      "inputs": [
        {
          "internalType": "address",
          "name": "_beneficiary",
          "type": "address"
        },
        {
          "internalType": "uint256",
          "name": "_cliff",
          "type": "uint256"
        },
        {
          "internalType": "uint256",
          "name": "_duration",
          "type": "uint256"
        },
        {
          "internalType": "bool",
          "name": "_revocable",
          "type": "bool"
        }
      ],
      "stateMutability": "nonpayable",
      "type": "constructor"
    },
    {
      "anonymous": false,
      "inputs": [
        {
          "indexed": true,
          "internalType": "address",
          "name": "previousOwner",
          "type": "address"
        },
        {
          "indexed": true,
          "internalType": "address",
          "name": "newOwner",
          "type": "address"
        }
      ],
      "name": "OwnershipTransferred",
      "type": "event"
    },
    {
      "anonymous": false,
      "inputs": [
        {
          "indexed": false,
          "internalType": "uint256",
          "name": "amount",
          "type": "uint256"
        }
      ],
      "name": "Released",
      "type": "event"
    },
    {
      "anonymous": false,
      "inputs": [],
      "name": "Revoked",
      "type": "event"
    },
    {
      "inputs": [],
      "name": "beneficiary",
      "outputs": [
        {
          "internalType": "address",
          "name": "",
          "type": "address"
        }
      ],
      "stateMutability": "view",
      "type": "function"
    },
    {
      "inputs": [],
      "name": "cliff",
      "outputs": [
        {
          "internalType": "uint256",
          "name": "",
          "type": "uint256"
        }
      ],
      "stateMutability": "view",
      "type": "function"
    },
    {
      "inputs": [],
      "name": "duration",
      "outputs": [
        {
          "internalType": "uint256",
          "name": "",
          "type": "uint256"
        }
      ],
      "stateMutability": "view",
      "type": "function"
    },
    {
      "inputs": [],
      "name": "owner",
      "outputs": [
        {
          "internalType": "address",
          "name": "",
          "type": "address"
        }
      ],
      "stateMutability": "view",
      "type": "function"
    },
    {
      "inputs": [
        {
          "internalType": "contract ERC20",
          "name": "token",
          "type": "address"
        }
      ],
      "name": "releasableAmount",
      "outputs": [
        {
          "internalType": "uint256",
          "name": "",
          "type": "uint256"
        }
      ],
      "stateMutability": "view",
      "type": "function"
    },
    {
      "inputs": [
        {
          "internalType": "contract ERC20",
          "name": "token",
          "type": "address"
        }
      ],
      "name": "release",
      "outputs": [],
      "stateMutability": "nonpayable",
      "type": "function"
    },
    {
      "inputs": [
        {
          "internalType": "address",
          "name": "",
          "type": "address"
        }
      ],
      "name": "released",
      "outputs": [
        {
          "internalType": "uint256",
          "name": "",
          "type": "uint256"
        }
      ],
      "stateMutability": "view",
      "type": "function"
    },
    {
      "inputs": [],
      "name": "renounceOwnership",
      "outputs": [],
      "stateMutability": "nonpayable",
      "type": "function"
    },
    {
      "inputs": [],
      "name": "revocable",
      "outputs": [
        {
          "internalType": "bool",
          "name": "",
          "type": "bool"
        }
      ],
      "stateMutability": "view",
      "type": "function"
    },
    {
      "inputs": [
        {
          "internalType": "contract ERC20",
          "name": "token",
          "type": "address"
        }
      ],
      "name": "revoke",
      "outputs": [],
      "stateMutability": "nonpayable",
      "type": "function"
    },
    {
      "inputs": [
        {
          "internalType": "address",
          "name": "",
          "type": "address"
        }
      ],
      "name": "revoked",
      "outputs": [
        {
          "internalType": "bool",
          "name": "",
          "type": "bool"
        }
      ],
      "stateMutability": "view",
      "type": "function"
    },
    {
      "inputs": [],
      "name": "start",
      "outputs": [
        {
          "internalType": "uint256",
          "name": "",
          "type": "uint256"
        }
      ],
      "stateMutability": "view",
      "type": "function"
    },
    {
      "inputs": [
        {
          "internalType": "address",
          "name": "newOwner",
          "type": "address"
        }
      ],
      "name": "transferOwnership",
      "outputs": [],
      "stateMutability": "nonpayable",
      "type": "function"
    },
    {
      "inputs": [
        {
          "internalType": "contract ERC20",
          "name": "token",
          "type": "address"
        },
        {
          "internalType": "uint256",
          "name": "timestamp",
          "type": "uint256"
        }
      ],
      "name": "vestedAmount",
      "outputs": [
        {
          "internalType": "uint256",
          "name": "",
          "type": "uint256"
        }
      ],
      "stateMutability": "view",
      "type": "function"
    }
  ],
  "bytecode": "0x608060405234801561001057600080fd5b50604051610e7d380380610e7d83398101604081905261002f916100f0565b60006100396100ec565b600080546001600160a01b0319166001600160a01b0383169081178255604051929350917f8be0079c531659141344cd1fd0a4f28419497f9722a3daafe3b4186f6b6457e0908290a3506001600160a01b03841661009657600080fd5b818311156100a357600080fd5b600180546001600160a01b0319166001600160a01b0386161790556005805460ff19168215151790556004829055426100dc848261014a565b6002556003555061016e92505050565b3390565b60008060008060808587031215610105578384fd5b84516001600160a01b038116811461011b578485fd5b8094505060208501519250604085015191506060850151801515811461013f578182fd5b939692955090935050565b6000821982111561016957634e487b7160e01b81526011600452602481fd5b500190565b610d008061017d6000396000f3fe608060405234801561001057600080fd5b50600436106100ba5760003560e01c80630fb5a6b4146100bf57806313d033c0146100dd5780631726cbc8146100e557806317cf5391146100f8578063191655871461010b57806338af3eed14610120578063715018a61461013557806374a8f1031461013d578063872a7810146101505780638da5cb5b146101655780639852595c1461016d578063be9a655514610180578063f2fde38b14610188578063fa01dc061461019b575b600080fd5b6100c76101ae565b6040516100d49190610bd9565b60405180910390f35b6100c76101b4565b6100c76100f3366004610907565b6101ba565b6100c7610106366004610943565b6101ed565b61011e610119366004610907565b61031b565b005b6101286103e7565b6040516100d491906109a2565b61011e6103f6565b61011e61014b366004610907565b61046d565b61015861060e565b6040516100d491906109cf565b610128610617565b6100c761017b366004610907565b610626565b6100c7610638565b61011e610196366004610907565b61063e565b6101586101a9366004610907565b6106ec565b60045481565b60025481565b6001600160a01b0381166000908152600660205260408120546101dd83426101ed565b6101e79190610c39565b92915050565b600080836001600160a01b03166370a08231306040518263ffffffff1660e01b815260040161021c91906109a2565b60206040518083038186803b15801561023457600080fd5b505afa158015610248573d6000803e3d6000fd5b505050506040513d601f19601f8201168201806040525081019061026c919061096e565b6001600160a01b038516600090815260066020526040812054919250906102939083610be2565b90506002548410156102aa576000925050506101e7565b6004546003546102ba9190610be2565b841015806102e057506001600160a01b03851660009081526007602052604090205460ff165b156102ee5791506101e79050565b6004546003546102fe9086610c39565b6103089083610c1a565b6103129190610bfa565b95945050505050565b6000610326826101ba565b9050600081116103515760405162461bcd60e51b815260040161034890610a99565b60405180910390fd5b6001600160a01b038216600090815260066020526040902054610375908290610be2565b6001600160a01b0383166000908152600660205260409081902091909155517ffb81f9b30d73d830c3544b34d827c08142579ee75710b490bab0b3995468c565906103c1908390610bd9565b60405180910390a16001546103e3906001600160a01b03848116911683610701565b5050565b6001546001600160a01b031681565b6103fe61075c565b6001600160a01b031661040f610617565b6001600160a01b0316146104355760405162461bcd60e51b815260040161034890610aca565b600080546040516001600160a01b0390911690600080516020610cab833981519152908390a3600080546001600160a01b0319169055565b61047561075c565b6001600160a01b0316610486610617565b6001600160a01b0316146104ac5760405162461bcd60e51b815260040161034890610aca565b60055460ff166104ce5760405162461bcd60e51b815260040161034890610b36565b6001600160a01b03811660009081526007602052604090205460ff16156105075760405162461bcd60e51b815260040161034890610bb0565b6040516370a0823160e01b81526000906001600160a01b038316906370a08231906105369030906004016109a2565b60206040518083038186803b15801561054e57600080fd5b505afa158015610562573d6000803e3d6000fd5b505050506040513d601f19601f82011682018060405250810190610586919061096e565b90506000610593836101ba565b905060006105a18284610c39565b6001600160a01b038516600090815260076020526040808220805460ff19166001179055519192507f44825a4b2df8acb19ce4e1afba9aa850c8b65cdb7942e2078f27d0b0960efee691a16106086105f7610617565b6001600160a01b0386169083610701565b50505050565b60055460ff1681565b6000546001600160a01b031690565b60066020526000908152604090205481565b60035481565b61064661075c565b6001600160a01b0316610657610617565b6001600160a01b03161461067d5760405162461bcd60e51b815260040161034890610aca565b6001600160a01b0381166106a35760405162461bcd60e51b815260040161034890610a0d565b600080546040516001600160a01b0380851693921691600080516020610cab83398151915291a3600080546001600160a01b0319166001600160a01b0392909216919091179055565b60076020526000908152604090205460ff1681565b6107578363a9059cbb60e01b84846040516024016107209291906109b6565b60408051601f198184030181529190526020810180516001600160e01b03166001600160e01b031990931692909217909152610760565b505050565b3390565b60006107b5826040518060400160405280602081526020017f5361666545524332303a206c6f772d6c6576656c2063616c6c206661696c6564815250856001600160a01b03166107ef9092919063ffffffff16565b80519091501561075757808060200190518101906107d39190610923565b6107575760405162461bcd60e51b815260040161034890610b66565b60606107fe8484600085610808565b90505b9392505050565b60608247101561082a5760405162461bcd60e51b815260040161034890610a53565b610833856108c8565b61084f5760405162461bcd60e51b815260040161034890610aff565b600080866001600160a01b0316858760405161086b9190610986565b60006040518083038185875af1925050503d80600081146108a8576040519150601f19603f3d011682016040523d82523d6000602084013e6108ad565b606091505b50915091506108bd8282866108ce565b979650505050505050565b3b151590565b606083156108dd575081610801565b8251156108ed5782518084602001fd5b8160405162461bcd60e51b815260040161034891906109da565b600060208284031215610918578081fd5b813561080181610c92565b600060208284031215610934578081fd5b81518015158114610801578182fd5b60008060408385031215610955578081fd5b823561096081610c92565b946020939093013593505050565b60006020828403121561097f578081fd5b5051919050565b60008251610998818460208701610c50565b9190910192915050565b6001600160a01b0391909116815260200190565b6001600160a01b03929092168252602082015260400190565b901515815260200190565b60006020825282518060208401526109f9816040850160208701610c50565b601f01601f19169190910160400192915050565b60208082526026908201527f4f776e61626c653a206e6577206f776e657220697320746865207a65726f206160408201526564647265737360d01b606082015260800190565b60208082526026908201527f416464726573733a20696e73756666696369656e742062616c616e636520666f6040820152651c8818d85b1b60d21b606082015260800190565b6020808252601790820152762cb7ba9031b0b71031b630b4b69034ba103630ba32b91760491b604082015260600190565b6020808252818101527f4f776e61626c653a2063616c6c6572206973206e6f7420746865206f776e6572604082015260600190565b6020808252601d908201527f416464726573733a2063616c6c20746f206e6f6e2d636f6e7472616374000000604082015260600190565b6020808252601690820152752a3434b99031b0b713ba103132903932bb37b5b2b21760511b604082015260600190565b6020808252602a908201527f5361666545524332303a204552433230206f7065726174696f6e20646964206e6040820152691bdd081cdd58d8d9595960b21b606082015260800190565b6020808252600f908201526e105b1c9958591e481c995d9bdad959608a1b604082015260600190565b90815260200190565b60008219821115610bf557610bf5610c7c565b500190565b600082610c1557634e487b7160e01b81526012600452602481fd5b500490565b6000816000190483118215151615610c3457610c34610c7c565b500290565b600082821015610c4b57610c4b610c7c565b500390565b60005b83811015610c6b578181015183820152602001610c53565b838111156106085750506000910152565b634e487b7160e01b600052601160045260246000fd5b6001600160a01b0381168114610ca757600080fd5b5056fe8be0079c531659141344cd1fd0a4f28419497f9722a3daafe3b4186f6b6457e0a26469706673582212206324468fc8b9d4e608116165b0bdd0b793877dfed1a093da6ce4299fbe7f114f64736f6c63430008000033",
  "linkReferences": {},
  "deployedLinkReferences": {}
}