{
  "_format": "hh-sol-artifact-1",
  "contractName": "Token",
  "sourceName": "contracts/Token.sol",
  "abi": [
    {
      "inputs": [
        {
          "internalType": "string",
          "name": "_name",
          "type": "string"
        },
        {
          "internalType": "string",
          "name": "_symbol",
          "type": "string"
        },
        {
          "internalType": "uint256",
          "name": "_totalSupply",
          "type": "uint256"
        },
        {
          "internalType": "address",
          "name": "owner",
          "type": "address"
        },
        {
          "internalType": "address",
          "name": "fundman",
          "type": "address"
        },
        {
          "internalType": "address[]",
          "name": "minters",
          "type": "address[]"
        },
        {
          "internalType": "address[]",
          "name": "moderators",
          "type": "address[]"
        },
        {
          "internalType": "bool",
          "name": "usingDeployCtr",
          "type": "bool"
        }
      ],
      "stateMutability": "nonpayable",
      "type": "constructor"
    },
    {
      "anonymous": false,
      "inputs": [
        {
          "indexed": true,
          "internalType": "address",
          "name": "owner",
          "type": "address"
        },
        {
          "indexed": true,
          "internalType": "address",
          "name": "spender",
          "type": "address"
        },
        {
          "indexed": false,
          "internalType": "uint256",
          "name": "value",
          "type": "uint256"
        }
      ],
      "name": "Approval",
      "type": "event"
    },
    {
      "anonymous": false,
      "inputs": [
        {
          "indexed": true,
          "internalType": "bytes32",
          "name": "role",
          "type": "bytes32"
        },
        {
          "indexed": true,
          "internalType": "bytes32",
          "name": "previousAdminRole",
          "type": "bytes32"
        },
        {
          "indexed": true,
          "internalType": "bytes32",
          "name": "newAdminRole",
          "type": "bytes32"
        }
      ],
      "name": "RoleAdminChanged",
      "type": "event"
    },
    {
      "anonymous": false,
      "inputs": [
        {
          "indexed": true,
          "internalType": "bytes32",
          "name": "role",
          "type": "bytes32"
        },
        {
          "indexed": true,
          "internalType": "address",
          "name": "account",
          "type": "address"
        },
        {
          "indexed": true,
          "internalType": "address",
          "name": "sender",
          "type": "address"
        }
      ],
      "name": "RoleGranted",
      "type": "event"
    },
    {
      "anonymous": false,
      "inputs": [
        {
          "indexed": true,
          "internalType": "bytes32",
          "name": "role",
          "type": "bytes32"
        },
        {
          "indexed": true,
          "internalType": "address",
          "name": "account",
          "type": "address"
        },
        {
          "indexed": true,
          "internalType": "address",
          "name": "sender",
          "type": "address"
        }
      ],
      "name": "RoleRevoked",
      "type": "event"
    },
    {
      "anonymous": false,
      "inputs": [
        {
          "indexed": true,
          "internalType": "address",
          "name": "from",
          "type": "address"
        },
        {
          "indexed": true,
          "internalType": "address",
          "name": "to",
          "type": "address"
        },
        {
          "indexed": false,
          "internalType": "uint256",
          "name": "value",
          "type": "uint256"
        }
      ],
      "name": "Transfer",
      "type": "event"
    },
    {
      "inputs": [],
      "name": "DEFAULT_ADMIN_ROLE",
      "outputs": [
        {
          "internalType": "bytes32",
          "name": "",
          "type": "bytes32"
        }
      ],
      "stateMutability": "view",
      "type": "function"
    },
    {
      "inputs": [],
      "name": "FUNDMAN",
      "outputs": [
        {
          "internalType": "bytes32",
          "name": "",
          "type": "bytes32"
        }
      ],
      "stateMutability": "view",
      "type": "function"
    },
    {
      "inputs": [],
      "name": "MINTER",
      "outputs": [
        {
          "internalType": "bytes32",
          "name": "",
          "type": "bytes32"
        }
      ],
      "stateMutability": "view",
      "type": "function"
    },
    {
      "inputs": [],
      "name": "MODERATOR",
      "outputs": [
        {
          "internalType": "bytes32",
          "name": "",
          "type": "bytes32"
        }
      ],
      "stateMutability": "view",
      "type": "function"
    },
    {
      "inputs": [
        {
          "internalType": "address",
          "name": "owner",
          "type": "address"
        },
        {
          "internalType": "address",
          "name": "spender",
          "type": "address"
        }
      ],
      "name": "allowance",
      "outputs": [
        {
          "internalType": "uint256",
          "name": "",
          "type": "uint256"
        }
      ],
      "stateMutability": "view",
      "type": "function"
    },
    {
      "inputs": [
        {
          "internalType": "address",
          "name": "spender",
          "type": "address"
        },
        {
          "internalType": "uint256",
          "name": "amount",
          "type": "uint256"
        }
      ],
      "name": "approve",
      "outputs": [
        {
          "internalType": "bool",
          "name": "",
          "type": "bool"
        }
      ],
      "stateMutability": "nonpayable",
      "type": "function"
    },
    {
      "inputs": [
        {
          "internalType": "address",
          "name": "account",
          "type": "address"
        }
      ],
      "name": "balanceOf",
      "outputs": [
        {
          "internalType": "uint256",
          "name": "",
          "type": "uint256"
        }
      ],
      "stateMutability": "view",
      "type": "function"
    },
    {
      "inputs": [],
      "name": "decimals",
      "outputs": [
        {
          "internalType": "uint8",
          "name": "",
          "type": "uint8"
        }
      ],
      "stateMutability": "view",
      "type": "function"
    },
    {
      "inputs": [
        {
          "internalType": "address",
          "name": "spender",
          "type": "address"
        },
        {
          "internalType": "uint256",
          "name": "subtractedValue",
          "type": "uint256"
        }
      ],
      "name": "decreaseAllowance",
      "outputs": [
        {
          "internalType": "bool",
          "name": "",
          "type": "bool"
        }
      ],
      "stateMutability": "nonpayable",
      "type": "function"
    },
    {
      "inputs": [
        {
          "internalType": "bytes32",
          "name": "role",
          "type": "bytes32"
        }
      ],
      "name": "getRoleAdmin",
      "outputs": [
        {
          "internalType": "bytes32",
          "name": "",
          "type": "bytes32"
        }
      ],
      "stateMutability": "view",
      "type": "function"
    },
    {
      "inputs": [
        {
          "internalType": "bytes32",
          "name": "role",
          "type": "bytes32"
        },
        {
          "internalType": "address",
          "name": "account",
          "type": "address"
        }
      ],
      "name": "grantRole",
      "outputs": [],
      "stateMutability": "nonpayable",
      "type": "function"
    },
    {
      "inputs": [
        {
          "internalType": "bytes32",
          "name": "role",
          "type": "bytes32"
        },
        {
          "internalType": "address",
          "name": "account",
          "type": "address"
        }
      ],
      "name": "hasRole",
      "outputs": [
        {
          "internalType": "bool",
          "name": "",
          "type": "bool"
        }
      ],
      "stateMutability": "view",
      "type": "function"
    },
    {
      "inputs": [
        {
          "internalType": "address",
          "name": "spender",
          "type": "address"
        },
        {
          "internalType": "uint256",
          "name": "addedValue",
          "type": "uint256"
        }
      ],
      "name": "increaseAllowance",
      "outputs": [
        {
          "internalType": "bool",
          "name": "",
          "type": "bool"
        }
      ],
      "stateMutability": "nonpayable",
      "type": "function"
    },
    {
      "inputs": [
        {
          "internalType": "address",
          "name": "addr",
          "type": "address"
        },
        {
          "internalType": "uint256",
          "name": "amount",
          "type": "uint256"
        }
      ],
      "name": "mint",
      "outputs": [],
      "stateMutability": "nonpayable",
      "type": "function"
    },
    {
      "inputs": [],
      "name": "name",
      "outputs": [
        {
          "internalType": "string",
          "name": "",
          "type": "string"
        }
      ],
      "stateMutability": "view",
      "type": "function"
    },
    {
      "inputs": [
        {
          "internalType": "address",
          "name": "",
          "type": "address"
        }
      ],
      "name": "paused",
      "outputs": [
        {
          "internalType": "bool",
          "name": "",
          "type": "bool"
        }
      ],
      "stateMutability": "view",
      "type": "function"
    },
    {
      "inputs": [],
      "name": "pausedAll",
      "outputs": [
        {
          "internalType": "bool",
          "name": "",
          "type": "bool"
        }
      ],
      "stateMutability": "view",
      "type": "function"
    },
    {
      "inputs": [
        {
          "internalType": "bytes32",
          "name": "role",
          "type": "bytes32"
        },
        {
          "internalType": "address",
          "name": "account",
          "type": "address"
        }
      ],
      "name": "renounceRole",
      "outputs": [],
      "stateMutability": "nonpayable",
      "type": "function"
    },
    {
      "inputs": [
        {
          "internalType": "bytes32",
          "name": "role",
          "type": "bytes32"
        },
        {
          "internalType": "address",
          "name": "account",
          "type": "address"
        }
      ],
      "name": "revokeRole",
      "outputs": [],
      "stateMutability": "nonpayable",
      "type": "function"
    },
    {
      "inputs": [
        {
          "internalType": "address",
          "name": "addr",
          "type": "address"
        },
        {
          "internalType": "bool",
          "name": "toggle",
          "type": "bool"
        }
      ],
      "name": "setPause",
      "outputs": [],
      "stateMutability": "nonpayable",
      "type": "function"
    },
    {
      "inputs": [
        {
          "internalType": "bool",
          "name": "toggle",
          "type": "bool"
        }
      ],
      "name": "setPauseAll",
      "outputs": [],
      "stateMutability": "nonpayable",
      "type": "function"
    },
    {
      "inputs": [
        {
          "internalType": "bytes4",
          "name": "interfaceId",
          "type": "bytes4"
        }
      ],
      "name": "supportsInterface",
      "outputs": [
        {
          "internalType": "bool",
          "name": "",
          "type": "bool"
        }
      ],
      "stateMutability": "view",
      "type": "function"
    },
    {
      "inputs": [],
      "name": "symbol",
      "outputs": [
        {
          "internalType": "string",
          "name": "",
          "type": "string"
        }
      ],
      "stateMutability": "view",
      "type": "function"
    },
    {
      "inputs": [],
      "name": "totalSupply",
      "outputs": [
        {
          "internalType": "uint256",
          "name": "",
          "type": "uint256"
        }
      ],
      "stateMutability": "view",
      "type": "function"
    },
    {
      "inputs": [
        {
          "internalType": "address",
          "name": "recipient",
          "type": "address"
        },
        {
          "internalType": "uint256",
          "name": "amount",
          "type": "uint256"
        }
      ],
      "name": "transfer",
      "outputs": [
        {
          "internalType": "bool",
          "name": "",
          "type": "bool"
        }
      ],
      "stateMutability": "nonpayable",
      "type": "function"
    },
    {
      "inputs": [
        {
          "internalType": "address",
          "name": "sender",
          "type": "address"
        },
        {
          "internalType": "address",
          "name": "recipient",
          "type": "address"
        },
        {
          "internalType": "uint256",
          "name": "amount",
          "type": "uint256"
        }
      ],
      "name": "transferFrom",
      "outputs": [
        {
          "internalType": "bool",
          "name": "",
          "type": "bool"
        }
      ],
      "stateMutability": "nonpayable",
      "type": "function"
    },
    {
      "inputs": [
        {
          "internalType": "address",
          "name": "receiver",
          "type": "address"
        },
        {
          "internalType": "uint256",
          "name": "amount",
          "type": "uint256"
        }
      ],
      "name": "withdraw",
      "outputs": [],
      "stateMutability": "nonpayable",
      "type": "function"
    }
  ],
  "bytecode": "0x60806040523480156200001157600080fd5b506040516200203738038062002037833981016040819052620000349162000612565b8751889088906200004d9060039060208501906200041a565b508051620000639060049060208401906200041a565b505050620000783087620001b260201b60201c565b8015620000a7576200008c60003362000286565b620000a760008051602062001ff78339815191523362000286565b620000b460008662000286565b620000cf60008051602062001ff78339815191528562000286565b60005b83518110156200014b57620001367ff0887ba65ee2024ea881d91b74c2450ef19e1557f03bed3ea9f16b037cbe2dc98583815181106200012257634e487b7160e01b600052603260045260246000fd5b60200260200101516200028660201b60201c565b8062000142816200083a565b915050620000d2565b5060005b8251811015620001a3576200018e600080516020620020178339815191528483815181106200012257634e487b7160e01b600052603260045260246000fd5b806200019a816200083a565b9150506200014f565b50505050505050505062000884565b6001600160a01b038216620001e45760405162461bcd60e51b8152600401620001db9062000776565b60405180910390fd5b620001f26000838362000296565b8060026000828254620002069190620007e2565b90915550506001600160a01b0382166000908152602081905260408120805483929062000235908490620007e2565b90915550506040516001600160a01b038316906000907fddf252ad1be2c89b69c2b068fc378daa952ba7f163c4a11628f55a4df523b3ef906200027a908590620007ad565b60405180910390a35050565b6200029282826200035f565b5050565b60075460ff16158015620002c25750620002c06000805160206200201783398151915284620003eb565b155b620002e15760405162461bcd60e51b8152600401620001db9062000708565b6001600160a01b03831660009081526006602052604090205460ff16158015620003235750620003216000805160206200201783398151915284620003eb565b155b620003425760405162461bcd60e51b8152600401620001db906200073f565b6200035a8383836200035a60201b620004fb1760201c565b505050565b6200036b8282620003eb565b620002925760008281526005602090815260408083206001600160a01b03851684529091529020805460ff19166001179055620003a762000416565b6001600160a01b0316816001600160a01b0316837f2f8788117e7eff1d82e926ec794901d17c78024a50270940304540a733656f0d60405160405180910390a45050565b60009182526005602090815260408084206001600160a01b0393909316845291905290205460ff1690565b3390565b8280546200042890620007fd565b90600052602060002090601f0160209004810192826200044c576000855562000497565b82601f106200046757805160ff191683800117855562000497565b8280016001018555821562000497579182015b82811115620004975782518255916020019190600101906200047a565b50620004a5929150620004a9565b5090565b5b80821115620004a55760008155600101620004aa565b80516001600160a01b0381168114620004d857600080fd5b919050565b600082601f830112620004ee578081fd5b815160206001600160401b038211156200050c576200050c6200086e565b8082026200051c828201620007b6565b83815282810190868401838801850189101562000537578687fd5b8693505b8584101562000564576200054f81620004c0565b8352600193909301929184019184016200053b565b50979650505050505050565b80518015158114620004d857600080fd5b600082601f83011262000592578081fd5b81516001600160401b03811115620005ae57620005ae6200086e565b6020620005c4601f8301601f19168201620007b6565b8281528582848701011115620005d8578384fd5b835b83811015620005f7578581018301518282018401528201620005da565b838111156200060857848385840101525b5095945050505050565b600080600080600080600080610100898b0312156200062f578384fd5b88516001600160401b038082111562000646578586fd5b620006548c838d0162000581565b995060208b01519150808211156200066a578586fd5b620006788c838d0162000581565b985060408b015197506200068f60608c01620004c0565b96506200069f60808c01620004c0565b955060a08b0151915080821115620006b5578485fd5b620006c38c838d01620004dd565b945060c08b0151915080821115620006d9578384fd5b50620006e88b828c01620004dd565b925050620006f960e08a0162000570565b90509295985092959890939650565b60208082526015908201527f496e73756c74436f696e206973207061757365642e0000000000000000000000604082015260600190565b60208082526017908201527f596f7572206163636f756e74206973207061757365642e000000000000000000604082015260600190565b6020808252601f908201527f45524332303a206d696e7420746f20746865207a65726f206164647265737300604082015260600190565b90815260200190565b6040518181016001600160401b0381118282101715620007da57620007da6200086e565b604052919050565b60008219821115620007f857620007f862000858565b500190565b6002810460018216806200081257607f821691505b602082108114156200083457634e487b7160e01b600052602260045260246000fd5b50919050565b600060001982141562000851576200085162000858565b5060010190565b634e487b7160e01b600052601160045260246000fd5b634e487b7160e01b600052604160045260246000fd5b61176380620008946000396000f3fe608060405234801561001057600080fd5b50600436106101495760003560e01c806301ffc9a71461014e57806306fdde0314610177578063095ea7b31461018c57806318160ddd1461019f57806323b872dd146101b4578063248a9ca3146101c75780632e48152c146101da5780632f2ff15d146101ed578063313ce5671461020257806334b4e6251461021757806336568abe1461021f57806339509351146102325780633fd629c21461024557806340c10f191461025857806370a082311461026b57806391d148541461027e57806395d89b41146102915780639be6390e14610299578063a217fddf146102a1578063a457c2d7146102a9578063a9059cbb146102bc578063ad343299146102cf578063c22dc722146102d7578063d547741f146102ea578063dd62ed3e146102fd578063f3fef3a314610310578063fe6d812414610323575b600080fd5b61016161015c3660046110be565b61032b565b60405161016e919061116e565b60405180910390f35b61017f610358565b60405161016e9190611182565b61016161019a366004611023565b6103ea565b6101a7610407565b60405161016e9190611179565b6101616101c2366004610fb2565b61040d565b6101a76101d5366004611084565b6104ad565b6101616101e8366004610f66565b6104c2565b6102006101fb36600461109c565b6104d7565b005b61020a610500565b60405161016e91906115a8565b6101a7610505565b61020061022d36600461109c565b610517565b610161610240366004611023565b61055d565b61020061025336600461104c565b6105ac565b610200610266366004611023565b6105f3565b6101a7610279366004610f66565b610657565b61016161028c36600461109c565b610672565b61017f61069d565b6101616106ac565b6101a76106b5565b6101616102b7366004611023565b6106ba565b6101616102ca366004611023565b610735565b6101a7610749565b6102006102e5366004610fed565b61075b565b6102006102f836600461109c565b6107ba565b6101a761030b366004610f80565b6107d9565b61020061031e366004611023565b610804565b6101a76108d7565b60006001600160e01b03198216637965db0b60e01b14806103505750610350826108e9565b90505b919050565b6060600380546103679061164b565b80601f01602080910402602001604051908101604052809291908181526020018280546103939061164b565b80156103e05780601f106103b5576101008083540402835291602001916103e0565b820191906000526020600020905b8154815290600101906020018083116103c357829003601f168201915b5050505050905090565b60006103fe6103f7610902565b8484610906565b50600192915050565b60025490565b600061041a8484846109ba565b6001600160a01b03841660009081526001602052604081208161043b610902565b6001600160a01b03166001600160a01b03168152602001908152602001600020549050828110156104875760405162461bcd60e51b815260040161047e90611376565b60405180910390fd5b6104a285610493610902565b61049d86856115ed565b610906565b506001949350505050565b60009081526005602052604090206001015490565b60066020526000908152604090205460ff1681565b6104e0826104ad565b6104f1816104ec610902565b610ad0565b6104fb8383610b34565b505050565b601290565b60008051602061170e83398151915281565b61051f610902565b6001600160a01b0316816001600160a01b03161461054f5760405162461bcd60e51b815260040161047e90611522565b6105598282610bbb565b5050565b60006103fe61056a610902565b848460016000610578610902565b6001600160a01b03908116825260208083019390935260409182016000908120918b168152925290205461049d91906115b6565b6105c460008051602061170e83398151915233610672565b6105e05760405162461bcd60e51b815260040161047e9061125c565b6007805460ff1916911515919091179055565b6001600160a01b0382166106195760405162461bcd60e51b815260040161047e90611287565b6106316000805160206116ce83398151915233610672565b61064d5760405162461bcd60e51b815260040161047e906113f5565b6105598282610c40565b6001600160a01b031660009081526020819052604090205490565b60009182526005602090815260408084206001600160a01b0393909316845291905290205460ff1690565b6060600480546103679061164b565b60075460ff1681565b600081565b600080600160006106c9610902565b6001600160a01b03908116825260208083019390935260409182016000908120918816815292529020549050828110156107155760405162461bcd60e51b815260040161047e906114dd565b61072b610720610902565b8561049d86856115ed565b5060019392505050565b60006103fe610742610902565b84846109ba565b6000805160206116ae83398151915281565b61077360008051602061170e83398151915233610672565b61078f5760405162461bcd60e51b815260040161047e9061125c565b6001600160a01b03919091166000908152600660205260409020805460ff1916911515919091179055565b6107c3826104ad565b6107cf816104ec610902565b6104fb8383610bbb565b6001600160a01b03918216600090815260016020908152604080832093909416825291909152205490565b61081c6000805160206116ae83398151915233610672565b6108385760405162461bcd60e51b815260040161047e9061133f565b61084130610657565b8111156108605760405162461bcd60e51b815260040161047e906113be565b60405163a9059cbb60e01b8152309063a9059cbb906108859085908590600401611155565b602060405180830381600087803b15801561089f57600080fd5b505af11580156108b3573d6000803e3d6000fd5b505050506040513d601f19601f820116820180604052508101906104fb9190611068565b6000805160206116ce83398151915281565b6001600160e01b031981166301ffc9a760e01b14919050565b3390565b6001600160a01b03831661092c5760405162461bcd60e51b815260040161047e90611468565b6001600160a01b0382166109525760405162461bcd60e51b815260040161047e906112b7565b6001600160a01b0380841660008181526001602090815260408083209487168084529490915290819020849055517f8c5be1e5ebec7d5bd14f71427d1e84f3dd0314c0f7b2291e5b200ac8c7c3b925906109ad908590611179565b60405180910390a3505050565b6001600160a01b0383166109e05760405162461bcd60e51b815260040161047e90611423565b6001600160a01b038216610a065760405162461bcd60e51b815260040161047e906111ea565b610a11838383610cee565b6001600160a01b03831660009081526020819052604090205481811015610a4a5760405162461bcd60e51b815260040161047e906112f9565b610a5482826115ed565b6001600160a01b038086166000908152602081905260408082209390935590851681529081208054849290610a8a9084906115b6565b92505081905550826001600160a01b0316846001600160a01b03166000805160206116ee83398151915284604051610ac29190611179565b60405180910390a350505050565b610ada8282610672565b61055957610af2816001600160a01b03166014610d97565b610afd836020610d97565b604051602001610b0e9291906110e6565b60408051601f198184030181529082905262461bcd60e51b825261047e91600401611182565b610b3e8282610672565b6105595760008281526005602090815260408083206001600160a01b03851684529091529020805460ff19166001179055610b77610902565b6001600160a01b0316816001600160a01b0316837f2f8788117e7eff1d82e926ec794901d17c78024a50270940304540a733656f0d60405160405180910390a45050565b610bc58282610672565b156105595760008281526005602090815260408083206001600160a01b03851684529091529020805460ff19169055610bfc610902565b6001600160a01b0316816001600160a01b0316837ff6391f5c32d9c69d2a47ea670b442974b53935d1edc7fd64eb21e047a839171b60405160405180910390a45050565b6001600160a01b038216610c665760405162461bcd60e51b815260040161047e90611571565b610c7260008383610cee565b8060026000828254610c8491906115b6565b90915550506001600160a01b03821660009081526020819052604081208054839290610cb19084906115b6565b90915550506040516001600160a01b038316906000906000805160206116ee83398151915290610ce2908590611179565b60405180910390a35050565b60075460ff16158015610d165750610d1460008051602061170e83398151915284610672565b155b610d325760405162461bcd60e51b815260040161047e9061122d565b6001600160a01b03831660009081526006602052604090205460ff16158015610d705750610d6e60008051602061170e83398151915284610672565b155b610d8c5760405162461bcd60e51b815260040161047e906114ac565b6104fb8383836104fb565b60606000610da68360026115ce565b610db19060026115b6565b6001600160401b03811115610dd657634e487b7160e01b600052604160045260246000fd5b6040519080825280601f01601f191660200182016040528015610e00576020820181803683370190505b509050600360fc1b81600081518110610e2957634e487b7160e01b600052603260045260246000fd5b60200101906001600160f81b031916908160001a905350600f60fb1b81600181518110610e6657634e487b7160e01b600052603260045260246000fd5b60200101906001600160f81b031916908160001a9053506000610e8a8460026115ce565b610e959060016115b6565b90505b6001811115610f29576f181899199a1a9b1b9c1cb0b131b232b360811b85600f1660108110610ed757634e487b7160e01b600052603260045260246000fd5b1a60f81b828281518110610efb57634e487b7160e01b600052603260045260246000fd5b60200101906001600160f81b031916908160001a90535060049490941c93610f2281611634565b9050610e98565b508315610f485760405162461bcd60e51b815260040161047e906111b5565b9392505050565b80356001600160a01b038116811461035357600080fd5b600060208284031215610f77578081fd5b610f4882610f4f565b60008060408385031215610f92578081fd5b610f9b83610f4f565b9150610fa960208401610f4f565b90509250929050565b600080600060608486031215610fc6578081fd5b610fcf84610f4f565b9250610fdd60208501610f4f565b9150604084013590509250925092565b60008060408385031215610fff578182fd5b61100883610f4f565b915060208301356110188161169c565b809150509250929050565b60008060408385031215611035578182fd5b61103e83610f4f565b946020939093013593505050565b60006020828403121561105d578081fd5b8135610f488161169c565b600060208284031215611079578081fd5b8151610f488161169c565b600060208284031215611095578081fd5b5035919050565b600080604083850312156110ae578182fd5b82359150610fa960208401610f4f565b6000602082840312156110cf578081fd5b81356001600160e01b031981168114610f48578182fd5b600076020b1b1b2b9b9a1b7b73a3937b61d1030b1b1b7bab73a1604d1b82528351611118816017850160208801611604565b7001034b99036b4b9b9b4b733903937b6329607d1b6017918401918201528351611149816028840160208801611604565b01602801949350505050565b6001600160a01b03929092168252602082015260400190565b901515815260200190565b90815260200190565b60006020825282518060208401526111a1816040850160208701611604565b601f01601f19169190910160400192915050565b6020808252818101527f537472696e67733a20686578206c656e67746820696e73756666696369656e74604082015260600190565b60208082526023908201527f45524332303a207472616e7366657220746f20746865207a65726f206164647260408201526265737360e81b606082015260800190565b60208082526015908201527424b739bab63a21b7b4b71034b9903830bab9b2b21760591b604082015260600190565b602080825260119082015270596f75206172656e27742061206d6f642160781b604082015260600190565b602080825260169082015275596f752063616e2774206d696e7420746f203078302160501b604082015260600190565b60208082526022908201527f45524332303a20617070726f766520746f20746865207a65726f206164647265604082015261737360f01b606082015260800190565b60208082526026908201527f45524332303a207472616e7366657220616d6f756e7420657863656564732062604082015265616c616e636560d01b606082015260800190565b6020808252601e908201527f556e617574686f72697a65642c206e6f742066756e64206d616e616765720000604082015260600190565b60208082526028908201527f45524332303a207472616e7366657220616d6f756e74206578636565647320616040820152676c6c6f77616e636560c01b606082015260800190565b6020808252601d908201527f416d6f756e7420686967686572207468616e206d792062616c616e6365000000604082015260600190565b602080825260149082015273596f75206172656e27742061206d696e7465722160601b604082015260600190565b60208082526025908201527f45524332303a207472616e736665722066726f6d20746865207a65726f206164604082015264647265737360d81b606082015260800190565b60208082526024908201527f45524332303a20617070726f76652066726f6d20746865207a65726f206164646040820152637265737360e01b606082015260800190565b6020808252601790820152762cb7bab91030b1b1b7bab73a1034b9903830bab9b2b21760491b604082015260600190565b60208082526025908201527f45524332303a2064656372656173656420616c6c6f77616e63652062656c6f77604082015264207a65726f60d81b606082015260800190565b6020808252602f908201527f416363657373436f6e74726f6c3a2063616e206f6e6c792072656e6f756e636560408201526e103937b632b9903337b91039b2b63360891b606082015260800190565b6020808252601f908201527f45524332303a206d696e7420746f20746865207a65726f206164647265737300604082015260600190565b60ff91909116815260200190565b600082198211156115c9576115c9611686565b500190565b60008160001904831182151516156115e8576115e8611686565b500290565b6000828210156115ff576115ff611686565b500390565b60005b8381101561161f578181015183820152602001611607565b8381111561162e576000848401525b50505050565b60008161164357611643611686565b506000190190565b60028104600182168061165f57607f821691505b6020821081141561168057634e487b7160e01b600052602260045260246000fd5b50919050565b634e487b7160e01b600052601160045260246000fd5b80151581146116aa57600080fd5b5056fe66b94ad480ec0823f8a0b3535544afb3710cebd5bc6d9711751f209f2164a0a6f0887ba65ee2024ea881d91b74c2450ef19e1557f03bed3ea9f16b037cbe2dc9ddf252ad1be2c89b69c2b068fc378daa952ba7f163c4a11628f55a4df523b3ef450f604b66826728ca410073b516e1076aad0ea311f86fdebe2ee3302575f10ea2646970667358221220f57fb7092ebf4a96d78778649909aa480bc8a16879be69e3291e7e47a4efdf4c64736f6c6343000800003366b94ad480ec0823f8a0b3535544afb3710cebd5bc6d9711751f209f2164a0a6450f604b66826728ca410073b516e1076aad0ea311f86fdebe2ee3302575f10e",
  "linkReferences": {},
  "deployedLinkReferences": {}
}